{"abi":[{"type":"constructor","inputs":[],"stateMutability":"payable"},{"type":"receive","stateMutability":"payable"},{"type":"function","name":"coverDebt","inputs":[],"outputs":[],"stateMutability":"nonpayable"},{"type":"function","name":"deactivateProfile","inputs":[],"outputs":[],"stateMutability":"nonpayable"},{"type":"function","name":"getAddressByNickname","inputs":[{"name":"nickname","type":"string","internalType":"string"}],"outputs":[{"name":"","type":"address","internalType":"address"}],"stateMutability":"view"},{"type":"function","name":"getAvailablePeriods","inputs":[],"outputs":[{"name":"","type":"uint256[]","internalType":"uint256[]"}],"stateMutability":"view"},{"type":"function","name":"getLatestMessages","inputs":[{"name":"count","type":"uint256","internalType":"uint256"}],"outputs":[{"name":"","type":"tuple[]","internalType":"struct ReactiveTwitter.Message[]","components":[{"name":"sender","type":"address","internalType":"address"},{"name":"content","type":"string","internalType":"string"},{"name":"timestamp","type":"uint256","internalType":"uint256"},{"name":"nickname","type":"string","internalType":"string"},{"name":"replyToMessageId","type":"uint256","internalType":"uint256"},{"name":"isDeleted","type":"bool","internalType":"bool"}]}],"stateMutability":"view"},{"type":"function","name":"getMessageCount","inputs":[],"outputs":[{"name":"","type":"uint256","internalType":"uint256"}],"stateMutability":"view"},{"type":"function","name":"getMessagesByPeriod","inputs":[{"name":"period","type":"uint256","internalType":"uint256"}],"outputs":[{"name":"","type":"tuple[]","internalType":"struct ReactiveTwitter.Message[]","components":[{"name":"sender","type":"address","internalType":"address"},{"name":"content","type":"string","internalType":"string"},{"name":"timestamp","type":"uint256","internalType":"uint256"},{"name":"nickname","type":"string","internalType":"string"},{"name":"replyToMessageId","type":"uint256","internalType":"uint256"},{"name":"isDeleted","type":"bool","internalType":"bool"}]}],"stateMutability":"view"},{"type":"function","name":"getMessagesBySender","inputs":[{"name":"sender","type":"address","internalType":"address"}],"outputs":[{"name":"","type":"tuple[]","internalType":"struct ReactiveTwitter.Message[]","components":[{"name":"sender","type":"address","internalType":"address"},{"name":"content","type":"string","internalType":"string"},{"name":"timestamp","type":"uint256","internalType":"uint256"},{"name":"nickname","type":"string","internalType":"string"},{"name":"replyToMessageId","type":"uint256","internalType":"uint256"},{"name":"isDeleted","type":"bool","internalType":"bool"}]}],"stateMutability":"view"},{"type":"function","name":"getMessagesWithPagination","inputs":[{"name":"page","type":"uint256","internalType":"uint256"},{"name":"pageSize","type":"uint256","internalType":"uint256"}],"outputs":[{"name":"","type":"tuple[]","internalType":"struct ReactiveTwitter.Message[]","components":[{"name":"sender","type":"address","internalType":"address"},{"name":"content","type":"string","internalType":"string"},{"name":"timestamp","type":"uint256","internalType":"uint256"},{"name":"nickname","type":"string","internalType":"string"},{"name":"replyToMessageId","type":"uint256","internalType":"uint256"},{"name":"isDeleted","type":"bool","internalType":"bool"}]}],"stateMutability":"view"},{"type":"function","name":"getOriginalMessage","inputs":[{"name":"replyMessageId","type":"uint256","internalType":"uint256"}],"outputs":[{"name":"","type":"tuple","internalType":"struct ReactiveTwitter.Message","components":[{"name":"sender","type":"address","internalType":"address"},{"name":"content","type":"string","internalType":"string"},{"name":"timestamp","type":"uint256","internalType":"uint256"},{"name":"nickname","type":"string","internalType":"string"},{"name":"replyToMessageId","type":"uint256","internalType":"uint256"},{"name":"isDeleted","type":"bool","internalType":"bool"}]}],"stateMutability":"view"},{"type":"function","name":"getRepliesForMessage","inputs":[{"name":"messageId","type":"uint256","internalType":"uint256"}],"outputs":[{"name":"","type":"tuple[]","internalType":"struct ReactiveTwitter.Message[]","components":[{"name":"sender","type":"address","internalType":"address"},{"name":"content","type":"string","internalType":"string"},{"name":"timestamp","type":"uint256","internalType":"uint256"},{"name":"nickname","type":"string","internalType":"string"},{"name":"replyToMessageId","type":"uint256","internalType":"uint256"},{"name":"isDeleted","type":"bool","internalType":"bool"}]}],"stateMutability":"view"},{"type":"function","name":"getUserProfile","inputs":[{"name":"user","type":"address","internalType":"address"}],"outputs":[{"name":"nickname","type":"string","internalType":"string"},{"name":"avatarCode","type":"string","internalType":"string"},{"name":"isActive","type":"bool","internalType":"bool"}],"stateMutability":"view"},{"type":"function","name":"markMessageAsDeleted","inputs":[{"name":"messageId","type":"uint256","internalType":"uint256"}],"outputs":[],"stateMutability":"nonpayable"},{"type":"function","name":"pay","inputs":[{"name":"amount","type":"uint256","internalType":"uint256"}],"outputs":[],"stateMutability":"nonpayable"},{"type":"function","name":"postMessage","inputs":[{"name":"content","type":"string","internalType":"string"}],"outputs":[],"stateMutability":"nonpayable"},{"type":"function","name":"react","inputs":[{"name":"","type":"tuple","internalType":"struct IReactive.LogRecord","components":[{"name":"chain_id","type":"uint256","internalType":"uint256"},{"name":"_contract","type":"address","internalType":"address"},{"name":"topic_0","type":"uint256","internalType":"uint256"},{"name":"topic_1","type":"uint256","internalType":"uint256"},{"name":"topic_2","type":"uint256","internalType":"uint256"},{"name":"topic_3","type":"uint256","internalType":"uint256"},{"name":"data","type":"bytes","internalType":"bytes"},{"name":"block_number","type":"uint256","internalType":"uint256"},{"name":"op_code","type":"uint256","internalType":"uint256"},{"name":"block_hash","type":"uint256","internalType":"uint256"},{"name":"tx_hash","type":"uint256","internalType":"uint256"},{"name":"log_index","type":"uint256","internalType":"uint256"}]}],"outputs":[],"stateMutability":"nonpayable"},{"type":"function","name":"replyToMessage","inputs":[{"name":"replyToMessageId","type":"uint256","internalType":"uint256"},{"name":"content","type":"string","internalType":"string"}],"outputs":[],"stateMutability":"nonpayable"},{"type":"function","name":"updateAvatar","inputs":[{"name":"avatarCode","type":"string","internalType":"string"}],"outputs":[],"stateMutability":"nonpayable"},{"type":"function","name":"updateProfile","inputs":[{"name":"nickname","type":"string","internalType":"string"},{"name":"avatarCode","type":"string","internalType":"string"}],"outputs":[],"stateMutability":"nonpayable"},{"type":"event","name":"Callback","inputs":[{"name":"chain_id","type":"uint256","indexed":true,"internalType":"uint256"},{"name":"_contract","type":"address","indexed":true,"internalType":"address"},{"name":"gas_limit","type":"uint64","indexed":true,"internalType":"uint64"},{"name":"payload","type":"bytes","indexed":false,"internalType":"bytes"}],"anonymous":false},{"type":"event","name":"MessageDeleted","inputs":[{"name":"messageId","type":"uint256","indexed":true,"internalType":"uint256"},{"name":"sender","type":"address","indexed":true,"internalType":"address"}],"anonymous":false},{"type":"event","name":"MessageSent","inputs":[{"name":"messageId","type":"uint256","indexed":true,"internalType":"uint256"},{"name":"sender","type":"address","indexed":true,"internalType":"address"},{"name":"content","type":"string","indexed":false,"internalType":"string"},{"name":"timestamp","type":"uint256","indexed":false,"internalType":"uint256"}],"anonymous":false},{"type":"event","name":"ProfileDeactivated","inputs":[{"name":"user","type":"address","indexed":true,"internalType":"address"}],"anonymous":false},{"type":"event","name":"ProfileUpdated","inputs":[{"name":"user","type":"address","indexed":true,"internalType":"address"},{"name":"nickname","type":"string","indexed":false,"internalType":"string"},{"name":"avatarCode","type":"string","indexed":false,"internalType":"string"}],"anonymous":false},{"type":"event","name":"ReplyMessageSent","inputs":[{"name":"messageId","type":"uint256","indexed":true,"internalType":"uint256"},{"name":"sender","type":"address","indexed":true,"internalType":"address"},{"name":"replyToMessageId","type":"uint256","indexed":true,"internalType":"uint256"},{"name":"timestamp","type":"uint256","indexed":false,"internalType":"uint256"}],"anonymous":false}],"bytecode":{"object":"0x608060405262ffffff600260016101000a81548173ffffffffffffffffffffffffffffffffffffffff021916908373ffffffffffffffffffffffffffffffffffffffff16021790555f806101000a81548173ffffffffffffffffffffffffffffffffffffffff021916908373ffffffffffffffffffffffffffffffffffffffff1602179055506200009962ffffff6200035d60201b60201c565b620000a9620003b460201b60201c565b60036040518060c001604052805f73ffffffffffffffffffffffffffffffffffffffff16815260200160405180602001604052805f815250815260200142815260200160405180602001604052805f81525081526020015f815260200160011515815250908060018154018082558091505060019003905f5260205f2090600602015f909190919091505f820151815f015f6101000a81548173ffffffffffffffffffffffffffffffffffffffff021916908373ffffffffffffffffffffffffffffffffffffffff16021790555060208201518160010190816200018e91906200063e565b50604082015181600201556060820151816003019081620001b091906200063e565b506080820151816004015560a0820151816005015f6101000a81548160ff021916908315150217905550505060045f8081526020019081526020015f2060035f8154811062000204576200020362000722565b5b905f5260205f209060060201908060018154018082558091505060019003905f5260205f2090600602015f909190919091505f82015f9054906101000a900473ffffffffffffffffffffffffffffffffffffffff16815f015f6101000a81548173ffffffffffffffffffffffffffffffffffffffff021916908373ffffffffffffffffffffffffffffffffffffffff16021790555060018201816001019081620002af919062000766565b506002820154816002015560038201816003019081620002d0919062000766565b5060048201548160040155600582015f9054906101000a900460ff16816005015f6101000a81548160ff021916908315150217905550505060055f908060018154018082558091505060019003905f5260205f20015f9091909190915055600160065f8081526020019081526020015f205f6101000a81548160ff02191690831515021790555062000864565b6001805f8373ffffffffffffffffffffffffffffffffffffffff1673ffffffffffffffffffffffffffffffffffffffff1681526020019081526020015f205f6101000a81548160ff02191690831515021790555050565b5f62ffffff3b90505f811460025f6101000a81548160ff02191690831515021790555050565b5f81519050919050565b7f4e487b71000000000000000000000000000000000000000000000000000000005f52604160045260245ffd5b7f4e487b71000000000000000000000000000000000000000000000000000000005f52602260045260245ffd5b5f60028204905060018216806200045657607f821691505b6020821081036200046c576200046b62000411565b5b50919050565b5f819050815f5260205f209050919050565b5f6020601f8301049050919050565b5f82821b905092915050565b5f60088302620004d07fffffffffffffffffffffffffffffffffffffffffffffffffffffffffffffffff8262000493565b620004dc868362000493565b95508019841693508086168417925050509392505050565b5f819050919050565b5f819050919050565b5f62000526620005206200051a84620004f4565b620004fd565b620004f4565b9050919050565b5f819050919050565b620005418362000506565b6200055962000550826200052d565b8484546200049f565b825550505050565b5f90565b6200056f62000561565b6200057c81848462000536565b505050565b5b81811015620005a357620005975f8262000565565b60018101905062000582565b5050565b601f821115620005f257620005bc8162000472565b620005c78462000484565b81016020851015620005d7578190505b620005ef620005e68562000484565b83018262000581565b50505b505050565b5f82821c905092915050565b5f620006145f1984600802620005f7565b1980831691505092915050565b5f6200062e838362000603565b9150826002028217905092915050565b6200064982620003da565b67ffffffffffffffff811115620006655762000664620003e4565b5b6200067182546200043e565b6200067e828285620005a7565b5f60209050601f831160018114620006b4575f84156200069f578287015190505b620006ab858262000621565b8655506200071a565b601f198416620006c48662000472565b5f5b82811015620006ed57848901518255600182019150602085019450602081019050620006c6565b868310156200070d578489015162000709601f89168262000603565b8355505b6001600288020188555050505b505050505050565b7f4e487b71000000000000000000000000000000000000000000000000000000005f52603260045260245ffd5b5f815490506200075f816200043e565b9050919050565b8181036200077657505062000862565b62000781826200074f565b67ffffffffffffffff8111156200079d576200079c620003e4565b5b620007a982546200043e565b620007b6828285620005a7565b5f601f831160018114620007e8575f8415620007d3578287015490505b620007df858262000621565b8655506200085b565b601f198416620007f88762000472565b9650620008058662000472565b5f5b828110156200082e5784890154825560018201915060018501945060208101905062000807565b868310156200084e57848901546200084a601f89168262000603565b8355505b6001600288020188555050505b5050505050505b565b61547680620008725f395ff3fe608060405260043610610117575f3560e01c806376bf69411161009f5780639fe958b9116100635780639fe958b9146103c0578063c290d691146103e8578063c6e4d92314610410578063c9d3cc6a1461044c578063ee72539e146104745761011e565b806376bf6941146102b85780637a90b990146102f45780638382ea901461030a578063987ee156146103465780639e19a1ca146103845761011e565b806331933916116100e657806331933916146101d85780634eca280c146102025780635eb3a5ac1461023e57806364598fda146102665780636630f88f146102905761011e565b80630c5d798d146101225780630d152c2c1461015e57806320a17bca1461018657806331085c5f1461019c5761011e565b3661011e57005b5f80fd5b34801561012d575f80fd5b5061014860048036038101906101439190613ad7565b61049c565b6040516101559190613d4f565b60405180910390f35b348015610169575f80fd5b50610184600480360381019061017f9190613d92565b6109ab565b005b348015610191575f80fd5b5061019a6109fc565b005b3480156101a7575f80fd5b506101c260048036038101906101bd9190613e3a565b610b25565b6040516101cf9190613e94565b60405180910390f35b3480156101e3575f80fd5b506101ec610b6e565b6040516101f99190613ebc565b60405180910390f35b34801561020d575f80fd5b5061022860048036038101906102239190613ed5565b610b7a565b6040516102359190613d4f565b60405180910390f35b348015610249575f80fd5b50610264600480360381019061025f9190613ed5565b610f04565b005b348015610271575f80fd5b5061027a6113b6565b6040516102879190613fa8565b60405180910390f35b34801561029b575f80fd5b506102b660048036038101906102b19190613e3a565b61140c565b005b3480156102c3575f80fd5b506102de60048036038101906102d99190613ed5565b611a34565b6040516102eb9190613d4f565b60405180910390f35b3480156102ff575f80fd5b50610308611dfc565b005b348015610315575f80fd5b50610330600480360381019061032b9190613ed5565b611ec3565b60405161033d9190614055565b60405180910390f35b348015610351575f80fd5b5061036c6004803603810190610367919061409f565b612301565b60405161037b93929190614121565b60405180910390f35b34801561038f575f80fd5b506103aa60048036038101906103a59190613ed5565b6124a5565b6040516103b79190613d4f565b60405180910390f35b3480156103cb575f80fd5b506103e660048036038101906103e19190613e3a565b612864565b005b3480156103f3575f80fd5b5061040e60048036038101906104099190613ed5565b6129d5565b005b34801561041b575f80fd5b506104366004803603810190610431919061409f565b612a6b565b6040516104439190613d4f565b60405180910390f35b348015610457575f80fd5b50610472600480360381019061046d9190614164565b612e5c565b005b34801561047f575f80fd5b5061049a600480360381019061049591906141e2565b6131f9565b005b60605f82116104e0576040517f08c379a00000000000000000000000000000000000000000000000000000000081526004016104d790614289565b60405180910390fd5b6032821115610524576040517f08c379a000000000000000000000000000000000000000000000000000000000815260040161051b906142f1565b60405180910390fd5b5f60038054905090505f838561053a919061433c565b90508181106105a0575f67ffffffffffffffff81111561055d5761055c61437d565b5b60405190808252806020026020018201604052801561059657816020015b610583613a52565b81526020019060019003908161057b5790505b50925050506109a5565b5f8490508285836105b191906143aa565b11156105c65781836105c391906143dd565b90505b5f8167ffffffffffffffff8111156105e1576105e061437d565b5b60405190808252806020026020018201604052801561061a57816020015b610607613a52565b8152602001906001900390816105ff5790505b5090505f8060648561062c919061443d565b90505f60646001868861063f91906143aa565b61064991906143dd565b610653919061443d565b90505f8290505b81811115801561066e575060058054905081105b15610999575f60045f8381526020019081526020015f20805480602002602001604051908101604052809291908181526020015f905b82821015610876578382905f5260205f2090600602016040518060c00160405290815f82015f9054906101000a900473ffffffffffffffffffffffffffffffffffffffff1673ffffffffffffffffffffffffffffffffffffffff1673ffffffffffffffffffffffffffffffffffffffff1681526020016001820180546107299061449a565b80601f01602080910402602001604051908101604052809291908181526020018280546107559061449a565b80156107a05780601f10610777576101008083540402835291602001916107a0565b820191905f5260205f20905b81548152906001019060200180831161078357829003601f168201915b50505050508152602001600282015481526020016003820180546107c39061449a565b80601f01602080910402602001604051908101604052809291908181526020018280546107ef9061449a565b801561083a5780601f106108115761010080835404028352916020019161083a565b820191905f5260205f20905b81548152906001019060200180831161081d57829003601f168201915b5050505050815260200160048201548152602001600582015f9054906101000a900460ff161515151581525050815260200190600101906106a4565b5050505090505f5b8151811015610984575f81606485610896919061433c565b6108a091906143aa565b90508981101580156108bc5750888a6108b991906143aa565b81105b15610958575f8383815181106108d5576108d46144ca565b5b60200260200101516080015114801561090a57508282815181106108fc576108fb6144ca565b5b602002602001015160a00151155b1561095757828281518110610922576109216144ca565b5b602002602001015188888151811061093d5761093c6144ca565b5b60200260200101819052508680610953906144f7565b9750505b5b888a61096491906143aa565b81106109705750610984565b50808061097c906144f7565b91505061087e565b50508080610991906144f7565b91505061065a565b50839750505050505050505b92915050565b60025f9054906101000a900460ff166109f9576040517f08c379a00000000000000000000000000000000000000000000000000000000081526004016109f090614588565b60405180910390fd5b50565b5f600a5f3373ffffffffffffffffffffffffffffffffffffffff1673ffffffffffffffffffffffffffffffffffffffff1681526020019081526020015f205f018054610a479061449a565b905011610a89576040517f08c379a0000000000000000000000000000000000000000000000000000000008152600401610a80906145f0565b60405180910390fd5b5f600a5f3373ffffffffffffffffffffffffffffffffffffffff1673ffffffffffffffffffffffffffffffffffffffff1681526020019081526020015f206002015f6101000a81548160ff0219169083151502179055503373ffffffffffffffffffffffffffffffffffffffff167f54a43e4629a715b7e7723ff4f7400f2b5804224e3c8fcf6c96d0bbb46ae02c9360405160405180910390a2565b5f60098383604051610b3892919061464a565b90815260200160405180910390205f9054906101000a900473ffffffffffffffffffffffffffffffffffffffff16905092915050565b5f600380549050905090565b606060065f8381526020019081526020015f205f9054906101000a900460ff16610bd9576040517f08c379a0000000000000000000000000000000000000000000000000000000008152600401610bd0906146ac565b60405180910390fd5b5f60045f8481526020019081526020015f2090505f805b8280549050811015610c5157828181548110610c0f57610c0e6144ca565b5b905f5260205f2090600602016005015f9054906101000a900460ff16610c3e578180610c3a906144f7565b9250505b8080610c49906144f7565b915050610bf0565b505f8167ffffffffffffffff811115610c6d57610c6c61437d565b5b604051908082528060200260200182016040528015610ca657816020015b610c93613a52565b815260200190600190039081610c8b5790505b5090505f805b8480549050811015610ef757848181548110610ccb57610cca6144ca565b5b905f5260205f2090600602016005015f9054906101000a900460ff16610ee457848181548110610cfe57610cfd6144ca565b5b905f5260205f2090600602016040518060c00160405290815f82015f9054906101000a900473ffffffffffffffffffffffffffffffffffffffff1673ffffffffffffffffffffffffffffffffffffffff1673ffffffffffffffffffffffffffffffffffffffff168152602001600182018054610d799061449a565b80601f0160208091040260200160405190810160405280929190818152602001828054610da59061449a565b8015610df05780601f10610dc757610100808354040283529160200191610df0565b820191905f5260205f20905b815481529060010190602001808311610dd357829003601f168201915b5050505050815260200160028201548152602001600382018054610e139061449a565b80601f0160208091040260200160405190810160405280929190818152602001828054610e3f9061449a565b8015610e8a5780601f10610e6157610100808354040283529160200191610e8a565b820191905f5260205f20905b815481529060010190602001808311610e6d57829003601f168201915b5050505050815260200160048201548152602001600582015f9054906101000a900460ff161515151581525050838381518110610eca57610ec96144ca565b5b60200260200101819052508180610ee0906144f7565b9250505b8080610eef906144f7565b915050610cac565b5081945050505050919050565b6003805490508110610f4b576040517f08c379a0000000000000000000000000000000000000000000000000000000008152600401610f4290614714565b60405180910390fd5b3373ffffffffffffffffffffffffffffffffffffffff1660038281548110610f7657610f756144ca565b5b905f5260205f2090600602015f015f9054906101000a900473ffffffffffffffffffffffffffffffffffffffff1673ffffffffffffffffffffffffffffffffffffffff1614610ffa576040517f08c379a0000000000000000000000000000000000000000000000000000000008152600401610ff19061477c565b60405180910390fd5b6001600382815481106110105761100f6144ca565b5b905f5260205f2090600602016005015f6101000a81548160ff0219169083151502179055505f606482611043919061443d565b905060065f8281526020019081526020015f205f9054906101000a900460ff161561136e575f6003838154811061107d5761107c6144ca565b5b905f5260205f2090600602016040518060c00160405290815f82015f9054906101000a900473ffffffffffffffffffffffffffffffffffffffff1673ffffffffffffffffffffffffffffffffffffffff1673ffffffffffffffffffffffffffffffffffffffff1681526020016001820180546110f89061449a565b80601f01602080910402602001604051908101604052809291908181526020018280546111249061449a565b801561116f5780601f106111465761010080835404028352916020019161116f565b820191905f5260205f20905b81548152906001019060200180831161115257829003601f168201915b50505050508152602001600282015481526020016003820180546111929061449a565b80601f01602080910402602001604051908101604052809291908181526020018280546111be9061449a565b80156112095780601f106111e057610100808354040283529160200191611209565b820191905f5260205f20905b8154815290600101906020018083116111ec57829003601f168201915b5050505050815260200160048201548152602001600582015f9054906101000a900460ff16151515158152505090505f5b60045f8481526020019081526020015f208054905081101561136b575f60045f8581526020019081526020015f20828154811061127a576112796144ca565b5b905f5260205f2090600602019050825f015173ffffffffffffffffffffffffffffffffffffffff16815f015f9054906101000a900473ffffffffffffffffffffffffffffffffffffffff1673ffffffffffffffffffffffffffffffffffffffff161480156112ef575082604001518160020154145b801561131d5750826020015180519060200120816001016040516113139190614836565b6040518091039020145b8015611330575082608001518160040154145b15611357576001816005015f6101000a81548160ff0219169083151502179055505061136b565b508080611363906144f7565b91505061123a565b50505b3373ffffffffffffffffffffffffffffffffffffffff16827ffb2787660bc2cbdfc289209f8fc92a07a17109a8f520025df91f322e51da794760405160405180910390a35050565b6060600580548060200260200160405190810160405280929190818152602001828054801561140257602002820191905f5260205f20905b8154815260200190600101908083116113ee575b5050505050905090565b5f8282905011611451576040517f08c379a000000000000000000000000000000000000000000000000000000000815260040161144890614896565b60405180910390fd5b61030f828290501115611499576040517f08c379a0000000000000000000000000000000000000000000000000000000008152600401611490906148fe565b60405180910390fd5b603c600b5f3373ffffffffffffffffffffffffffffffffffffffff1673ffffffffffffffffffffffffffffffffffffffff1681526020019081526020015f2054426114e491906143dd565b1015611525576040517f08c379a000000000000000000000000000000000000000000000000000000000815260040161151c90614966565b60405180910390fd5b600a5f3373ffffffffffffffffffffffffffffffffffffffff1673ffffffffffffffffffffffffffffffffffffffff1681526020019081526020015f206002015f9054906101000a900460ff166115b1576040517f08c379a00000000000000000000000000000000000000000000000000000000081526004016115a8906149ce565b60405180910390fd5b5f60038054905090505f6064826115c8919061443d565b90505f6040518060c001604052803373ffffffffffffffffffffffffffffffffffffffff16815260200186868080601f0160208091040260200160405190810160405280939291908181526020018383808284375f81840152601f19601f820116905080830192505050505050508152602001428152602001600a5f3373ffffffffffffffffffffffffffffffffffffffff1673ffffffffffffffffffffffffffffffffffffffff1681526020019081526020015f205f01805461168b9061449a565b80601f01602080910402602001604051908101604052809291908181526020018280546116b79061449a565b80156117025780601f106116d957610100808354040283529160200191611702565b820191905f5260205f20905b8154815290600101906020018083116116e557829003601f168201915b505050505081526020015f81526020015f15158152509050600381908060018154018082558091505060019003905f5260205f2090600602015f909190919091505f820151815f015f6101000a81548173ffffffffffffffffffffffffffffffffffffffff021916908373ffffffffffffffffffffffffffffffffffffffff160217905550602082015181600101908161179c9190614b89565b506040820151816002015560608201518160030190816117bc9190614b89565b506080820151816004015560a0820151816005015f6101000a81548160ff021916908315150217905550505060065f8381526020019081526020015f205f9054906101000a900460ff1661185a57600582908060018154018082558091505060019003905f5260205f20015f9091909190915055600160065f8481526020019081526020015f205f6101000a81548160ff0219169083151502179055505b60045f8381526020019081526020015f2081908060018154018082558091505060019003905f5260205f2090600602015f909190919091505f820151815f015f6101000a81548173ffffffffffffffffffffffffffffffffffffffff021916908373ffffffffffffffffffffffffffffffffffffffff16021790555060208201518160010190816118eb9190614b89565b5060408201518160020155606082015181600301908161190b9190614b89565b506080820151816004015560a0820151816005015f6101000a81548160ff021916908315150217905550505060075f3373ffffffffffffffffffffffffffffffffffffffff1673ffffffffffffffffffffffffffffffffffffffff1681526020019081526020015f2083908060018154018082558091505060019003905f5260205f20015f909190919091505542600b5f3373ffffffffffffffffffffffffffffffffffffffff1673ffffffffffffffffffffffffffffffffffffffff1681526020019081526020015f20819055503373ffffffffffffffffffffffffffffffffffffffff16837f1f8960ec3ee7087d0552bc042c456f22e713898e21204c04f5885b3942bb0790878742604051611a2593929190614c84565b60405180910390a35050505050565b60606003805490508210611a7d576040517f08c379a0000000000000000000000000000000000000000000000000000000008152600401611a7490614714565b60405180910390fd5b5f60085f8481526020019081526020015f2090505f805b8280549050811015611b11576003838281548110611ab557611ab46144ca565b5b905f5260205f20015481548110611acf57611ace6144ca565b5b905f5260205f2090600602016005015f9054906101000a900460ff16611afe578180611afa906144f7565b9250505b8080611b09906144f7565b915050611a94565b505f8167ffffffffffffffff811115611b2d57611b2c61437d565b5b604051908082528060200260200182016040528015611b6657816020015b611b53613a52565b815260200190600190039081611b4b5790505b5090505f805b8480549050811015611def576003858281548110611b8d57611b8c6144ca565b5b905f5260205f20015481548110611ba757611ba66144ca565b5b905f5260205f2090600602016005015f9054906101000a900460ff16611ddc576003858281548110611bdc57611bdb6144ca565b5b905f5260205f20015481548110611bf657611bf56144ca565b5b905f5260205f2090600602016040518060c00160405290815f82015f9054906101000a900473ffffffffffffffffffffffffffffffffffffffff1673ffffffffffffffffffffffffffffffffffffffff1673ffffffffffffffffffffffffffffffffffffffff168152602001600182018054611c719061449a565b80601f0160208091040260200160405190810160405280929190818152602001828054611c9d9061449a565b8015611ce85780601f10611cbf57610100808354040283529160200191611ce8565b820191905f5260205f20905b815481529060010190602001808311611ccb57829003601f168201915b5050505050815260200160028201548152602001600382018054611d0b9061449a565b80601f0160208091040260200160405190810160405280929190818152602001828054611d379061449a565b8015611d825780601f10611d5957610100808354040283529160200191611d82565b820191905f5260205f20905b815481529060010190602001808311611d6557829003601f168201915b5050505050815260200160048201548152602001600582015f9054906101000a900460ff161515151581525050838381518110611dc257611dc16144ca565b5b60200260200101819052508180611dd8906144f7565b9250505b8080611de7906144f7565b915050611b6c565b5081945050505050919050565b5f805f9054906101000a900473ffffffffffffffffffffffffffffffffffffffff1673ffffffffffffffffffffffffffffffffffffffff16639b6c56ec306040518263ffffffff1660e01b8152600401611e569190613e94565b602060405180830381865afa158015611e71573d5f803e3d5ffd5b505050506040513d601f19601f82011682018060405250810190611e959190614cc8565b9050611ec05f8054906101000a900473ffffffffffffffffffffffffffffffffffffffff168261390b565b50565b611ecb613a52565b6003805490508210611f12576040517f08c379a0000000000000000000000000000000000000000000000000000000008152600401611f0990614714565b60405180910390fd5b5f60038381548110611f2757611f266144ca565b5b905f5260205f2090600602016040518060c00160405290815f82015f9054906101000a900473ffffffffffffffffffffffffffffffffffffffff1673ffffffffffffffffffffffffffffffffffffffff1673ffffffffffffffffffffffffffffffffffffffff168152602001600182018054611fa29061449a565b80601f0160208091040260200160405190810160405280929190818152602001828054611fce9061449a565b80156120195780601f10611ff057610100808354040283529160200191612019565b820191905f5260205f20905b815481529060010190602001808311611ffc57829003601f168201915b505050505081526020016002820154815260200160038201805461203c9061449a565b80601f01602080910402602001604051908101604052809291908181526020018280546120689061449a565b80156120b35780601f1061208a576101008083540402835291602001916120b3565b820191905f5260205f20905b81548152906001019060200180831161209657829003601f168201915b5050505050815260200160048201548152602001600582015f9054906101000a900460ff16151515158152505090505f816080015111612128576040517f08c379a000000000000000000000000000000000000000000000000000000000815260040161211f90614d3d565b60405180910390fd5b60038160800151815481106121405761213f6144ca565b5b905f5260205f2090600602016040518060c00160405290815f82015f9054906101000a900473ffffffffffffffffffffffffffffffffffffffff1673ffffffffffffffffffffffffffffffffffffffff1673ffffffffffffffffffffffffffffffffffffffff1681526020016001820180546121bb9061449a565b80601f01602080910402602001604051908101604052809291908181526020018280546121e79061449a565b80156122325780601f1061220957610100808354040283529160200191612232565b820191905f5260205f20905b81548152906001019060200180831161221557829003601f168201915b50505050508152602001600282015481526020016003820180546122559061449a565b80601f01602080910402602001604051908101604052809291908181526020018280546122819061449a565b80156122cc5780601f106122a3576101008083540402835291602001916122cc565b820191905f5260205f20905b8154815290600101906020018083116122af57829003601f168201915b5050505050815260200160048201548152602001600582015f9054906101000a900460ff161515151581525050915050919050565b6060805f80600a5f8673ffffffffffffffffffffffffffffffffffffffff1673ffffffffffffffffffffffffffffffffffffffff1681526020019081526020015f206040518060600160405290815f8201805461235d9061449a565b80601f01602080910402602001604051908101604052809291908181526020018280546123899061449a565b80156123d45780601f106123ab576101008083540402835291602001916123d4565b820191905f5260205f20905b8154815290600101906020018083116123b757829003601f168201915b505050505081526020016001820180546123ed9061449a565b80601f01602080910402602001604051908101604052809291908181526020018280546124199061449a565b80156124645780601f1061243b57610100808354040283529160200191612464565b820191905f5260205f20905b81548152906001019060200180831161244757829003601f168201915b50505050508152602001600282015f9054906101000a900460ff1615151515815250509050805f015181602001518260400151935093509350509193909250565b606060328211156124eb576040517f08c379a00000000000000000000000000000000000000000000000000000000081526004016124e290614da5565b60405180910390fd5b5f805b600380549050811015612581575f600382815481106125105761250f6144ca565b5b905f5260205f2090600602016004015414801561255a57506003818154811061253c5761253b6144ca565b5b905f5260205f2090600602016005015f9054906101000a900460ff16155b1561256e57818061256a906144f7565b9250505b8080612579906144f7565b9150506124ee565b505f83905083821015612592578190505b5f8167ffffffffffffffff8111156125ad576125ac61437d565b5b6040519080825280602002602001820160405280156125e657816020015b6125d3613a52565b8152602001906001900390816125cb5790505b5090505f82036125fb5780935050505061285f565b5f8060038054905090505b5f8111801561261457508382105b15612856575f60018261262791906143dd565b90505f6003828154811061263e5761263d6144ca565b5b905f5260205f2090600602016040518060c00160405290815f82015f9054906101000a900473ffffffffffffffffffffffffffffffffffffffff1673ffffffffffffffffffffffffffffffffffffffff1673ffffffffffffffffffffffffffffffffffffffff1681526020016001820180546126b99061449a565b80601f01602080910402602001604051908101604052809291908181526020018280546126e59061449a565b80156127305780601f1061270757610100808354040283529160200191612730565b820191905f5260205f20905b81548152906001019060200180831161271357829003601f168201915b50505050508152602001600282015481526020016003820180546127539061449a565b80601f016020809104026020016040519081016040528092919081815260200182805461277f9061449a565b80156127ca5780601f106127a1576101008083540402835291602001916127ca565b820191905f5260205f20905b8154815290600101906020018083116127ad57829003601f168201915b5050505050815260200160048201548152602001600582015f9054906101000a900460ff16151515158152505090505f816080015114801561280e57508060a00151155b156128415780858581518110612827576128266144ca565b5b6020026020010181905250838061283d906144f7565b9450505b5050808061284e90614dc3565b915050612606565b50819450505050505b919050565b5f600a5f3373ffffffffffffffffffffffffffffffffffffffff1673ffffffffffffffffffffffffffffffffffffffff1681526020019081526020015f205f0180546128af9061449a565b9050116128f1576040517f08c379a00000000000000000000000000000000000000000000000000000000081526004016128e890614e34565b60405180910390fd5b8181600a5f3373ffffffffffffffffffffffffffffffffffffffff1673ffffffffffffffffffffffffffffffffffffffff1681526020019081526020015f206001019182612940929190614e5c565b503373ffffffffffffffffffffffffffffffffffffffff167f6eb3a1c6a4675ba92d44e090515b1ceea358f26565d2854df0c99c3f5eaf9850600a5f3373ffffffffffffffffffffffffffffffffffffffff1673ffffffffffffffffffffffffffffffffffffffff1681526020019081526020015f205f0184846040516129c993929190614faa565b60405180910390a25050565b60015f3373ffffffffffffffffffffffffffffffffffffffff1673ffffffffffffffffffffffffffffffffffffffff1681526020019081526020015f205f9054906101000a900460ff16612a5e576040517f08c379a0000000000000000000000000000000000000000000000000000000008152600401612a559061502b565b60405180910390fd5b612a68338261390b565b50565b60605f60075f8473ffffffffffffffffffffffffffffffffffffffff1673ffffffffffffffffffffffffffffffffffffffff1681526020019081526020015f20805480602002602001604051908101604052809291908181526020018280548015612af357602002820191905f5260205f20905b815481526020019060010190808311612adf575b505050505090505f805b8251811015612b76576003838281518110612b1b57612b1a6144ca565b5b602002602001015181548110612b3457612b336144ca565b5b905f5260205f2090600602016005015f9054906101000a900460ff16612b63578180612b5f906144f7565b9250505b8080612b6e906144f7565b915050612afd565b505f8167ffffffffffffffff811115612b9257612b9161437d565b5b604051908082528060200260200182016040528015612bcb57816020015b612bb8613a52565b815260200190600190039081612bb05790505b5090505f805b8451811015612e4f576003858281518110612bef57612bee6144ca565b5b602002602001015181548110612c0857612c076144ca565b5b905f5260205f2090600602016005015f9054906101000a900460ff16612e3c576003858281518110612c3d57612c3c6144ca565b5b602002602001015181548110612c5657612c556144ca565b5b905f5260205f2090600602016040518060c00160405290815f82015f9054906101000a900473ffffffffffffffffffffffffffffffffffffffff1673ffffffffffffffffffffffffffffffffffffffff1673ffffffffffffffffffffffffffffffffffffffff168152602001600182018054612cd19061449a565b80601f0160208091040260200160405190810160405280929190818152602001828054612cfd9061449a565b8015612d485780601f10612d1f57610100808354040283529160200191612d48565b820191905f5260205f20905b815481529060010190602001808311612d2b57829003601f168201915b5050505050815260200160028201548152602001600382018054612d6b9061449a565b80601f0160208091040260200160405190810160405280929190818152602001828054612d979061449a565b8015612de25780601f10612db957610100808354040283529160200191612de2565b820191905f5260205f20905b815481529060010190602001808311612dc557829003601f168201915b5050505050815260200160048201548152602001600582015f9054906101000a900460ff161515151581525050838381518110612e2257612e216144ca565b5b60200260200101819052508180612e38906144f7565b9250505b8080612e47906144f7565b915050612bd1565b5081945050505050919050565b5f8484905011612ea1576040517f08c379a0000000000000000000000000000000000000000000000000000000008152600401612e9890615093565b60405180910390fd5b6020848490501115612ee8576040517f08c379a0000000000000000000000000000000000000000000000000000000008152600401612edf906150fb565b60405180910390fd5b5f60098585604051612efb92919061464a565b90815260200160405180910390205f9054906101000a900473ffffffffffffffffffffffffffffffffffffffff1690505f73ffffffffffffffffffffffffffffffffffffffff168173ffffffffffffffffffffffffffffffffffffffff1614158015612f9357503373ffffffffffffffffffffffffffffffffffffffff168173ffffffffffffffffffffffffffffffffffffffff1614155b15612fd3576040517f08c379a0000000000000000000000000000000000000000000000000000000008152600401612fca90615163565b60405180910390fd5b5f600a5f3373ffffffffffffffffffffffffffffffffffffffff1673ffffffffffffffffffffffffffffffffffffffff1681526020019081526020015f2090505f815f0180546130229061449a565b905011156130fc573373ffffffffffffffffffffffffffffffffffffffff166009825f016040516130539190615201565b90815260200160405180910390205f9054906101000a900473ffffffffffffffffffffffffffffffffffffffff1673ffffffffffffffffffffffffffffffffffffffff16036130fb575f6009825f016040516130af9190615201565b90815260200160405180910390205f6101000a81548173ffffffffffffffffffffffffffffffffffffffff021916908373ffffffffffffffffffffffffffffffffffffffff1602179055505b5b8585825f01918261310e929190614e5c565b508383826001019182613122929190614e5c565b506001816002015f6101000a81548160ff021916908315150217905550336009878760405161315292919061464a565b90815260200160405180910390205f6101000a81548173ffffffffffffffffffffffffffffffffffffffff021916908373ffffffffffffffffffffffffffffffffffffffff1602179055503373ffffffffffffffffffffffffffffffffffffffff167f6eb3a1c6a4675ba92d44e090515b1ceea358f26565d2854df0c99c3f5eaf9850878787876040516131e99493929190615217565b60405180910390a2505050505050565b6003805490508310613240576040517f08c379a00000000000000000000000000000000000000000000000000000000081526004016132379061529a565b60405180910390fd5b60038381548110613254576132536144ca565b5b905f5260205f2090600602016005015f9054906101000a900460ff16156132b0576040517f08c379a00000000000000000000000000000000000000000000000000000000081526004016132a790615302565b60405180910390fd5b5f82829050116132f5576040517f08c379a00000000000000000000000000000000000000000000000000000000081526004016132ec90614896565b60405180910390fd5b61030f82829050111561333d576040517f08c379a0000000000000000000000000000000000000000000000000000000008152600401613334906148fe565b60405180910390fd5b603c600b5f3373ffffffffffffffffffffffffffffffffffffffff1673ffffffffffffffffffffffffffffffffffffffff1681526020019081526020015f20544261338891906143dd565b10156133c9576040517f08c379a00000000000000000000000000000000000000000000000000000000081526004016133c090614966565b60405180910390fd5b600a5f3373ffffffffffffffffffffffffffffffffffffffff1673ffffffffffffffffffffffffffffffffffffffff1681526020019081526020015f206002015f9054906101000a900460ff16613455576040517f08c379a000000000000000000000000000000000000000000000000000000000815260040161344c906149ce565b60405180910390fd5b5f60038054905090505f60648261346c919061443d565b90505f6040518060c001604052803373ffffffffffffffffffffffffffffffffffffffff16815260200186868080601f0160208091040260200160405190810160405280939291908181526020018383808284375f81840152601f19601f820116905080830192505050505050508152602001428152602001600a5f3373ffffffffffffffffffffffffffffffffffffffff1673ffffffffffffffffffffffffffffffffffffffff1681526020019081526020015f205f01805461352f9061449a565b80601f016020809104026020016040519081016040528092919081815260200182805461355b9061449a565b80156135a65780601f1061357d576101008083540402835291602001916135a6565b820191905f5260205f20905b81548152906001019060200180831161358957829003601f168201915b505050505081526020018781526020015f15158152509050600381908060018154018082558091505060019003905f5260205f2090600602015f909190919091505f820151815f015f6101000a81548173ffffffffffffffffffffffffffffffffffffffff021916908373ffffffffffffffffffffffffffffffffffffffff16021790555060208201518160010190816136409190614b89565b506040820151816002015560608201518160030190816136609190614b89565b506080820151816004015560a0820151816005015f6101000a81548160ff021916908315150217905550505060065f8381526020019081526020015f205f9054906101000a900460ff166136fe57600582908060018154018082558091505060019003905f5260205f20015f9091909190915055600160065f8481526020019081526020015f205f6101000a81548160ff0219169083151502179055505b60045f8381526020019081526020015f2081908060018154018082558091505060019003905f5260205f2090600602015f909190919091505f820151815f015f6101000a81548173ffffffffffffffffffffffffffffffffffffffff021916908373ffffffffffffffffffffffffffffffffffffffff160217905550602082015181600101908161378f9190614b89565b506040820151816002015560608201518160030190816137af9190614b89565b506080820151816004015560a0820151816005015f6101000a81548160ff021916908315150217905550505060075f3373ffffffffffffffffffffffffffffffffffffffff1673ffffffffffffffffffffffffffffffffffffffff1681526020019081526020015f2083908060018154018082558091505060019003905f5260205f20015f909190919091505560085f8781526020019081526020015f2083908060018154018082558091505060019003905f5260205f20015f909190919091505542600b5f3373ffffffffffffffffffffffffffffffffffffffff1673ffffffffffffffffffffffffffffffffffffffff1681526020019081526020015f2081905550853373ffffffffffffffffffffffffffffffffffffffff16847f05c02fa0393bcb04a7ac9e303244d6f8940cbc648ac841bfd0fb31fd94965c14426040516138fb9190613ebc565b60405180910390a4505050505050565b8047101561394e576040517f08c379a00000000000000000000000000000000000000000000000000000000081526004016139459061536a565b60405180910390fd5b5f811115613a4e575f8273ffffffffffffffffffffffffffffffffffffffff16825f67ffffffffffffffff8111156139895761398861437d565b5b6040519080825280601f01601f1916602001820160405280156139bb5781602001600182028036833780820191505090505b506040516139c991906153c2565b5f6040518083038185875af1925050503d805f8114613a03576040519150601f19603f3d011682016040523d82523d5f602084013e613a08565b606091505b5050905080613a4c576040517f08c379a0000000000000000000000000000000000000000000000000000000008152600401613a4390615422565b60405180910390fd5b505b5050565b6040518060c001604052805f73ffffffffffffffffffffffffffffffffffffffff168152602001606081526020015f8152602001606081526020015f81526020015f151581525090565b5f80fd5b5f80fd5b5f819050919050565b613ab681613aa4565b8114613ac0575f80fd5b50565b5f81359050613ad181613aad565b92915050565b5f8060408385031215613aed57613aec613a9c565b5b5f613afa85828601613ac3565b9250506020613b0b85828601613ac3565b9150509250929050565b5f81519050919050565b5f82825260208201905092915050565b5f819050602082019050919050565b5f73ffffffffffffffffffffffffffffffffffffffff82169050919050565b5f613b6782613b3e565b9050919050565b613b7781613b5d565b82525050565b5f81519050919050565b5f82825260208201905092915050565b5f5b83811015613bb4578082015181840152602081019050613b99565b5f8484015250505050565b5f601f19601f8301169050919050565b5f613bd982613b7d565b613be38185613b87565b9350613bf3818560208601613b97565b613bfc81613bbf565b840191505092915050565b613c1081613aa4565b82525050565b5f8115159050919050565b613c2a81613c16565b82525050565b5f60c083015f830151613c455f860182613b6e565b5060208301518482036020860152613c5d8282613bcf565b9150506040830151613c726040860182613c07565b5060608301518482036060860152613c8a8282613bcf565b9150506080830151613c9f6080860182613c07565b5060a0830151613cb260a0860182613c21565b508091505092915050565b5f613cc88383613c30565b905092915050565b5f602082019050919050565b5f613ce682613b15565b613cf08185613b1f565b935083602082028501613d0285613b2f565b805f5b85811015613d3d5784840389528151613d1e8582613cbd565b9450613d2983613cd0565b925060208a01995050600181019050613d05565b50829750879550505050505092915050565b5f6020820190508181035f830152613d678184613cdc565b905092915050565b5f80fd5b5f6101808284031215613d8957613d88613d6f565b5b81905092915050565b5f60208284031215613da757613da6613a9c565b5b5f82013567ffffffffffffffff811115613dc457613dc3613aa0565b5b613dd084828501613d73565b91505092915050565b5f80fd5b5f80fd5b5f80fd5b5f8083601f840112613dfa57613df9613dd9565b5b8235905067ffffffffffffffff811115613e1757613e16613ddd565b5b602083019150836001820283011115613e3357613e32613de1565b5b9250929050565b5f8060208385031215613e5057613e4f613a9c565b5b5f83013567ffffffffffffffff811115613e6d57613e6c613aa0565b5b613e7985828601613de5565b92509250509250929050565b613e8e81613b5d565b82525050565b5f602082019050613ea75f830184613e85565b92915050565b613eb681613aa4565b82525050565b5f602082019050613ecf5f830184613ead565b92915050565b5f60208284031215613eea57613ee9613a9c565b5b5f613ef784828501613ac3565b91505092915050565b5f81519050919050565b5f82825260208201905092915050565b5f819050602082019050919050565b5f613f348383613c07565b60208301905092915050565b5f602082019050919050565b5f613f5682613f00565b613f608185613f0a565b9350613f6b83613f1a565b805f5b83811015613f9b578151613f828882613f29565b9750613f8d83613f40565b925050600181019050613f6e565b5085935050505092915050565b5f6020820190508181035f830152613fc08184613f4c565b905092915050565b5f60c083015f830151613fdd5f860182613b6e565b5060208301518482036020860152613ff58282613bcf565b915050604083015161400a6040860182613c07565b50606083015184820360608601526140228282613bcf565b91505060808301516140376080860182613c07565b5060a083015161404a60a0860182613c21565b508091505092915050565b5f6020820190508181035f83015261406d8184613fc8565b905092915050565b61407e81613b5d565b8114614088575f80fd5b50565b5f8135905061409981614075565b92915050565b5f602082840312156140b4576140b3613a9c565b5b5f6140c18482850161408b565b91505092915050565b5f82825260208201905092915050565b5f6140e482613b7d565b6140ee81856140ca565b93506140fe818560208601613b97565b61410781613bbf565b840191505092915050565b61411b81613c16565b82525050565b5f6060820190508181035f83015261413981866140da565b9050818103602083015261414d81856140da565b905061415c6040830184614112565b949350505050565b5f805f806040858703121561417c5761417b613a9c565b5b5f85013567ffffffffffffffff81111561419957614198613aa0565b5b6141a587828801613de5565b9450945050602085013567ffffffffffffffff8111156141c8576141c7613aa0565b5b6141d487828801613de5565b925092505092959194509250565b5f805f604084860312156141f9576141f8613a9c565b5b5f61420686828701613ac3565b935050602084013567ffffffffffffffff81111561422757614226613aa0565b5b61423386828701613de5565b92509250509250925092565b7f506167652073697a65206d7573742062652067726561746572207468616e20305f82015250565b5f6142736020836140ca565b915061427e8261423f565b602082019050919050565b5f6020820190508181035f8301526142a081614267565b9050919050565b7f506167652073697a6520746f6f206c61726765000000000000000000000000005f82015250565b5f6142db6013836140ca565b91506142e6826142a7565b602082019050919050565b5f6020820190508181035f830152614308816142cf565b9050919050565b7f4e487b71000000000000000000000000000000000000000000000000000000005f52601160045260245ffd5b5f61434682613aa4565b915061435183613aa4565b925082820261435f81613aa4565b915082820484148315176143765761437561430f565b5b5092915050565b7f4e487b71000000000000000000000000000000000000000000000000000000005f52604160045260245ffd5b5f6143b482613aa4565b91506143bf83613aa4565b92508282019050808211156143d7576143d661430f565b5b92915050565b5f6143e782613aa4565b91506143f283613aa4565b925082820390508181111561440a5761440961430f565b5b92915050565b7f4e487b71000000000000000000000000000000000000000000000000000000005f52601260045260245ffd5b5f61444782613aa4565b915061445283613aa4565b92508261446257614461614410565b5b828204905092915050565b7f4e487b71000000000000000000000000000000000000000000000000000000005f52602260045260245ffd5b5f60028204905060018216806144b157607f821691505b6020821081036144c4576144c361446d565b5b50919050565b7f4e487b71000000000000000000000000000000000000000000000000000000005f52603260045260245ffd5b5f61450182613aa4565b91507fffffffffffffffffffffffffffffffffffffffffffffffffffffffffffffffff82036145335761453261430f565b5b600182019050919050565b7f564d206f6e6c79000000000000000000000000000000000000000000000000005f82015250565b5f6145726007836140ca565b915061457d8261453e565b602082019050919050565b5f6020820190508181035f83015261459f81614566565b9050919050565b7f50726f66696c65206e6f7420666f756e640000000000000000000000000000005f82015250565b5f6145da6011836140ca565b91506145e5826145a6565b602082019050919050565b5f6020820190508181035f830152614607816145ce565b9050919050565b5f81905092915050565b828183375f83830152505050565b5f614631838561460e565b935061463e838584614618565b82840190509392505050565b5f614656828486614626565b91508190509392505050565b7f506572696f6420646f6573206e6f7420657869737400000000000000000000005f82015250565b5f6146966015836140ca565b91506146a182614662565b602082019050919050565b5f6020820190508181035f8301526146c38161468a565b9050919050565b7f4d65737361676520646f6573206e6f74206578697374000000000000000000005f82015250565b5f6146fe6016836140ca565b9150614709826146ca565b602082019050919050565b5f6020820190508181035f83015261472b816146f2565b9050919050565b7f4e6f7420796f7572206d657373616765000000000000000000000000000000005f82015250565b5f6147666010836140ca565b915061477182614732565b602082019050919050565b5f6020820190508181035f8301526147938161475a565b9050919050565b5f81905092915050565b5f819050815f5260205f209050919050565b5f81546147c28161449a565b6147cc818661479a565b9450600182165f81146147e657600181146147fb5761482d565b60ff198316865281151582028601935061482d565b614804856147a4565b5f5b8381101561482557815481890152600182019150602081019050614806565b838801955050505b50505092915050565b5f61484182846147b6565b915081905092915050565b7f4d6573736167652063616e6e6f7420626520656d7074790000000000000000005f82015250565b5f6148806017836140ca565b915061488b8261484c565b602082019050919050565b5f6020820190508181035f8301526148ad81614874565b9050919050565b7f4d65737361676520746f6f206c6f6e67000000000000000000000000000000005f82015250565b5f6148e86010836140ca565b91506148f3826148b4565b602082019050919050565b5f6020820190508181035f830152614915816148dc565b9050919050565b7f506c656173652077616974206265666f726520706f7374696e6720616761696e5f82015250565b5f6149506020836140ca565b915061495b8261491c565b602082019050919050565b5f6020820190508181035f83015261497d81614944565b9050919050565b7f50726f66696c65206973206465616374697661746564000000000000000000005f82015250565b5f6149b86016836140ca565b91506149c382614984565b602082019050919050565b5f6020820190508181035f8301526149e5816149ac565b9050919050565b5f819050815f5260205f209050919050565b5f6020601f8301049050919050565b5f82821b905092915050565b5f60088302614a487fffffffffffffffffffffffffffffffffffffffffffffffffffffffffffffffff82614a0d565b614a528683614a0d565b95508019841693508086168417925050509392505050565b5f819050919050565b5f614a8d614a88614a8384613aa4565b614a6a565b613aa4565b9050919050565b5f819050919050565b614aa683614a73565b614aba614ab282614a94565b848454614a19565b825550505050565b5f90565b614ace614ac2565b614ad9818484614a9d565b505050565b5b81811015614afc57614af15f82614ac6565b600181019050614adf565b5050565b601f821115614b4157614b12816149ec565b614b1b846149fe565b81016020851015614b2a578190505b614b3e614b36856149fe565b830182614ade565b50505b505050565b5f82821c905092915050565b5f614b615f1984600802614b46565b1980831691505092915050565b5f614b798383614b52565b9150826002028217905092915050565b614b9282613b7d565b67ffffffffffffffff811115614bab57614baa61437d565b5b614bb5825461449a565b614bc0828285614b00565b5f60209050601f831160018114614bf1575f8415614bdf578287015190505b614be98582614b6e565b865550614c50565b601f198416614bff866149ec565b5f5b82811015614c2657848901518255600182019150602085019450602081019050614c01565b86831015614c435784890151614c3f601f891682614b52565b8355505b6001600288020188555050505b505050505050565b5f614c6383856140ca565b9350614c70838584614618565b614c7983613bbf565b840190509392505050565b5f6040820190508181035f830152614c9d818587614c58565b9050614cac6020830184613ead565b949350505050565b5f81519050614cc281613aad565b92915050565b5f60208284031215614cdd57614cdc613a9c565b5b5f614cea84828501614cb4565b91505092915050565b7f4e6f742061207265706c79206d657373616765000000000000000000000000005f82015250565b5f614d276013836140ca565b9150614d3282614cf3565b602082019050919050565b5f6020820190508181035f830152614d5481614d1b565b9050919050565b7f546f6f206d616e79206d657373616765732072657175657374656400000000005f82015250565b5f614d8f601b836140ca565b9150614d9a82614d5b565b602082019050919050565b5f6020820190508181035f830152614dbc81614d83565b9050919050565b5f614dcd82613aa4565b91505f8203614ddf57614dde61430f565b5b600182039050919050565b7f536574206e69636b6e616d6520666972737400000000000000000000000000005f82015250565b5f614e1e6012836140ca565b9150614e2982614dea565b602082019050919050565b5f6020820190508181035f830152614e4b81614e12565b9050919050565b5f82905092915050565b614e668383614e52565b67ffffffffffffffff811115614e7f57614e7e61437d565b5b614e89825461449a565b614e94828285614b00565b5f601f831160018114614ec1575f8415614eaf578287013590505b614eb98582614b6e565b865550614f20565b601f198416614ecf866149ec565b5f5b82811015614ef657848901358255600182019150602085019450602081019050614ed1565b86831015614f135784890135614f0f601f891682614b52565b8355505b6001600288020188555050505b50505050505050565b5f8154614f358161449a565b614f3f81866140ca565b9450600182165f8114614f595760018114614f6f57614fa1565b60ff198316865281151560200286019350614fa1565b614f78856149ec565b5f5b83811015614f9957815481890152600182019150602081019050614f7a565b808801955050505b50505092915050565b5f6040820190508181035f830152614fc28186614f29565b90508181036020830152614fd7818486614c58565b9050949350505050565b7f417574686f72697a65642073656e646572206f6e6c79000000000000000000005f82015250565b5f6150156016836140ca565b915061502082614fe1565b602082019050919050565b5f6020820190508181035f83015261504281615009565b9050919050565b7f4e69636b6e616d652063616e6e6f7420626520656d70747900000000000000005f82015250565b5f61507d6018836140ca565b915061508882615049565b602082019050919050565b5f6020820190508181035f8301526150aa81615071565b9050919050565b7f4e69636b6e616d6520746f6f206c6f6e670000000000000000000000000000005f82015250565b5f6150e56011836140ca565b91506150f0826150b1565b602082019050919050565b5f6020820190508181035f830152615112816150d9565b9050919050565b7f4e69636b6e616d6520616c72656164792074616b656e000000000000000000005f82015250565b5f61514d6016836140ca565b915061515882615119565b602082019050919050565b5f6020820190508181035f83015261517a81615141565b9050919050565b5f815461518d8161449a565b615197818661460e565b9450600182165f81146151b157600181146151c6576151f8565b60ff19831686528115158202860193506151f8565b6151cf856149ec565b5f5b838110156151f0578154818901526001820191506020810190506151d1565b838801955050505b50505092915050565b5f61520c8284615181565b915081905092915050565b5f6040820190508181035f830152615230818688614c58565b90508181036020830152615245818486614c58565b905095945050505050565b7f4f726967696e616c206d65737361676520646f6573206e6f74206578697374005f82015250565b5f615284601f836140ca565b915061528f82615250565b602082019050919050565b5f6020820190508181035f8301526152b181615278565b9050919050565b7f43616e6e6f74207265706c7920746f2064656c65746564206d657373616765005f82015250565b5f6152ec601f836140ca565b91506152f7826152b8565b602082019050919050565b5f6020820190508181035f830152615319816152e0565b9050919050565b7f496e73756666696369656e742066756e647300000000000000000000000000005f82015250565b5f6153546012836140ca565b915061535f82615320565b602082019050919050565b5f6020820190508181035f83015261538181615348565b9050919050565b5f81519050919050565b5f61539c82615388565b6153a6818561479a565b93506153b6818560208601613b97565b80840191505092915050565b5f6153cd8284615392565b915081905092915050565b7f5472616e73666572206661696c656400000000000000000000000000000000005f82015250565b5f61540c600f836140ca565b9150615417826153d8565b602082019050919050565b5f6020820190508181035f83015261543981615400565b905091905056fea2646970667358221220b83702d28a59e25cd0c7eeaa4c42da4a0c7363d78bfdb176ad786428daff03de64736f6c63430008140033","linkReferences":{}},"methodIdentifiers":{"coverDebt()":"7a90b990","deactivateProfile()":"20a17bca","getAddressByNickname(string)":"31085c5f","getAvailablePeriods()":"64598fda","getLatestMessages(uint256)":"9e19a1ca","getMessageCount()":"31933916","getMessagesByPeriod(uint256)":"4eca280c","getMessagesBySender(address)":"c6e4d923","getMessagesWithPagination(uint256,uint256)":"0c5d798d","getOriginalMessage(uint256)":"8382ea90","getRepliesForMessage(uint256)":"76bf6941","getUserProfile(address)":"987ee156","markMessageAsDeleted(uint256)":"5eb3a5ac","pay(uint256)":"c290d691","postMessage(string)":"6630f88f","react((uint256,address,uint256,uint256,uint256,uint256,bytes,uint256,uint256,uint256,uint256,uint256))":"0d152c2c","replyToMessage(uint256,string)":"ee72539e","updateAvatar(string)":"9fe958b9","updateProfile(string,string)":"c9d3cc6a"},"id":31}