{"abi":[{"type":"constructor","inputs":[],"stateMutability":"payable"},{"type":"function","name":"deactivateProfile","inputs":[],"outputs":[],"stateMutability":"nonpayable"},{"type":"function","name":"getAddressByNickname","inputs":[{"name":"nickname","type":"string","internalType":"string"}],"outputs":[{"name":"","type":"address","internalType":"address"}],"stateMutability":"view"},{"type":"function","name":"getAvailablePeriods","inputs":[],"outputs":[{"name":"","type":"uint256[]","internalType":"uint256[]"}],"stateMutability":"view"},{"type":"function","name":"getLatestMessages","inputs":[{"name":"count","type":"uint256","internalType":"uint256"}],"outputs":[{"name":"","type":"tuple[]","internalType":"struct SimplifiedTwitter.Message[]","components":[{"name":"sender","type":"address","internalType":"address"},{"name":"content","type":"string","internalType":"string"},{"name":"timestamp","type":"uint256","internalType":"uint256"},{"name":"nickname","type":"string","internalType":"string"},{"name":"replyToMessageId","type":"uint256","internalType":"uint256"},{"name":"isDeleted","type":"bool","internalType":"bool"}]}],"stateMutability":"view"},{"type":"function","name":"getMessagesByPeriod","inputs":[{"name":"period","type":"uint256","internalType":"uint256"}],"outputs":[{"name":"","type":"tuple[]","internalType":"struct SimplifiedTwitter.Message[]","components":[{"name":"sender","type":"address","internalType":"address"},{"name":"content","type":"string","internalType":"string"},{"name":"timestamp","type":"uint256","internalType":"uint256"},{"name":"nickname","type":"string","internalType":"string"},{"name":"replyToMessageId","type":"uint256","internalType":"uint256"},{"name":"isDeleted","type":"bool","internalType":"bool"}]}],"stateMutability":"view"},{"type":"function","name":"getMessagesBySender","inputs":[{"name":"sender","type":"address","internalType":"address"}],"outputs":[{"name":"","type":"tuple[]","internalType":"struct SimplifiedTwitter.Message[]","components":[{"name":"sender","type":"address","internalType":"address"},{"name":"content","type":"string","internalType":"string"},{"name":"timestamp","type":"uint256","internalType":"uint256"},{"name":"nickname","type":"string","internalType":"string"},{"name":"replyToMessageId","type":"uint256","internalType":"uint256"},{"name":"isDeleted","type":"bool","internalType":"bool"}]}],"stateMutability":"view"},{"type":"function","name":"getUserProfile","inputs":[{"name":"user","type":"address","internalType":"address"}],"outputs":[{"name":"nickname","type":"string","internalType":"string"},{"name":"avatarCode","type":"string","internalType":"string"},{"name":"isActive","type":"bool","internalType":"bool"}],"stateMutability":"view"},{"type":"function","name":"postMessage","inputs":[{"name":"content","type":"string","internalType":"string"}],"outputs":[],"stateMutability":"nonpayable"},{"type":"function","name":"react","inputs":[{"name":"","type":"tuple","internalType":"struct IReactive.LogRecord","components":[{"name":"source","type":"address","internalType":"address"},{"name":"blockNumber","type":"uint256","internalType":"uint256"},{"name":"blockTimestamp","type":"uint256","internalType":"uint256"},{"name":"recordType","type":"uint256","internalType":"uint256"},{"name":"callerAddr","type":"address","internalType":"address"},{"name":"abiEncTx","type":"bytes","internalType":"bytes"},{"name":"returnedResult","type":"bytes","internalType":"bytes"},{"name":"logs","type":"bytes32[]","internalType":"bytes32[]"}]}],"outputs":[],"stateMutability":"nonpayable"},{"type":"function","name":"updateProfile","inputs":[{"name":"nickname","type":"string","internalType":"string"},{"name":"avatarCode","type":"string","internalType":"string"}],"outputs":[],"stateMutability":"nonpayable"},{"type":"event","name":"MessageSent","inputs":[{"name":"messageId","type":"uint256","indexed":true,"internalType":"uint256"},{"name":"sender","type":"address","indexed":true,"internalType":"address"},{"name":"content","type":"string","indexed":false,"internalType":"string"},{"name":"timestamp","type":"uint256","indexed":false,"internalType":"uint256"}],"anonymous":false},{"type":"event","name":"ProfileDeactivated","inputs":[{"name":"user","type":"address","indexed":true,"internalType":"address"}],"anonymous":false},{"type":"event","name":"ProfileUpdated","inputs":[{"name":"user","type":"address","indexed":true,"internalType":"address"},{"name":"nickname","type":"string","indexed":false,"internalType":"string"},{"name":"avatarCode","type":"string","indexed":false,"internalType":"string"}],"anonymous":false}],"bytecode":{"object":"0x60806040525f6040518060c001604052805f73ffffffffffffffffffffffffffffffffffffffff16815260200160405180602001604052805f815250815260200142815260200160405180602001604052805f81525081526020015f815260200160011515815250908060018154018082558091505060019003905f5260205f2090600602015f909190919091505f820151815f015f6101000a81548173ffffffffffffffffffffffffffffffffffffffff021916908373ffffffffffffffffffffffffffffffffffffffff1602179055506020820151816001019081620000e891906200051a565b506040820151816002015560608201518160030190816200010a91906200051a565b506080820151816004015560a0820151816005015f6101000a81548160ff021916908315150217905550505060015f8081526020019081526020015f205f80815481106200015d576200015c620005fe565b5b905f5260205f209060060201908060018154018082558091505060019003905f5260205f2090600602015f909190919091505f82015f9054906101000a900473ffffffffffffffffffffffffffffffffffffffff16815f015f6101000a81548173ffffffffffffffffffffffffffffffffffffffff021916908373ffffffffffffffffffffffffffffffffffffffff1602179055506001820181600101908162000208919062000642565b50600282015481600201556003820181600301908162000229919062000642565b5060048201548160040155600582015f9054906101000a900460ff16816005015f6101000a81548160ff021916908315150217905550505060025f908060018154018082558091505060019003905f5260205f20015f9091909190915055600160035f8081526020019081526020015f205f6101000a81548160ff02191690831515021790555062000740565b5f81519050919050565b7f4e487b71000000000000000000000000000000000000000000000000000000005f52604160045260245ffd5b7f4e487b71000000000000000000000000000000000000000000000000000000005f52602260045260245ffd5b5f60028204905060018216806200033257607f821691505b602082108103620003485762000347620002ed565b5b50919050565b5f819050815f5260205f209050919050565b5f6020601f8301049050919050565b5f82821b905092915050565b5f60088302620003ac7fffffffffffffffffffffffffffffffffffffffffffffffffffffffffffffffff826200036f565b620003b886836200036f565b95508019841693508086168417925050509392505050565b5f819050919050565b5f819050919050565b5f62000402620003fc620003f684620003d0565b620003d9565b620003d0565b9050919050565b5f819050919050565b6200041d83620003e2565b620004356200042c8262000409565b8484546200037b565b825550505050565b5f90565b6200044b6200043d565b6200045881848462000412565b505050565b5b818110156200047f57620004735f8262000441565b6001810190506200045e565b5050565b601f821115620004ce5762000498816200034e565b620004a38462000360565b81016020851015620004b3578190505b620004cb620004c28562000360565b8301826200045d565b50505b505050565b5f82821c905092915050565b5f620004f05f1984600802620004d3565b1980831691505092915050565b5f6200050a8383620004df565b9150826002028217905092915050565b6200052582620002b6565b67ffffffffffffffff811115620005415762000540620002c0565b5b6200054d82546200031a565b6200055a82828562000483565b5f60209050601f83116001811462000590575f84156200057b578287015190505b620005878582620004fd565b865550620005f6565b601f198416620005a0866200034e565b5f5b82811015620005c957848901518255600182019150602085019450602081019050620005a2565b86831015620005e95784890151620005e5601f891682620004df565b8355505b6001600288020188555050505b505050505050565b7f4e487b71000000000000000000000000000000000000000000000000000000005f52603260045260245ffd5b5f815490506200063b816200031a565b9050919050565b818103620006525750506200073e565b6200065d826200062b565b67ffffffffffffffff811115620006795762000678620002c0565b5b6200068582546200031a565b6200069282828562000483565b5f601f831160018114620006c4575f8415620006af578287015490505b620006bb8582620004fd565b86555062000737565b601f198416620006d4876200034e565b9650620006e1866200034e565b5f5b828110156200070a57848901548255600182019150600185019450602081019050620006e3565b868310156200072a578489015462000726601f891682620004df565b8355505b6001600288020188555050505b5050505050505b565b612aa6806200074e5f395ff3fe608060405234801561000f575f80fd5b506004361061009c575f3560e01c806371befe9f1161006457806371befe9f14610144578063987ee156146101605780639e19a1ca14610192578063c6e4d923146101c2578063c9d3cc6a146101f25761009c565b806320a17bca146100a057806331085c5f146100aa5780634eca280c146100da57806364598fda1461010a5780636630f88f14610128575b5f80fd5b6100a861020e565b005b6100c460048036038101906100bf91906119e3565b610337565b6040516100d19190611a6d565b60405180910390f35b6100f460048036038101906100ef9190611ab9565b610380565b6040516101019190611cee565b60405180910390f35b610112610664565b60405161011f9190611db6565b60405180910390f35b610142600480360381019061013d91906119e3565b6106ba565b005b61015e60048036038101906101599190611df9565b610db2565b005b61017a60048036038101906101759190611e6a565b610db5565b60405161018993929190611eec565b60405180910390f35b6101ac60048036038101906101a79190611ab9565b610f59565b6040516101b99190611cee565b60405180910390f35b6101dc60048036038101906101d79190611e6a565b61127f565b6040516101e99190611cee565b60405180910390f35b61020c60048036038101906102079190611f2f565b611593565b005b5f60065f3373ffffffffffffffffffffffffffffffffffffffff1673ffffffffffffffffffffffffffffffffffffffff1681526020019081526020015f205f01805461025990611fda565b90501161029b576040517f08c379a000000000000000000000000000000000000000000000000000000000815260040161029290612054565b60405180910390fd5b5f60065f3373ffffffffffffffffffffffffffffffffffffffff1673ffffffffffffffffffffffffffffffffffffffff1681526020019081526020015f206002015f6101000a81548160ff0219169083151502179055503373ffffffffffffffffffffffffffffffffffffffff167f54a43e4629a715b7e7723ff4f7400f2b5804224e3c8fcf6c96d0bbb46ae02c9360405160405180910390a2565b5f6005838360405161034a9291906120ae565b90815260200160405180910390205f9054906101000a900473ffffffffffffffffffffffffffffffffffffffff16905092915050565b606060035f8381526020019081526020015f205f9054906101000a900460ff166103df576040517f08c379a00000000000000000000000000000000000000000000000000000000081526004016103d690612110565b60405180910390fd5b5f60015f8481526020019081526020015f2090505f818054905067ffffffffffffffff8111156104125761041161212e565b5b60405190808252806020026020018201604052801561044b57816020015b610438611930565b8152602001906001900390816104305790505b5090505f5b82805490508110156106595782818154811061046f5761046e61215b565b5b905f5260205f2090600602016040518060c00160405290815f82015f9054906101000a900473ffffffffffffffffffffffffffffffffffffffff1673ffffffffffffffffffffffffffffffffffffffff1673ffffffffffffffffffffffffffffffffffffffff1681526020016001820180546104ea90611fda565b80601f016020809104026020016040519081016040528092919081815260200182805461051690611fda565b80156105615780601f1061053857610100808354040283529160200191610561565b820191905f5260205f20905b81548152906001019060200180831161054457829003601f168201915b505050505081526020016002820154815260200160038201805461058490611fda565b80601f01602080910402602001604051908101604052809291908181526020018280546105b090611fda565b80156105fb5780601f106105d2576101008083540402835291602001916105fb565b820191905f5260205f20905b8154815290600101906020018083116105de57829003601f168201915b5050505050815260200160048201548152602001600582015f9054906101000a900460ff16151515158152505082828151811061063b5761063a61215b565b5b60200260200101819052508080610651906121b5565b915050610450565b508092505050919050565b606060028054806020026020016040519081016040528092919081815260200182805480156106b057602002820191905f5260205f20905b81548152602001906001019080831161069c575b5050505050905090565b5f82829050116106ff576040517f08c379a00000000000000000000000000000000000000000000000000000000081526004016106f690612246565b60405180910390fd5b61030f828290501115610747576040517f08c379a000000000000000000000000000000000000000000000000000000000815260040161073e906122ae565b60405180910390fd5b5f60075f3373ffffffffffffffffffffffffffffffffffffffff1673ffffffffffffffffffffffffffffffffffffffff1681526020019081526020015f20541461081857603c60075f3373ffffffffffffffffffffffffffffffffffffffff1673ffffffffffffffffffffffffffffffffffffffff1681526020019081526020015f2054426107d691906122cc565b1015610817576040517f08c379a000000000000000000000000000000000000000000000000000000000815260040161080e90612349565b60405180910390fd5b5b5f60065f3373ffffffffffffffffffffffffffffffffffffffff1673ffffffffffffffffffffffffffffffffffffffff1681526020019081526020015f205f01805461086390611fda565b9050116108a5576040517f08c379a000000000000000000000000000000000000000000000000000000000815260040161089c906123b1565b60405180910390fd5b60065f3373ffffffffffffffffffffffffffffffffffffffff1673ffffffffffffffffffffffffffffffffffffffff1681526020019081526020015f206002015f9054906101000a900460ff16610931576040517f08c379a000000000000000000000000000000000000000000000000000000000815260040161092890612419565b60405180910390fd5b5f808054905090505f6064826109479190612464565b90505f6040518060c001604052803373ffffffffffffffffffffffffffffffffffffffff16815260200186868080601f0160208091040260200160405190810160405280939291908181526020018383808284375f81840152601f19601f82011690508083019250505050505050815260200142815260200160065f3373ffffffffffffffffffffffffffffffffffffffff1673ffffffffffffffffffffffffffffffffffffffff1681526020019081526020015f205f018054610a0a90611fda565b80601f0160208091040260200160405190810160405280929190818152602001828054610a3690611fda565b8015610a815780601f10610a5857610100808354040283529160200191610a81565b820191905f5260205f20905b815481529060010190602001808311610a6457829003601f168201915b505050505081526020015f81526020015f151581525090505f81908060018154018082558091505060019003905f5260205f2090600602015f909190919091505f820151815f015f6101000a81548173ffffffffffffffffffffffffffffffffffffffff021916908373ffffffffffffffffffffffffffffffffffffffff1602179055506020820151816001019081610b1a9190612631565b50604082015181600201556060820151816003019081610b3a9190612631565b506080820151816004015560a0820151816005015f6101000a81548160ff021916908315150217905550505060035f8381526020019081526020015f205f9054906101000a900460ff16610bd857600282908060018154018082558091505060019003905f5260205f20015f9091909190915055600160035f8481526020019081526020015f205f6101000a81548160ff0219169083151502179055505b60015f8381526020019081526020015f2081908060018154018082558091505060019003905f5260205f2090600602015f909190919091505f820151815f015f6101000a81548173ffffffffffffffffffffffffffffffffffffffff021916908373ffffffffffffffffffffffffffffffffffffffff1602179055506020820151816001019081610c699190612631565b50604082015181600201556060820151816003019081610c899190612631565b506080820151816004015560a0820151816005015f6101000a81548160ff021916908315150217905550505060045f3373ffffffffffffffffffffffffffffffffffffffff1673ffffffffffffffffffffffffffffffffffffffff1681526020019081526020015f2083908060018154018082558091505060019003905f5260205f20015f90919091909150554260075f3373ffffffffffffffffffffffffffffffffffffffff1673ffffffffffffffffffffffffffffffffffffffff1681526020019081526020015f20819055503373ffffffffffffffffffffffffffffffffffffffff16837f1f8960ec3ee7087d0552bc042c456f22e713898e21204c04f5885b3942bb0790878742604051610da39392919061273b565b60405180910390a35050505050565b50565b6060805f8060065f8673ffffffffffffffffffffffffffffffffffffffff1673ffffffffffffffffffffffffffffffffffffffff1681526020019081526020015f206040518060600160405290815f82018054610e1190611fda565b80601f0160208091040260200160405190810160405280929190818152602001828054610e3d90611fda565b8015610e885780601f10610e5f57610100808354040283529160200191610e88565b820191905f5260205f20905b815481529060010190602001808311610e6b57829003601f168201915b50505050508152602001600182018054610ea190611fda565b80601f0160208091040260200160405190810160405280929190818152602001828054610ecd90611fda565b8015610f185780601f10610eef57610100808354040283529160200191610f18565b820191905f5260205f20905b815481529060010190602001808311610efb57829003601f168201915b50505050508152602001600282015f9054906101000a900460ff1615151515815250509050805f015181602001518260400151935093509350509193909250565b60605f829050825f805490501015610f73575f8054905090505b5f8167ffffffffffffffff811115610f8e57610f8d61212e565b5b604051908082528060200260200182016040528015610fc757816020015b610fb4611930565b815260200190600190039081610fac5790505b5090505f80805f8054905011610fdd575f610fef565b60015f80549050610fee91906122cc565b5b90505b5f8111801561100057508382105b15611273575f8082815481106110195761101861215b565b5b905f5260205f2090600602016004015414801561106257505f81815481106110445761104361215b565b5b905f5260205f2090600602016005015f9054906101000a900460ff16155b15611260575f818154811061107a5761107961215b565b5b905f5260205f2090600602016040518060c00160405290815f82015f9054906101000a900473ffffffffffffffffffffffffffffffffffffffff1673ffffffffffffffffffffffffffffffffffffffff1673ffffffffffffffffffffffffffffffffffffffff1681526020016001820180546110f590611fda565b80601f016020809104026020016040519081016040528092919081815260200182805461112190611fda565b801561116c5780601f106111435761010080835404028352916020019161116c565b820191905f5260205f20905b81548152906001019060200180831161114f57829003601f168201915b505050505081526020016002820154815260200160038201805461118f90611fda565b80601f01602080910402602001604051908101604052809291908181526020018280546111bb90611fda565b80156112065780601f106111dd57610100808354040283529160200191611206565b820191905f5260205f20905b8154815290600101906020018083116111e957829003601f168201915b5050505050815260200160048201548152602001600582015f9054906101000a900460ff1615151515815250508383815181106112465761124561215b565b5b6020026020010181905250818061125c906121b5565b9250505b808061126b9061276b565b915050610ff2565b50819350505050919050565b60605f60045f8473ffffffffffffffffffffffffffffffffffffffff1673ffffffffffffffffffffffffffffffffffffffff1681526020019081526020015f2080548060200260200160405190810160405280929190818152602001828054801561130757602002820191905f5260205f20905b8154815260200190600101908083116112f3575b505050505090505f815167ffffffffffffffff81111561132a5761132961212e565b5b60405190808252806020026020018201604052801561136357816020015b611350611930565b8152602001906001900390816113485790505b5090505f5b8251811015611588575f8382815181106113855761138461215b565b5b60200260200101518154811061139e5761139d61215b565b5b905f5260205f2090600602016040518060c00160405290815f82015f9054906101000a900473ffffffffffffffffffffffffffffffffffffffff1673ffffffffffffffffffffffffffffffffffffffff1673ffffffffffffffffffffffffffffffffffffffff16815260200160018201805461141990611fda565b80601f016020809104026020016040519081016040528092919081815260200182805461144590611fda565b80156114905780601f1061146757610100808354040283529160200191611490565b820191905f5260205f20905b81548152906001019060200180831161147357829003601f168201915b50505050508152602001600282015481526020016003820180546114b390611fda565b80601f01602080910402602001604051908101604052809291908181526020018280546114df90611fda565b801561152a5780601f106115015761010080835404028352916020019161152a565b820191905f5260205f20905b81548152906001019060200180831161150d57829003601f168201915b5050505050815260200160048201548152602001600582015f9054906101000a900460ff16151515158152505082828151811061156a5761156961215b565b5b60200260200101819052508080611580906121b5565b915050611368565b508092505050919050565b5f84849050116115d8576040517f08c379a00000000000000000000000000000000000000000000000000000000081526004016115cf906127dc565b60405180910390fd5b602084849050111561161f576040517f08c379a000000000000000000000000000000000000000000000000000000000815260040161161690612844565b60405180910390fd5b5f600585856040516116329291906120ae565b90815260200160405180910390205f9054906101000a900473ffffffffffffffffffffffffffffffffffffffff1690505f73ffffffffffffffffffffffffffffffffffffffff168173ffffffffffffffffffffffffffffffffffffffff16141580156116ca57503373ffffffffffffffffffffffffffffffffffffffff168173ffffffffffffffffffffffffffffffffffffffff1614155b1561170a576040517f08c379a0000000000000000000000000000000000000000000000000000000008152600401611701906128ac565b60405180910390fd5b5f60065f3373ffffffffffffffffffffffffffffffffffffffff1673ffffffffffffffffffffffffffffffffffffffff1681526020019081526020015f2090505f815f01805461175990611fda565b90501115611833573373ffffffffffffffffffffffffffffffffffffffff166005825f0160405161178a919061294a565b90815260200160405180910390205f9054906101000a900473ffffffffffffffffffffffffffffffffffffffff1673ffffffffffffffffffffffffffffffffffffffff1603611832575f6005825f016040516117e6919061294a565b90815260200160405180910390205f6101000a81548173ffffffffffffffffffffffffffffffffffffffff021916908373ffffffffffffffffffffffffffffffffffffffff1602179055505b5b8585825f01918261184592919061296a565b50838382600101918261185992919061296a565b506001816002015f6101000a81548160ff02191690831515021790555033600587876040516118899291906120ae565b90815260200160405180910390205f6101000a81548173ffffffffffffffffffffffffffffffffffffffff021916908373ffffffffffffffffffffffffffffffffffffffff1602179055503373ffffffffffffffffffffffffffffffffffffffff167f6eb3a1c6a4675ba92d44e090515b1ceea358f26565d2854df0c99c3f5eaf9850878787876040516119209493929190612a37565b60405180910390a2505050505050565b6040518060c001604052805f73ffffffffffffffffffffffffffffffffffffffff168152602001606081526020015f8152602001606081526020015f81526020015f151581525090565b5f80fd5b5f80fd5b5f80fd5b5f80fd5b5f80fd5b5f8083601f8401126119a3576119a2611982565b5b8235905067ffffffffffffffff8111156119c0576119bf611986565b5b6020830191508360018202830111156119dc576119db61198a565b5b9250929050565b5f80602083850312156119f9576119f861197a565b5b5f83013567ffffffffffffffff811115611a1657611a1561197e565b5b611a228582860161198e565b92509250509250929050565b5f73ffffffffffffffffffffffffffffffffffffffff82169050919050565b5f611a5782611a2e565b9050919050565b611a6781611a4d565b82525050565b5f602082019050611a805f830184611a5e565b92915050565b5f819050919050565b611a9881611a86565b8114611aa2575f80fd5b50565b5f81359050611ab381611a8f565b92915050565b5f60208284031215611ace57611acd61197a565b5b5f611adb84828501611aa5565b91505092915050565b5f81519050919050565b5f82825260208201905092915050565b5f819050602082019050919050565b611b1681611a4d565b82525050565b5f81519050919050565b5f82825260208201905092915050565b5f5b83811015611b53578082015181840152602081019050611b38565b5f8484015250505050565b5f601f19601f8301169050919050565b5f611b7882611b1c565b611b828185611b26565b9350611b92818560208601611b36565b611b9b81611b5e565b840191505092915050565b611baf81611a86565b82525050565b5f8115159050919050565b611bc981611bb5565b82525050565b5f60c083015f830151611be45f860182611b0d565b5060208301518482036020860152611bfc8282611b6e565b9150506040830151611c116040860182611ba6565b5060608301518482036060860152611c298282611b6e565b9150506080830151611c3e6080860182611ba6565b5060a0830151611c5160a0860182611bc0565b508091505092915050565b5f611c678383611bcf565b905092915050565b5f602082019050919050565b5f611c8582611ae4565b611c8f8185611aee565b935083602082028501611ca185611afe565b805f5b85811015611cdc5784840389528151611cbd8582611c5c565b9450611cc883611c6f565b925060208a01995050600181019050611ca4565b50829750879550505050505092915050565b5f6020820190508181035f830152611d068184611c7b565b905092915050565b5f81519050919050565b5f82825260208201905092915050565b5f819050602082019050919050565b5f611d428383611ba6565b60208301905092915050565b5f602082019050919050565b5f611d6482611d0e565b611d6e8185611d18565b9350611d7983611d28565b805f5b83811015611da9578151611d908882611d37565b9750611d9b83611d4e565b925050600181019050611d7c565b5085935050505092915050565b5f6020820190508181035f830152611dce8184611d5a565b905092915050565b5f80fd5b5f6101008284031215611df057611def611dd6565b5b81905092915050565b5f60208284031215611e0e57611e0d61197a565b5b5f82013567ffffffffffffffff811115611e2b57611e2a61197e565b5b611e3784828501611dda565b91505092915050565b611e4981611a4d565b8114611e53575f80fd5b50565b5f81359050611e6481611e40565b92915050565b5f60208284031215611e7f57611e7e61197a565b5b5f611e8c84828501611e56565b91505092915050565b5f82825260208201905092915050565b5f611eaf82611b1c565b611eb98185611e95565b9350611ec9818560208601611b36565b611ed281611b5e565b840191505092915050565b611ee681611bb5565b82525050565b5f6060820190508181035f830152611f048186611ea5565b90508181036020830152611f188185611ea5565b9050611f276040830184611edd565b949350505050565b5f805f8060408587031215611f4757611f4661197a565b5b5f85013567ffffffffffffffff811115611f6457611f6361197e565b5b611f708782880161198e565b9450945050602085013567ffffffffffffffff811115611f9357611f9261197e565b5b611f9f8782880161198e565b925092505092959194509250565b7f4e487b71000000000000000000000000000000000000000000000000000000005f52602260045260245ffd5b5f6002820490506001821680611ff157607f821691505b60208210810361200457612003611fad565b5b50919050565b7f50726f66696c65206e6f7420666f756e640000000000000000000000000000005f82015250565b5f61203e601183611e95565b91506120498261200a565b602082019050919050565b5f6020820190508181035f83015261206b81612032565b9050919050565b5f81905092915050565b828183375f83830152505050565b5f6120958385612072565b93506120a283858461207c565b82840190509392505050565b5f6120ba82848661208a565b91508190509392505050565b7f506572696f6420646f6573206e6f7420657869737400000000000000000000005f82015250565b5f6120fa601583611e95565b9150612105826120c6565b602082019050919050565b5f6020820190508181035f830152612127816120ee565b9050919050565b7f4e487b71000000000000000000000000000000000000000000000000000000005f52604160045260245ffd5b7f4e487b71000000000000000000000000000000000000000000000000000000005f52603260045260245ffd5b7f4e487b71000000000000000000000000000000000000000000000000000000005f52601160045260245ffd5b5f6121bf82611a86565b91507fffffffffffffffffffffffffffffffffffffffffffffffffffffffffffffffff82036121f1576121f0612188565b5b600182019050919050565b7f4d6573736167652063616e6e6f7420626520656d7074790000000000000000005f82015250565b5f612230601783611e95565b915061223b826121fc565b602082019050919050565b5f6020820190508181035f83015261225d81612224565b9050919050565b7f4d65737361676520746f6f206c6f6e67000000000000000000000000000000005f82015250565b5f612298601083611e95565b91506122a382612264565b602082019050919050565b5f6020820190508181035f8301526122c58161228c565b9050919050565b5f6122d682611a86565b91506122e183611a86565b92508282039050818111156122f9576122f8612188565b5b92915050565b7f506c656173652077616974206265666f726520706f7374696e6720616761696e5f82015250565b5f612333602083611e95565b915061233e826122ff565b602082019050919050565b5f6020820190508181035f83015261236081612327565b9050919050565b7f50726f66696c65206e6f742073657400000000000000000000000000000000005f82015250565b5f61239b600f83611e95565b91506123a682612367565b602082019050919050565b5f6020820190508181035f8301526123c88161238f565b9050919050565b7f50726f66696c65206973206465616374697661746564000000000000000000005f82015250565b5f612403601683611e95565b915061240e826123cf565b602082019050919050565b5f6020820190508181035f830152612430816123f7565b9050919050565b7f4e487b71000000000000000000000000000000000000000000000000000000005f52601260045260245ffd5b5f61246e82611a86565b915061247983611a86565b92508261248957612488612437565b5b828204905092915050565b5f819050815f5260205f209050919050565b5f6020601f8301049050919050565b5f82821b905092915050565b5f600883026124f07fffffffffffffffffffffffffffffffffffffffffffffffffffffffffffffffff826124b5565b6124fa86836124b5565b95508019841693508086168417925050509392505050565b5f819050919050565b5f61253561253061252b84611a86565b612512565b611a86565b9050919050565b5f819050919050565b61254e8361251b565b61256261255a8261253c565b8484546124c1565b825550505050565b5f90565b61257661256a565b612581818484612545565b505050565b5b818110156125a4576125995f8261256e565b600181019050612587565b5050565b601f8211156125e9576125ba81612494565b6125c3846124a6565b810160208510156125d2578190505b6125e66125de856124a6565b830182612586565b50505b505050565b5f82821c905092915050565b5f6126095f19846008026125ee565b1980831691505092915050565b5f61262183836125fa565b9150826002028217905092915050565b61263a82611b1c565b67ffffffffffffffff8111156126535761265261212e565b5b61265d8254611fda565b6126688282856125a8565b5f60209050601f831160018114612699575f8415612687578287015190505b6126918582612616565b8655506126f8565b601f1984166126a786612494565b5f5b828110156126ce578489015182556001820191506020850194506020810190506126a9565b868310156126eb57848901516126e7601f8916826125fa565b8355505b6001600288020188555050505b505050505050565b5f61270b8385611e95565b935061271883858461207c565b61272183611b5e565b840190509392505050565b61273581611a86565b82525050565b5f6040820190508181035f830152612754818587612700565b9050612763602083018461272c565b949350505050565b5f61277582611a86565b91505f820361278757612786612188565b5b600182039050919050565b7f4e69636b6e616d652063616e6e6f7420626520656d70747900000000000000005f82015250565b5f6127c6601883611e95565b91506127d182612792565b602082019050919050565b5f6020820190508181035f8301526127f3816127ba565b9050919050565b7f4e69636b6e616d6520746f6f206c6f6e670000000000000000000000000000005f82015250565b5f61282e601183611e95565b9150612839826127fa565b602082019050919050565b5f6020820190508181035f83015261285b81612822565b9050919050565b7f4e69636b6e616d6520616c72656164792074616b656e000000000000000000005f82015250565b5f612896601683611e95565b91506128a182612862565b602082019050919050565b5f6020820190508181035f8301526128c38161288a565b9050919050565b5f81546128d681611fda565b6128e08186612072565b9450600182165f81146128fa576001811461290f57612941565b60ff1983168652811515820286019350612941565b61291885612494565b5f5b838110156129395781548189015260018201915060208101905061291a565b838801955050505b50505092915050565b5f61295582846128ca565b915081905092915050565b5f82905092915050565b6129748383612960565b67ffffffffffffffff81111561298d5761298c61212e565b5b6129978254611fda565b6129a28282856125a8565b5f601f8311600181146129cf575f84156129bd578287013590505b6129c78582612616565b865550612a2e565b601f1984166129dd86612494565b5f5b82811015612a04578489013582556001820191506020850194506020810190506129df565b86831015612a215784890135612a1d601f8916826125fa565b8355505b6001600288020188555050505b50505050505050565b5f6040820190508181035f830152612a50818688612700565b90508181036020830152612a65818486612700565b90509594505050505056fea2646970667358221220c1397eab2b2423eb1d90defd8bdd0febf17d14376ca874a83e4307512c31def264736f6c63430008140033","linkReferences":{}},"methodIdentifiers":{"deactivateProfile()":"20a17bca","getAddressByNickname(string)":"31085c5f","getAvailablePeriods()":"64598fda","getLatestMessages(uint256)":"9e19a1ca","getMessagesByPeriod(uint256)":"4eca280c","getMessagesBySender(address)":"c6e4d923","getUserProfile(address)":"987ee156","postMessage(string)":"6630f88f","react((address,uint256,uint256,uint256,address,bytes,bytes,bytes32[]))":"71befe9f","updateProfile(string,string)":"c9d3cc6a"},"id":25}