{"abi":[{"type":"constructor","inputs":[],"stateMutability":"payable"},{"type":"function","name":"deactivateProfile","inputs":[],"outputs":[],"stateMutability":"nonpayable"},{"type":"function","name":"getAddressByNickname","inputs":[{"name":"nickname","type":"string","internalType":"string"}],"outputs":[{"name":"","type":"address","internalType":"address"}],"stateMutability":"view"},{"type":"function","name":"getAvailablePeriods","inputs":[],"outputs":[{"name":"","type":"uint256[]","internalType":"uint256[]"}],"stateMutability":"view"},{"type":"function","name":"getLatestMessages","inputs":[{"name":"count","type":"uint256","internalType":"uint256"}],"outputs":[{"name":"","type":"tuple[]","internalType":"struct SimplifiedTwitter.Message[]","components":[{"name":"sender","type":"address","internalType":"address"},{"name":"content","type":"string","internalType":"string"},{"name":"timestamp","type":"uint256","internalType":"uint256"},{"name":"nickname","type":"string","internalType":"string"},{"name":"replyToMessageId","type":"uint256","internalType":"uint256"},{"name":"isDeleted","type":"bool","internalType":"bool"}]}],"stateMutability":"view"},{"type":"function","name":"getMessageCount","inputs":[],"outputs":[{"name":"","type":"uint256","internalType":"uint256"}],"stateMutability":"view"},{"type":"function","name":"getMessagesByPeriod","inputs":[{"name":"period","type":"uint256","internalType":"uint256"}],"outputs":[{"name":"","type":"tuple[]","internalType":"struct SimplifiedTwitter.Message[]","components":[{"name":"sender","type":"address","internalType":"address"},{"name":"content","type":"string","internalType":"string"},{"name":"timestamp","type":"uint256","internalType":"uint256"},{"name":"nickname","type":"string","internalType":"string"},{"name":"replyToMessageId","type":"uint256","internalType":"uint256"},{"name":"isDeleted","type":"bool","internalType":"bool"}]}],"stateMutability":"view"},{"type":"function","name":"getMessagesBySender","inputs":[{"name":"sender","type":"address","internalType":"address"}],"outputs":[{"name":"","type":"tuple[]","internalType":"struct SimplifiedTwitter.Message[]","components":[{"name":"sender","type":"address","internalType":"address"},{"name":"content","type":"string","internalType":"string"},{"name":"timestamp","type":"uint256","internalType":"uint256"},{"name":"nickname","type":"string","internalType":"string"},{"name":"replyToMessageId","type":"uint256","internalType":"uint256"},{"name":"isDeleted","type":"bool","internalType":"bool"}]}],"stateMutability":"view"},{"type":"function","name":"getMessagesWithPagination","inputs":[{"name":"page","type":"uint256","internalType":"uint256"},{"name":"pageSize","type":"uint256","internalType":"uint256"}],"outputs":[{"name":"","type":"tuple[]","internalType":"struct SimplifiedTwitter.Message[]","components":[{"name":"sender","type":"address","internalType":"address"},{"name":"content","type":"string","internalType":"string"},{"name":"timestamp","type":"uint256","internalType":"uint256"},{"name":"nickname","type":"string","internalType":"string"},{"name":"replyToMessageId","type":"uint256","internalType":"uint256"},{"name":"isDeleted","type":"bool","internalType":"bool"}]}],"stateMutability":"view"},{"type":"function","name":"getOriginalMessage","inputs":[{"name":"replyMessageId","type":"uint256","internalType":"uint256"}],"outputs":[{"name":"","type":"tuple","internalType":"struct SimplifiedTwitter.Message","components":[{"name":"sender","type":"address","internalType":"address"},{"name":"content","type":"string","internalType":"string"},{"name":"timestamp","type":"uint256","internalType":"uint256"},{"name":"nickname","type":"string","internalType":"string"},{"name":"replyToMessageId","type":"uint256","internalType":"uint256"},{"name":"isDeleted","type":"bool","internalType":"bool"}]}],"stateMutability":"view"},{"type":"function","name":"getRepliesForMessage","inputs":[{"name":"messageId","type":"uint256","internalType":"uint256"}],"outputs":[{"name":"","type":"tuple[]","internalType":"struct SimplifiedTwitter.Message[]","components":[{"name":"sender","type":"address","internalType":"address"},{"name":"content","type":"string","internalType":"string"},{"name":"timestamp","type":"uint256","internalType":"uint256"},{"name":"nickname","type":"string","internalType":"string"},{"name":"replyToMessageId","type":"uint256","internalType":"uint256"},{"name":"isDeleted","type":"bool","internalType":"bool"}]}],"stateMutability":"view"},{"type":"function","name":"getUserProfile","inputs":[{"name":"user","type":"address","internalType":"address"}],"outputs":[{"name":"nickname","type":"string","internalType":"string"},{"name":"avatarCode","type":"string","internalType":"string"},{"name":"isActive","type":"bool","internalType":"bool"}],"stateMutability":"view"},{"type":"function","name":"markMessageAsDeleted","inputs":[{"name":"messageId","type":"uint256","internalType":"uint256"}],"outputs":[],"stateMutability":"nonpayable"},{"type":"function","name":"postMessage","inputs":[{"name":"content","type":"string","internalType":"string"}],"outputs":[],"stateMutability":"nonpayable"},{"type":"function","name":"react","inputs":[{"name":"","type":"tuple","internalType":"struct IReactive.LogRecord","components":[{"name":"source","type":"address","internalType":"address"},{"name":"blockNumber","type":"uint256","internalType":"uint256"},{"name":"blockTimestamp","type":"uint256","internalType":"uint256"},{"name":"recordType","type":"uint256","internalType":"uint256"},{"name":"callerAddr","type":"address","internalType":"address"},{"name":"abiEncTx","type":"bytes","internalType":"bytes"},{"name":"returnedResult","type":"bytes","internalType":"bytes"},{"name":"logs","type":"bytes32[]","internalType":"bytes32[]"}]}],"outputs":[],"stateMutability":"nonpayable"},{"type":"function","name":"replyToMessage","inputs":[{"name":"replyToMessageId","type":"uint256","internalType":"uint256"},{"name":"content","type":"string","internalType":"string"}],"outputs":[],"stateMutability":"nonpayable"},{"type":"function","name":"updateAvatar","inputs":[{"name":"avatarCode","type":"string","internalType":"string"}],"outputs":[],"stateMutability":"nonpayable"},{"type":"function","name":"updateProfile","inputs":[{"name":"nickname","type":"string","internalType":"string"},{"name":"avatarCode","type":"string","internalType":"string"}],"outputs":[],"stateMutability":"nonpayable"},{"type":"event","name":"MessageDeleted","inputs":[{"name":"messageId","type":"uint256","indexed":true,"internalType":"uint256"},{"name":"sender","type":"address","indexed":true,"internalType":"address"}],"anonymous":false},{"type":"event","name":"MessageSent","inputs":[{"name":"messageId","type":"uint256","indexed":true,"internalType":"uint256"},{"name":"sender","type":"address","indexed":true,"internalType":"address"},{"name":"content","type":"string","indexed":false,"internalType":"string"},{"name":"timestamp","type":"uint256","indexed":false,"internalType":"uint256"}],"anonymous":false},{"type":"event","name":"ProfileDeactivated","inputs":[{"name":"user","type":"address","indexed":true,"internalType":"address"}],"anonymous":false},{"type":"event","name":"ProfileUpdated","inputs":[{"name":"user","type":"address","indexed":true,"internalType":"address"},{"name":"nickname","type":"string","indexed":false,"internalType":"string"},{"name":"avatarCode","type":"string","indexed":false,"internalType":"string"}],"anonymous":false},{"type":"event","name":"ReplyMessageSent","inputs":[{"name":"messageId","type":"uint256","indexed":true,"internalType":"uint256"},{"name":"sender","type":"address","indexed":true,"internalType":"address"},{"name":"replyToMessageId","type":"uint256","indexed":true,"internalType":"uint256"},{"name":"timestamp","type":"uint256","indexed":false,"internalType":"uint256"}],"anonymous":false}],"bytecode":{"object":"0x60806040525f6040518060c001604052805f73ffffffffffffffffffffffffffffffffffffffff16815260200160405180602001604052805f815250815260200142815260200160405180602001604052805f81525081526020015f815260200160011515815250908060018154018082558091505060019003905f5260205f2090600602015f909190919091505f820151815f015f6101000a81548173ffffffffffffffffffffffffffffffffffffffff021916908373ffffffffffffffffffffffffffffffffffffffff1602179055506020820151816001019081620000e891906200051a565b506040820151816002015560608201518160030190816200010a91906200051a565b506080820151816004015560a0820151816005015f6101000a81548160ff021916908315150217905550505060015f8081526020019081526020015f205f80815481106200015d576200015c620005fe565b5b905f5260205f209060060201908060018154018082558091505060019003905f5260205f2090600602015f909190919091505f82015f9054906101000a900473ffffffffffffffffffffffffffffffffffffffff16815f015f6101000a81548173ffffffffffffffffffffffffffffffffffffffff021916908373ffffffffffffffffffffffffffffffffffffffff1602179055506001820181600101908162000208919062000642565b50600282015481600201556003820181600301908162000229919062000642565b5060048201548160040155600582015f9054906101000a900460ff16816005015f6101000a81548160ff021916908315150217905550505060025f908060018154018082558091505060019003905f5260205f20015f9091909190915055600160035f8081526020019081526020015f205f6101000a81548160ff02191690831515021790555062000740565b5f81519050919050565b7f4e487b71000000000000000000000000000000000000000000000000000000005f52604160045260245ffd5b7f4e487b71000000000000000000000000000000000000000000000000000000005f52602260045260245ffd5b5f60028204905060018216806200033257607f821691505b602082108103620003485762000347620002ed565b5b50919050565b5f819050815f5260205f209050919050565b5f6020601f8301049050919050565b5f82821b905092915050565b5f60088302620003ac7fffffffffffffffffffffffffffffffffffffffffffffffffffffffffffffffff826200036f565b620003b886836200036f565b95508019841693508086168417925050509392505050565b5f819050919050565b5f819050919050565b5f62000402620003fc620003f684620003d0565b620003d9565b620003d0565b9050919050565b5f819050919050565b6200041d83620003e2565b620004356200042c8262000409565b8484546200037b565b825550505050565b5f90565b6200044b6200043d565b6200045881848462000412565b505050565b5b818110156200047f57620004735f8262000441565b6001810190506200045e565b5050565b601f821115620004ce5762000498816200034e565b620004a38462000360565b81016020851015620004b3578190505b620004cb620004c28562000360565b8301826200045d565b50505b505050565b5f82821c905092915050565b5f620004f05f1984600802620004d3565b1980831691505092915050565b5f6200050a8383620004df565b9150826002028217905092915050565b6200052582620002b6565b67ffffffffffffffff811115620005415762000540620002c0565b5b6200054d82546200031a565b6200055a82828562000483565b5f60209050601f83116001811462000590575f84156200057b578287015190505b620005878582620004fd565b865550620005f6565b601f198416620005a0866200034e565b5f5b82811015620005c957848901518255600182019150602085019450602081019050620005a2565b86831015620005e95784890151620005e5601f891682620004df565b8355505b6001600288020188555050505b505050505050565b7f4e487b71000000000000000000000000000000000000000000000000000000005f52603260045260245ffd5b5f815490506200063b816200031a565b9050919050565b818103620006525750506200073e565b6200065d826200062b565b67ffffffffffffffff811115620006795762000678620002c0565b5b6200068582546200031a565b6200069282828562000483565b5f601f831160018114620006c4575f8415620006af578287015490505b620006bb8582620004fd565b86555062000737565b601f198416620006d4876200034e565b9650620006e1866200034e565b5f5b828110156200070a57848901548255600182019150600185019450602081019050620006e3565b868310156200072a578489015462000726601f891682620004df565b8355505b6001600288020188555050505b5050505050505b565b615027806200074e5f395ff3fe608060405234801561000f575f80fd5b5060043610610109575f3560e01c806371befe9f116100a05780639e19a1ca1161006f5780639e19a1ca146102c95780639fe958b9146102f9578063c6e4d92314610315578063c9d3cc6a14610345578063ee72539e1461036157610109565b806371befe9f1461021b57806376bf6941146102375780638382ea9014610267578063987ee1561461029757610109565b80634eca280c116100dc5780634eca280c146101955780635eb3a5ac146101c557806364598fda146101e15780636630f88f146101ff57610109565b80630c5d798d1461010d57806320a17bca1461013d57806331085c5f146101475780633193391614610177575b5f80fd5b6101276004803603810190610122919061384f565b61037d565b6040516101349190613ac7565b60405180910390f35b61014561088b565b005b610161600480360381019061015c9190613b48565b6109b4565b60405161016e9190613ba2565b60405180910390f35b61017f6109fd565b60405161018c9190613bca565b60405180910390f35b6101af60048036038101906101aa9190613be3565b610a08565b6040516101bc9190613ac7565b60405180910390f35b6101df60048036038101906101da9190613be3565b610d92565b005b6101e9611240565b6040516101f69190613cb6565b60405180910390f35b61021960048036038101906102149190613b48565b611296565b005b61023560048036038101906102309190613cf9565b61198e565b005b610251600480360381019061024c9190613be3565b611991565b60405161025e9190613ac7565b60405180910390f35b610281600480360381019061027c9190613be3565b611d55565b60405161028e9190613dcd565b60405180910390f35b6102b160048036038101906102ac9190613e17565b612190565b6040516102c093929190613e99565b60405180910390f35b6102e360048036038101906102de9190613be3565b612334565b6040516102f09190613ac7565b60405180910390f35b610313600480360381019061030e9190613b48565b6126ee565b005b61032f600480360381019061032a9190613e17565b61285f565b60405161033c9190613ac7565b60405180910390f35b61035f600480360381019061035a9190613edc565b612c4d565b005b61037b60048036038101906103769190613f5a565b612fea565b005b60605f82116103c1576040517f08c379a00000000000000000000000000000000000000000000000000000000081526004016103b890614001565b60405180910390fd5b6032821115610405576040517f08c379a00000000000000000000000000000000000000000000000000000000081526004016103fc90614069565b60405180910390fd5b5f808054905090505f838561041a91906140b4565b9050818110610480575f67ffffffffffffffff81111561043d5761043c6140f5565b5b60405190808252806020026020018201604052801561047657816020015b6104636137ca565b81526020019060019003908161045b5790505b5092505050610885565b5f8490508285836104919190614122565b11156104a65781836104a39190614155565b90505b5f8167ffffffffffffffff8111156104c1576104c06140f5565b5b6040519080825280602002602001820160405280156104fa57816020015b6104e76137ca565b8152602001906001900390816104df5790505b5090505f8060648561050c91906141b5565b90505f60646001868861051f9190614122565b6105299190614155565b61053391906141b5565b90505f8290505b81811115801561054e575060028054905081105b15610879575f60015f8381526020019081526020015f20805480602002602001604051908101604052809291908181526020015f905b82821015610756578382905f5260205f2090600602016040518060c00160405290815f82015f9054906101000a900473ffffffffffffffffffffffffffffffffffffffff1673ffffffffffffffffffffffffffffffffffffffff1673ffffffffffffffffffffffffffffffffffffffff16815260200160018201805461060990614212565b80601f016020809104026020016040519081016040528092919081815260200182805461063590614212565b80156106805780601f1061065757610100808354040283529160200191610680565b820191905f5260205f20905b81548152906001019060200180831161066357829003601f168201915b50505050508152602001600282015481526020016003820180546106a390614212565b80601f01602080910402602001604051908101604052809291908181526020018280546106cf90614212565b801561071a5780601f106106f15761010080835404028352916020019161071a565b820191905f5260205f20905b8154815290600101906020018083116106fd57829003601f168201915b5050505050815260200160048201548152602001600582015f9054906101000a900460ff16151515158152505081526020019060010190610584565b5050505090505f5b8151811015610864575f8160648561077691906140b4565b6107809190614122565b905089811015801561079c5750888a6107999190614122565b81105b15610838575f8383815181106107b5576107b4614242565b5b6020026020010151608001511480156107ea57508282815181106107dc576107db614242565b5b602002602001015160a00151155b156108375782828151811061080257610801614242565b5b602002602001015188888151811061081d5761081c614242565b5b602002602001018190525086806108339061426f565b9750505b5b888a6108449190614122565b81106108505750610864565b50808061085c9061426f565b91505061075e565b505080806108719061426f565b91505061053a565b50839750505050505050505b92915050565b5f60075f3373ffffffffffffffffffffffffffffffffffffffff1673ffffffffffffffffffffffffffffffffffffffff1681526020019081526020015f205f0180546108d690614212565b905011610918576040517f08c379a000000000000000000000000000000000000000000000000000000000815260040161090f90614300565b60405180910390fd5b5f60075f3373ffffffffffffffffffffffffffffffffffffffff1673ffffffffffffffffffffffffffffffffffffffff1681526020019081526020015f206002015f6101000a81548160ff0219169083151502179055503373ffffffffffffffffffffffffffffffffffffffff167f54a43e4629a715b7e7723ff4f7400f2b5804224e3c8fcf6c96d0bbb46ae02c9360405160405180910390a2565b5f600683836040516109c792919061435a565b90815260200160405180910390205f9054906101000a900473ffffffffffffffffffffffffffffffffffffffff16905092915050565b5f8080549050905090565b606060035f8381526020019081526020015f205f9054906101000a900460ff16610a67576040517f08c379a0000000000000000000000000000000000000000000000000000000008152600401610a5e906143bc565b60405180910390fd5b5f60015f8481526020019081526020015f2090505f805b8280549050811015610adf57828181548110610a9d57610a9c614242565b5b905f5260205f2090600602016005015f9054906101000a900460ff16610acc578180610ac89061426f565b9250505b8080610ad79061426f565b915050610a7e565b505f8167ffffffffffffffff811115610afb57610afa6140f5565b5b604051908082528060200260200182016040528015610b3457816020015b610b216137ca565b815260200190600190039081610b195790505b5090505f805b8480549050811015610d8557848181548110610b5957610b58614242565b5b905f5260205f2090600602016005015f9054906101000a900460ff16610d7257848181548110610b8c57610b8b614242565b5b905f5260205f2090600602016040518060c00160405290815f82015f9054906101000a900473ffffffffffffffffffffffffffffffffffffffff1673ffffffffffffffffffffffffffffffffffffffff1673ffffffffffffffffffffffffffffffffffffffff168152602001600182018054610c0790614212565b80601f0160208091040260200160405190810160405280929190818152602001828054610c3390614212565b8015610c7e5780601f10610c5557610100808354040283529160200191610c7e565b820191905f5260205f20905b815481529060010190602001808311610c6157829003601f168201915b5050505050815260200160028201548152602001600382018054610ca190614212565b80601f0160208091040260200160405190810160405280929190818152602001828054610ccd90614212565b8015610d185780601f10610cef57610100808354040283529160200191610d18565b820191905f5260205f20905b815481529060010190602001808311610cfb57829003601f168201915b5050505050815260200160048201548152602001600582015f9054906101000a900460ff161515151581525050838381518110610d5857610d57614242565b5b60200260200101819052508180610d6e9061426f565b9250505b8080610d7d9061426f565b915050610b3a565b5081945050505050919050565b5f805490508110610dd8576040517f08c379a0000000000000000000000000000000000000000000000000000000008152600401610dcf90614424565b60405180910390fd5b3373ffffffffffffffffffffffffffffffffffffffff165f8281548110610e0257610e01614242565b5b905f5260205f2090600602015f015f9054906101000a900473ffffffffffffffffffffffffffffffffffffffff1673ffffffffffffffffffffffffffffffffffffffff1614610e86576040517f08c379a0000000000000000000000000000000000000000000000000000000008152600401610e7d9061448c565b60405180910390fd5b60015f8281548110610e9b57610e9a614242565b5b905f5260205f2090600602016005015f6101000a81548160ff0219169083151502179055505f606482610ece91906141b5565b905060035f8281526020019081526020015f205f9054906101000a900460ff16156111f8575f808381548110610f0757610f06614242565b5b905f5260205f2090600602016040518060c00160405290815f82015f9054906101000a900473ffffffffffffffffffffffffffffffffffffffff1673ffffffffffffffffffffffffffffffffffffffff1673ffffffffffffffffffffffffffffffffffffffff168152602001600182018054610f8290614212565b80601f0160208091040260200160405190810160405280929190818152602001828054610fae90614212565b8015610ff95780601f10610fd057610100808354040283529160200191610ff9565b820191905f5260205f20905b815481529060010190602001808311610fdc57829003601f168201915b505050505081526020016002820154815260200160038201805461101c90614212565b80601f016020809104026020016040519081016040528092919081815260200182805461104890614212565b80156110935780601f1061106a57610100808354040283529160200191611093565b820191905f5260205f20905b81548152906001019060200180831161107657829003601f168201915b5050505050815260200160048201548152602001600582015f9054906101000a900460ff16151515158152505090505f5b60015f8481526020019081526020015f20805490508110156111f5575f60015f8581526020019081526020015f20828154811061110457611103614242565b5b905f5260205f2090600602019050825f015173ffffffffffffffffffffffffffffffffffffffff16815f015f9054906101000a900473ffffffffffffffffffffffffffffffffffffffff1673ffffffffffffffffffffffffffffffffffffffff16148015611179575082604001518160020154145b80156111a757508260200151805190602001208160010160405161119d9190614546565b6040518091039020145b80156111ba575082608001518160040154145b156111e1576001816005015f6101000a81548160ff021916908315150217905550506111f5565b5080806111ed9061426f565b9150506110c4565b50505b3373ffffffffffffffffffffffffffffffffffffffff16827ffb2787660bc2cbdfc289209f8fc92a07a17109a8f520025df91f322e51da794760405160405180910390a35050565b6060600280548060200260200160405190810160405280929190818152602001828054801561128c57602002820191905f5260205f20905b815481526020019060010190808311611278575b5050505050905090565b5f82829050116112db576040517f08c379a00000000000000000000000000000000000000000000000000000000081526004016112d2906145a6565b60405180910390fd5b61030f828290501115611323576040517f08c379a000000000000000000000000000000000000000000000000000000000815260040161131a9061460e565b60405180910390fd5b5f60085f3373ffffffffffffffffffffffffffffffffffffffff1673ffffffffffffffffffffffffffffffffffffffff1681526020019081526020015f2054146113f457603c60085f3373ffffffffffffffffffffffffffffffffffffffff1673ffffffffffffffffffffffffffffffffffffffff1681526020019081526020015f2054426113b29190614155565b10156113f3576040517f08c379a00000000000000000000000000000000000000000000000000000000081526004016113ea90614676565b60405180910390fd5b5b5f60075f3373ffffffffffffffffffffffffffffffffffffffff1673ffffffffffffffffffffffffffffffffffffffff1681526020019081526020015f205f01805461143f90614212565b905011611481576040517f08c379a0000000000000000000000000000000000000000000000000000000008152600401611478906146de565b60405180910390fd5b60075f3373ffffffffffffffffffffffffffffffffffffffff1673ffffffffffffffffffffffffffffffffffffffff1681526020019081526020015f206002015f9054906101000a900460ff1661150d576040517f08c379a000000000000000000000000000000000000000000000000000000000815260040161150490614746565b60405180910390fd5b5f808054905090505f60648261152391906141b5565b90505f6040518060c001604052803373ffffffffffffffffffffffffffffffffffffffff16815260200186868080601f0160208091040260200160405190810160405280939291908181526020018383808284375f81840152601f19601f82011690508083019250505050505050815260200142815260200160075f3373ffffffffffffffffffffffffffffffffffffffff1673ffffffffffffffffffffffffffffffffffffffff1681526020019081526020015f205f0180546115e690614212565b80601f016020809104026020016040519081016040528092919081815260200182805461161290614212565b801561165d5780601f106116345761010080835404028352916020019161165d565b820191905f5260205f20905b81548152906001019060200180831161164057829003601f168201915b505050505081526020015f81526020015f151581525090505f81908060018154018082558091505060019003905f5260205f2090600602015f909190919091505f820151815f015f6101000a81548173ffffffffffffffffffffffffffffffffffffffff021916908373ffffffffffffffffffffffffffffffffffffffff16021790555060208201518160010190816116f69190614901565b506040820151816002015560608201518160030190816117169190614901565b506080820151816004015560a0820151816005015f6101000a81548160ff021916908315150217905550505060035f8381526020019081526020015f205f9054906101000a900460ff166117b457600282908060018154018082558091505060019003905f5260205f20015f9091909190915055600160035f8481526020019081526020015f205f6101000a81548160ff0219169083151502179055505b60015f8381526020019081526020015f2081908060018154018082558091505060019003905f5260205f2090600602015f909190919091505f820151815f015f6101000a81548173ffffffffffffffffffffffffffffffffffffffff021916908373ffffffffffffffffffffffffffffffffffffffff16021790555060208201518160010190816118459190614901565b506040820151816002015560608201518160030190816118659190614901565b506080820151816004015560a0820151816005015f6101000a81548160ff021916908315150217905550505060045f3373ffffffffffffffffffffffffffffffffffffffff1673ffffffffffffffffffffffffffffffffffffffff1681526020019081526020015f2083908060018154018082558091505060019003905f5260205f20015f90919091909150554260085f3373ffffffffffffffffffffffffffffffffffffffff1673ffffffffffffffffffffffffffffffffffffffff1681526020019081526020015f20819055503373ffffffffffffffffffffffffffffffffffffffff16837f1f8960ec3ee7087d0552bc042c456f22e713898e21204c04f5885b3942bb079087874260405161197f939291906149fc565b60405180910390a35050505050565b50565b60605f8054905082106119d9576040517f08c379a00000000000000000000000000000000000000000000000000000000081526004016119d090614424565b60405180910390fd5b5f60055f8481526020019081526020015f2090505f805b8280549050811015611a6c575f838281548110611a1057611a0f614242565b5b905f5260205f20015481548110611a2a57611a29614242565b5b905f5260205f2090600602016005015f9054906101000a900460ff16611a59578180611a559061426f565b9250505b8080611a649061426f565b9150506119f0565b505f8167ffffffffffffffff811115611a8857611a876140f5565b5b604051908082528060200260200182016040528015611ac157816020015b611aae6137ca565b815260200190600190039081611aa65790505b5090505f805b8480549050811015611d48575f858281548110611ae757611ae6614242565b5b905f5260205f20015481548110611b0157611b00614242565b5b905f5260205f2090600602016005015f9054906101000a900460ff16611d35575f858281548110611b3557611b34614242565b5b905f5260205f20015481548110611b4f57611b4e614242565b5b905f5260205f2090600602016040518060c00160405290815f82015f9054906101000a900473ffffffffffffffffffffffffffffffffffffffff1673ffffffffffffffffffffffffffffffffffffffff1673ffffffffffffffffffffffffffffffffffffffff168152602001600182018054611bca90614212565b80601f0160208091040260200160405190810160405280929190818152602001828054611bf690614212565b8015611c415780601f10611c1857610100808354040283529160200191611c41565b820191905f5260205f20905b815481529060010190602001808311611c2457829003601f168201915b5050505050815260200160028201548152602001600382018054611c6490614212565b80601f0160208091040260200160405190810160405280929190818152602001828054611c9090614212565b8015611cdb5780601f10611cb257610100808354040283529160200191611cdb565b820191905f5260205f20905b815481529060010190602001808311611cbe57829003601f168201915b5050505050815260200160048201548152602001600582015f9054906101000a900460ff161515151581525050838381518110611d1b57611d1a614242565b5b60200260200101819052508180611d319061426f565b9250505b8080611d409061426f565b915050611ac7565b5081945050505050919050565b611d5d6137ca565b5f805490508210611da3576040517f08c379a0000000000000000000000000000000000000000000000000000000008152600401611d9a90614424565b60405180910390fd5b5f808381548110611db757611db6614242565b5b905f5260205f2090600602016040518060c00160405290815f82015f9054906101000a900473ffffffffffffffffffffffffffffffffffffffff1673ffffffffffffffffffffffffffffffffffffffff1673ffffffffffffffffffffffffffffffffffffffff168152602001600182018054611e3290614212565b80601f0160208091040260200160405190810160405280929190818152602001828054611e5e90614212565b8015611ea95780601f10611e8057610100808354040283529160200191611ea9565b820191905f5260205f20905b815481529060010190602001808311611e8c57829003601f168201915b5050505050815260200160028201548152602001600382018054611ecc90614212565b80601f0160208091040260200160405190810160405280929190818152602001828054611ef890614212565b8015611f435780601f10611f1a57610100808354040283529160200191611f43565b820191905f5260205f20905b815481529060010190602001808311611f2657829003601f168201915b5050505050815260200160048201548152602001600582015f9054906101000a900460ff16151515158152505090505f816080015111611fb8576040517f08c379a0000000000000000000000000000000000000000000000000000000008152600401611faf90614a76565b60405180910390fd5b5f816080015181548110611fcf57611fce614242565b5b905f5260205f2090600602016040518060c00160405290815f82015f9054906101000a900473ffffffffffffffffffffffffffffffffffffffff1673ffffffffffffffffffffffffffffffffffffffff1673ffffffffffffffffffffffffffffffffffffffff16815260200160018201805461204a90614212565b80601f016020809104026020016040519081016040528092919081815260200182805461207690614212565b80156120c15780601f10612098576101008083540402835291602001916120c1565b820191905f5260205f20905b8154815290600101906020018083116120a457829003601f168201915b50505050508152602001600282015481526020016003820180546120e490614212565b80601f016020809104026020016040519081016040528092919081815260200182805461211090614212565b801561215b5780601f106121325761010080835404028352916020019161215b565b820191905f5260205f20905b81548152906001019060200180831161213e57829003601f168201915b5050505050815260200160048201548152602001600582015f9054906101000a900460ff161515151581525050915050919050565b6060805f8060075f8673ffffffffffffffffffffffffffffffffffffffff1673ffffffffffffffffffffffffffffffffffffffff1681526020019081526020015f206040518060600160405290815f820180546121ec90614212565b80601f016020809104026020016040519081016040528092919081815260200182805461221890614212565b80156122635780601f1061223a57610100808354040283529160200191612263565b820191905f5260205f20905b81548152906001019060200180831161224657829003601f168201915b5050505050815260200160018201805461227c90614212565b80601f01602080910402602001604051908101604052809291908181526020018280546122a890614212565b80156122f35780601f106122ca576101008083540402835291602001916122f3565b820191905f5260205f20905b8154815290600101906020018083116122d657829003601f168201915b50505050508152602001600282015f9054906101000a900460ff1615151515815250509050805f015181602001518260400151935093509350509193909250565b6060603282111561237a576040517f08c379a000000000000000000000000000000000000000000000000000000000815260040161237190614ade565b60405180910390fd5b5f805b5f8054905081101561240d575f80828154811061239d5761239c614242565b5b905f5260205f209060060201600401541480156123e657505f81815481106123c8576123c7614242565b5b905f5260205f2090600602016005015f9054906101000a900460ff16155b156123fa5781806123f69061426f565b9250505b80806124059061426f565b91505061237d565b505f8390508382101561241e578190505b5f8167ffffffffffffffff811115612439576124386140f5565b5b60405190808252806020026020018201604052801561247257816020015b61245f6137ca565b8152602001906001900390816124575790505b5090505f8203612487578093505050506126e9565b5f80808054905090505b5f8111801561249f57508382105b156126e0575f6001826124b29190614155565b90505f8082815481106124c8576124c7614242565b5b905f5260205f2090600602016040518060c00160405290815f82015f9054906101000a900473ffffffffffffffffffffffffffffffffffffffff1673ffffffffffffffffffffffffffffffffffffffff1673ffffffffffffffffffffffffffffffffffffffff16815260200160018201805461254390614212565b80601f016020809104026020016040519081016040528092919081815260200182805461256f90614212565b80156125ba5780601f10612591576101008083540402835291602001916125ba565b820191905f5260205f20905b81548152906001019060200180831161259d57829003601f168201915b50505050508152602001600282015481526020016003820180546125dd90614212565b80601f016020809104026020016040519081016040528092919081815260200182805461260990614212565b80156126545780601f1061262b57610100808354040283529160200191612654565b820191905f5260205f20905b81548152906001019060200180831161263757829003601f168201915b5050505050815260200160048201548152602001600582015f9054906101000a900460ff16151515158152505090505f816080015114801561269857508060a00151155b156126cb57808585815181106126b1576126b0614242565b5b602002602001018190525083806126c79061426f565b9450505b505080806126d890614afc565b915050612491565b50819450505050505b919050565b5f60075f3373ffffffffffffffffffffffffffffffffffffffff1673ffffffffffffffffffffffffffffffffffffffff1681526020019081526020015f205f01805461273990614212565b90501161277b576040517f08c379a000000000000000000000000000000000000000000000000000000000815260040161277290614b6d565b60405180910390fd5b818160075f3373ffffffffffffffffffffffffffffffffffffffff1673ffffffffffffffffffffffffffffffffffffffff1681526020019081526020015f2060010191826127ca929190614b95565b503373ffffffffffffffffffffffffffffffffffffffff167f6eb3a1c6a4675ba92d44e090515b1ceea358f26565d2854df0c99c3f5eaf985060075f3373ffffffffffffffffffffffffffffffffffffffff1673ffffffffffffffffffffffffffffffffffffffff1681526020019081526020015f205f01848460405161285393929190614ce3565b60405180910390a25050565b60605f60045f8473ffffffffffffffffffffffffffffffffffffffff1673ffffffffffffffffffffffffffffffffffffffff1681526020019081526020015f208054806020026020016040519081016040528092919081815260200182805480156128e757602002820191905f5260205f20905b8154815260200190600101908083116128d3575b505050505090505f805b8251811015612969575f83828151811061290e5761290d614242565b5b60200260200101518154811061292757612926614242565b5b905f5260205f2090600602016005015f9054906101000a900460ff166129565781806129529061426f565b9250505b80806129619061426f565b9150506128f1565b505f8167ffffffffffffffff811115612985576129846140f5565b5b6040519080825280602002602001820160405280156129be57816020015b6129ab6137ca565b8152602001906001900390816129a35790505b5090505f805b8451811015612c40575f8582815181106129e1576129e0614242565b5b6020026020010151815481106129fa576129f9614242565b5b905f5260205f2090600602016005015f9054906101000a900460ff16612c2d575f858281518110612a2e57612a2d614242565b5b602002602001015181548110612a4757612a46614242565b5b905f5260205f2090600602016040518060c00160405290815f82015f9054906101000a900473ffffffffffffffffffffffffffffffffffffffff1673ffffffffffffffffffffffffffffffffffffffff1673ffffffffffffffffffffffffffffffffffffffff168152602001600182018054612ac290614212565b80601f0160208091040260200160405190810160405280929190818152602001828054612aee90614212565b8015612b395780601f10612b1057610100808354040283529160200191612b39565b820191905f5260205f20905b815481529060010190602001808311612b1c57829003601f168201915b5050505050815260200160028201548152602001600382018054612b5c90614212565b80601f0160208091040260200160405190810160405280929190818152602001828054612b8890614212565b8015612bd35780601f10612baa57610100808354040283529160200191612bd3565b820191905f5260205f20905b815481529060010190602001808311612bb657829003601f168201915b5050505050815260200160048201548152602001600582015f9054906101000a900460ff161515151581525050838381518110612c1357612c12614242565b5b60200260200101819052508180612c299061426f565b9250505b8080612c389061426f565b9150506129c4565b5081945050505050919050565b5f8484905011612c92576040517f08c379a0000000000000000000000000000000000000000000000000000000008152600401612c8990614d64565b60405180910390fd5b6020848490501115612cd9576040517f08c379a0000000000000000000000000000000000000000000000000000000008152600401612cd090614dcc565b60405180910390fd5b5f60068585604051612cec92919061435a565b90815260200160405180910390205f9054906101000a900473ffffffffffffffffffffffffffffffffffffffff1690505f73ffffffffffffffffffffffffffffffffffffffff168173ffffffffffffffffffffffffffffffffffffffff1614158015612d8457503373ffffffffffffffffffffffffffffffffffffffff168173ffffffffffffffffffffffffffffffffffffffff1614155b15612dc4576040517f08c379a0000000000000000000000000000000000000000000000000000000008152600401612dbb90614e34565b60405180910390fd5b5f60075f3373ffffffffffffffffffffffffffffffffffffffff1673ffffffffffffffffffffffffffffffffffffffff1681526020019081526020015f2090505f815f018054612e1390614212565b90501115612eed573373ffffffffffffffffffffffffffffffffffffffff166006825f01604051612e449190614ed2565b90815260200160405180910390205f9054906101000a900473ffffffffffffffffffffffffffffffffffffffff1673ffffffffffffffffffffffffffffffffffffffff1603612eec575f6006825f01604051612ea09190614ed2565b90815260200160405180910390205f6101000a81548173ffffffffffffffffffffffffffffffffffffffff021916908373ffffffffffffffffffffffffffffffffffffffff1602179055505b5b8585825f019182612eff929190614b95565b508383826001019182612f13929190614b95565b506001816002015f6101000a81548160ff0219169083151502179055503360068787604051612f4392919061435a565b90815260200160405180910390205f6101000a81548173ffffffffffffffffffffffffffffffffffffffff021916908373ffffffffffffffffffffffffffffffffffffffff1602179055503373ffffffffffffffffffffffffffffffffffffffff167f6eb3a1c6a4675ba92d44e090515b1ceea358f26565d2854df0c99c3f5eaf985087878787604051612fda9493929190614ee8565b60405180910390a2505050505050565b5f805490508310613030576040517f08c379a000000000000000000000000000000000000000000000000000000000815260040161302790614f6b565b60405180910390fd5b5f838154811061304357613042614242565b5b905f5260205f2090600602016005015f9054906101000a900460ff161561309f576040517f08c379a000000000000000000000000000000000000000000000000000000000815260040161309690614fd3565b60405180910390fd5b5f82829050116130e4576040517f08c379a00000000000000000000000000000000000000000000000000000000081526004016130db906145a6565b60405180910390fd5b61030f82829050111561312c576040517f08c379a00000000000000000000000000000000000000000000000000000000081526004016131239061460e565b60405180910390fd5b5f60085f3373ffffffffffffffffffffffffffffffffffffffff1673ffffffffffffffffffffffffffffffffffffffff1681526020019081526020015f2054146131fd57603c60085f3373ffffffffffffffffffffffffffffffffffffffff1673ffffffffffffffffffffffffffffffffffffffff1681526020019081526020015f2054426131bb9190614155565b10156131fc576040517f08c379a00000000000000000000000000000000000000000000000000000000081526004016131f390614676565b60405180910390fd5b5b5f60075f3373ffffffffffffffffffffffffffffffffffffffff1673ffffffffffffffffffffffffffffffffffffffff1681526020019081526020015f205f01805461324890614212565b90501161328a576040517f08c379a0000000000000000000000000000000000000000000000000000000008152600401613281906146de565b60405180910390fd5b60075f3373ffffffffffffffffffffffffffffffffffffffff1673ffffffffffffffffffffffffffffffffffffffff1681526020019081526020015f206002015f9054906101000a900460ff16613316576040517f08c379a000000000000000000000000000000000000000000000000000000000815260040161330d90614746565b60405180910390fd5b5f808054905090505f60648261332c91906141b5565b90505f6040518060c001604052803373ffffffffffffffffffffffffffffffffffffffff16815260200186868080601f0160208091040260200160405190810160405280939291908181526020018383808284375f81840152601f19601f82011690508083019250505050505050815260200142815260200160075f3373ffffffffffffffffffffffffffffffffffffffff1673ffffffffffffffffffffffffffffffffffffffff1681526020019081526020015f205f0180546133ef90614212565b80601f016020809104026020016040519081016040528092919081815260200182805461341b90614212565b80156134665780601f1061343d57610100808354040283529160200191613466565b820191905f5260205f20905b81548152906001019060200180831161344957829003601f168201915b505050505081526020018781526020015f151581525090505f81908060018154018082558091505060019003905f5260205f2090600602015f909190919091505f820151815f015f6101000a81548173ffffffffffffffffffffffffffffffffffffffff021916908373ffffffffffffffffffffffffffffffffffffffff16021790555060208201518160010190816134ff9190614901565b5060408201518160020155606082015181600301908161351f9190614901565b506080820151816004015560a0820151816005015f6101000a81548160ff021916908315150217905550505060035f8381526020019081526020015f205f9054906101000a900460ff166135bd57600282908060018154018082558091505060019003905f5260205f20015f9091909190915055600160035f8481526020019081526020015f205f6101000a81548160ff0219169083151502179055505b60015f8381526020019081526020015f2081908060018154018082558091505060019003905f5260205f2090600602015f909190919091505f820151815f015f6101000a81548173ffffffffffffffffffffffffffffffffffffffff021916908373ffffffffffffffffffffffffffffffffffffffff160217905550602082015181600101908161364e9190614901565b5060408201518160020155606082015181600301908161366e9190614901565b506080820151816004015560a0820151816005015f6101000a81548160ff021916908315150217905550505060045f3373ffffffffffffffffffffffffffffffffffffffff1673ffffffffffffffffffffffffffffffffffffffff1681526020019081526020015f2083908060018154018082558091505060019003905f5260205f20015f909190919091505560055f8781526020019081526020015f2083908060018154018082558091505060019003905f5260205f20015f90919091909150554260085f3373ffffffffffffffffffffffffffffffffffffffff1673ffffffffffffffffffffffffffffffffffffffff1681526020019081526020015f2081905550853373ffffffffffffffffffffffffffffffffffffffff16847f05c02fa0393bcb04a7ac9e303244d6f8940cbc648ac841bfd0fb31fd94965c14426040516137ba9190613bca565b60405180910390a4505050505050565b6040518060c001604052805f73ffffffffffffffffffffffffffffffffffffffff168152602001606081526020015f8152602001606081526020015f81526020015f151581525090565b5f80fd5b5f80fd5b5f819050919050565b61382e8161381c565b8114613838575f80fd5b50565b5f8135905061384981613825565b92915050565b5f806040838503121561386557613864613814565b5b5f6138728582860161383b565b92505060206138838582860161383b565b9150509250929050565b5f81519050919050565b5f82825260208201905092915050565b5f819050602082019050919050565b5f73ffffffffffffffffffffffffffffffffffffffff82169050919050565b5f6138df826138b6565b9050919050565b6138ef816138d5565b82525050565b5f81519050919050565b5f82825260208201905092915050565b5f5b8381101561392c578082015181840152602081019050613911565b5f8484015250505050565b5f601f19601f8301169050919050565b5f613951826138f5565b61395b81856138ff565b935061396b81856020860161390f565b61397481613937565b840191505092915050565b6139888161381c565b82525050565b5f8115159050919050565b6139a28161398e565b82525050565b5f60c083015f8301516139bd5f8601826138e6565b50602083015184820360208601526139d58282613947565b91505060408301516139ea604086018261397f565b5060608301518482036060860152613a028282613947565b9150506080830151613a17608086018261397f565b5060a0830151613a2a60a0860182613999565b508091505092915050565b5f613a4083836139a8565b905092915050565b5f602082019050919050565b5f613a5e8261388d565b613a688185613897565b935083602082028501613a7a856138a7565b805f5b85811015613ab55784840389528151613a968582613a35565b9450613aa183613a48565b925060208a01995050600181019050613a7d565b50829750879550505050505092915050565b5f6020820190508181035f830152613adf8184613a54565b905092915050565b5f80fd5b5f80fd5b5f80fd5b5f8083601f840112613b0857613b07613ae7565b5b8235905067ffffffffffffffff811115613b2557613b24613aeb565b5b602083019150836001820283011115613b4157613b40613aef565b5b9250929050565b5f8060208385031215613b5e57613b5d613814565b5b5f83013567ffffffffffffffff811115613b7b57613b7a613818565b5b613b8785828601613af3565b92509250509250929050565b613b9c816138d5565b82525050565b5f602082019050613bb55f830184613b93565b92915050565b613bc48161381c565b82525050565b5f602082019050613bdd5f830184613bbb565b92915050565b5f60208284031215613bf857613bf7613814565b5b5f613c058482850161383b565b91505092915050565b5f81519050919050565b5f82825260208201905092915050565b5f819050602082019050919050565b5f613c42838361397f565b60208301905092915050565b5f602082019050919050565b5f613c6482613c0e565b613c6e8185613c18565b9350613c7983613c28565b805f5b83811015613ca9578151613c908882613c37565b9750613c9b83613c4e565b925050600181019050613c7c565b5085935050505092915050565b5f6020820190508181035f830152613cce8184613c5a565b905092915050565b5f80fd5b5f6101008284031215613cf057613cef613cd6565b5b81905092915050565b5f60208284031215613d0e57613d0d613814565b5b5f82013567ffffffffffffffff811115613d2b57613d2a613818565b5b613d3784828501613cda565b91505092915050565b5f60c083015f830151613d555f8601826138e6565b5060208301518482036020860152613d6d8282613947565b9150506040830151613d82604086018261397f565b5060608301518482036060860152613d9a8282613947565b9150506080830151613daf608086018261397f565b5060a0830151613dc260a0860182613999565b508091505092915050565b5f6020820190508181035f830152613de58184613d40565b905092915050565b613df6816138d5565b8114613e00575f80fd5b50565b5f81359050613e1181613ded565b92915050565b5f60208284031215613e2c57613e2b613814565b5b5f613e3984828501613e03565b91505092915050565b5f82825260208201905092915050565b5f613e5c826138f5565b613e668185613e42565b9350613e7681856020860161390f565b613e7f81613937565b840191505092915050565b613e938161398e565b82525050565b5f6060820190508181035f830152613eb18186613e52565b90508181036020830152613ec58185613e52565b9050613ed46040830184613e8a565b949350505050565b5f805f8060408587031215613ef457613ef3613814565b5b5f85013567ffffffffffffffff811115613f1157613f10613818565b5b613f1d87828801613af3565b9450945050602085013567ffffffffffffffff811115613f4057613f3f613818565b5b613f4c87828801613af3565b925092505092959194509250565b5f805f60408486031215613f7157613f70613814565b5b5f613f7e8682870161383b565b935050602084013567ffffffffffffffff811115613f9f57613f9e613818565b5b613fab86828701613af3565b92509250509250925092565b7f506167652073697a65206d7573742062652067726561746572207468616e20305f82015250565b5f613feb602083613e42565b9150613ff682613fb7565b602082019050919050565b5f6020820190508181035f83015261401881613fdf565b9050919050565b7f506167652073697a6520746f6f206c61726765000000000000000000000000005f82015250565b5f614053601383613e42565b915061405e8261401f565b602082019050919050565b5f6020820190508181035f83015261408081614047565b9050919050565b7f4e487b71000000000000000000000000000000000000000000000000000000005f52601160045260245ffd5b5f6140be8261381c565b91506140c98361381c565b92508282026140d78161381c565b915082820484148315176140ee576140ed614087565b5b5092915050565b7f4e487b71000000000000000000000000000000000000000000000000000000005f52604160045260245ffd5b5f61412c8261381c565b91506141378361381c565b925082820190508082111561414f5761414e614087565b5b92915050565b5f61415f8261381c565b915061416a8361381c565b925082820390508181111561418257614181614087565b5b92915050565b7f4e487b71000000000000000000000000000000000000000000000000000000005f52601260045260245ffd5b5f6141bf8261381c565b91506141ca8361381c565b9250826141da576141d9614188565b5b828204905092915050565b7f4e487b71000000000000000000000000000000000000000000000000000000005f52602260045260245ffd5b5f600282049050600182168061422957607f821691505b60208210810361423c5761423b6141e5565b5b50919050565b7f4e487b71000000000000000000000000000000000000000000000000000000005f52603260045260245ffd5b5f6142798261381c565b91507fffffffffffffffffffffffffffffffffffffffffffffffffffffffffffffffff82036142ab576142aa614087565b5b600182019050919050565b7f50726f66696c65206e6f7420666f756e640000000000000000000000000000005f82015250565b5f6142ea601183613e42565b91506142f5826142b6565b602082019050919050565b5f6020820190508181035f830152614317816142de565b9050919050565b5f81905092915050565b828183375f83830152505050565b5f614341838561431e565b935061434e838584614328565b82840190509392505050565b5f614366828486614336565b91508190509392505050565b7f506572696f6420646f6573206e6f7420657869737400000000000000000000005f82015250565b5f6143a6601583613e42565b91506143b182614372565b602082019050919050565b5f6020820190508181035f8301526143d38161439a565b9050919050565b7f4d65737361676520646f6573206e6f74206578697374000000000000000000005f82015250565b5f61440e601683613e42565b9150614419826143da565b602082019050919050565b5f6020820190508181035f83015261443b81614402565b9050919050565b7f4e6f7420796f7572206d657373616765000000000000000000000000000000005f82015250565b5f614476601083613e42565b915061448182614442565b602082019050919050565b5f6020820190508181035f8301526144a38161446a565b9050919050565b5f81905092915050565b5f819050815f5260205f209050919050565b5f81546144d281614212565b6144dc81866144aa565b9450600182165f81146144f6576001811461450b5761453d565b60ff198316865281151582028601935061453d565b614514856144b4565b5f5b8381101561453557815481890152600182019150602081019050614516565b838801955050505b50505092915050565b5f61455182846144c6565b915081905092915050565b7f4d6573736167652063616e6e6f7420626520656d7074790000000000000000005f82015250565b5f614590601783613e42565b915061459b8261455c565b602082019050919050565b5f6020820190508181035f8301526145bd81614584565b9050919050565b7f4d65737361676520746f6f206c6f6e67000000000000000000000000000000005f82015250565b5f6145f8601083613e42565b9150614603826145c4565b602082019050919050565b5f6020820190508181035f830152614625816145ec565b9050919050565b7f506c656173652077616974206265666f726520706f7374696e6720616761696e5f82015250565b5f614660602083613e42565b915061466b8261462c565b602082019050919050565b5f6020820190508181035f83015261468d81614654565b9050919050565b7f50726f66696c65206e6f742073657400000000000000000000000000000000005f82015250565b5f6146c8600f83613e42565b91506146d382614694565b602082019050919050565b5f6020820190508181035f8301526146f5816146bc565b9050919050565b7f50726f66696c65206973206465616374697661746564000000000000000000005f82015250565b5f614730601683613e42565b915061473b826146fc565b602082019050919050565b5f6020820190508181035f83015261475d81614724565b9050919050565b5f819050815f5260205f209050919050565b5f6020601f8301049050919050565b5f82821b905092915050565b5f600883026147c07fffffffffffffffffffffffffffffffffffffffffffffffffffffffffffffffff82614785565b6147ca8683614785565b95508019841693508086168417925050509392505050565b5f819050919050565b5f6148056148006147fb8461381c565b6147e2565b61381c565b9050919050565b5f819050919050565b61481e836147eb565b61483261482a8261480c565b848454614791565b825550505050565b5f90565b61484661483a565b614851818484614815565b505050565b5b81811015614874576148695f8261483e565b600181019050614857565b5050565b601f8211156148b95761488a81614764565b61489384614776565b810160208510156148a2578190505b6148b66148ae85614776565b830182614856565b50505b505050565b5f82821c905092915050565b5f6148d95f19846008026148be565b1980831691505092915050565b5f6148f183836148ca565b9150826002028217905092915050565b61490a826138f5565b67ffffffffffffffff811115614923576149226140f5565b5b61492d8254614212565b614938828285614878565b5f60209050601f831160018114614969575f8415614957578287015190505b61496185826148e6565b8655506149c8565b601f19841661497786614764565b5f5b8281101561499e57848901518255600182019150602085019450602081019050614979565b868310156149bb57848901516149b7601f8916826148ca565b8355505b6001600288020188555050505b505050505050565b5f6149db8385613e42565b93506149e8838584614328565b6149f183613937565b840190509392505050565b5f6040820190508181035f830152614a158185876149d0565b9050614a246020830184613bbb565b949350505050565b7f4e6f742061207265706c79206d657373616765000000000000000000000000005f82015250565b5f614a60601383613e42565b9150614a6b82614a2c565b602082019050919050565b5f6020820190508181035f830152614a8d81614a54565b9050919050565b7f546f6f206d616e79206d657373616765732072657175657374656400000000005f82015250565b5f614ac8601b83613e42565b9150614ad382614a94565b602082019050919050565b5f6020820190508181035f830152614af581614abc565b9050919050565b5f614b068261381c565b91505f8203614b1857614b17614087565b5b600182039050919050565b7f536574206e69636b6e616d6520666972737400000000000000000000000000005f82015250565b5f614b57601283613e42565b9150614b6282614b23565b602082019050919050565b5f6020820190508181035f830152614b8481614b4b565b9050919050565b5f82905092915050565b614b9f8383614b8b565b67ffffffffffffffff811115614bb857614bb76140f5565b5b614bc28254614212565b614bcd828285614878565b5f601f831160018114614bfa575f8415614be8578287013590505b614bf285826148e6565b865550614c59565b601f198416614c0886614764565b5f5b82811015614c2f57848901358255600182019150602085019450602081019050614c0a565b86831015614c4c5784890135614c48601f8916826148ca565b8355505b6001600288020188555050505b50505050505050565b5f8154614c6e81614212565b614c788186613e42565b9450600182165f8114614c925760018114614ca857614cda565b60ff198316865281151560200286019350614cda565b614cb185614764565b5f5b83811015614cd257815481890152600182019150602081019050614cb3565b808801955050505b50505092915050565b5f6040820190508181035f830152614cfb8186614c62565b90508181036020830152614d108184866149d0565b9050949350505050565b7f4e69636b6e616d652063616e6e6f7420626520656d70747900000000000000005f82015250565b5f614d4e601883613e42565b9150614d5982614d1a565b602082019050919050565b5f6020820190508181035f830152614d7b81614d42565b9050919050565b7f4e69636b6e616d6520746f6f206c6f6e670000000000000000000000000000005f82015250565b5f614db6601183613e42565b9150614dc182614d82565b602082019050919050565b5f6020820190508181035f830152614de381614daa565b9050919050565b7f4e69636b6e616d6520616c72656164792074616b656e000000000000000000005f82015250565b5f614e1e601683613e42565b9150614e2982614dea565b602082019050919050565b5f6020820190508181035f830152614e4b81614e12565b9050919050565b5f8154614e5e81614212565b614e68818661431e565b9450600182165f8114614e825760018114614e9757614ec9565b60ff1983168652811515820286019350614ec9565b614ea085614764565b5f5b83811015614ec157815481890152600182019150602081019050614ea2565b838801955050505b50505092915050565b5f614edd8284614e52565b915081905092915050565b5f6040820190508181035f830152614f018186886149d0565b90508181036020830152614f168184866149d0565b905095945050505050565b7f4f726967696e616c206d65737361676520646f6573206e6f74206578697374005f82015250565b5f614f55601f83613e42565b9150614f6082614f21565b602082019050919050565b5f6020820190508181035f830152614f8281614f49565b9050919050565b7f43616e6e6f74207265706c7920746f2064656c65746564206d657373616765005f82015250565b5f614fbd601f83613e42565b9150614fc882614f89565b602082019050919050565b5f6020820190508181035f830152614fea81614fb1565b905091905056fea2646970667358221220881e4d8a77cb367f9b4d47c984208eec7bcad5cec967f08ce9e3da96fb7afd6d64736f6c63430008140033","linkReferences":{}},"methodIdentifiers":{"deactivateProfile()":"20a17bca","getAddressByNickname(string)":"31085c5f","getAvailablePeriods()":"64598fda","getLatestMessages(uint256)":"9e19a1ca","getMessageCount()":"31933916","getMessagesByPeriod(uint256)":"4eca280c","getMessagesBySender(address)":"c6e4d923","getMessagesWithPagination(uint256,uint256)":"0c5d798d","getOriginalMessage(uint256)":"8382ea90","getRepliesForMessage(uint256)":"76bf6941","getUserProfile(address)":"987ee156","markMessageAsDeleted(uint256)":"5eb3a5ac","postMessage(string)":"6630f88f","react((address,uint256,uint256,uint256,address,bytes,bytes,bytes32[]))":"71befe9f","replyToMessage(uint256,string)":"ee72539e","updateAvatar(string)":"9fe958b9","updateProfile(string,string)":"c9d3cc6a"},"id":24}