{"abi":[{"type":"constructor","inputs":[],"stateMutability":"payable"},{"type":"receive","stateMutability":"payable"},{"type":"function","name":"coverDebt","inputs":[],"outputs":[],"stateMutability":"nonpayable"},{"type":"function","name":"deactivateProfile","inputs":[],"outputs":[],"stateMutability":"nonpayable"},{"type":"function","name":"getAddressByNickname","inputs":[{"name":"nickname","type":"string","internalType":"string"}],"outputs":[{"name":"","type":"address","internalType":"address"}],"stateMutability":"view"},{"type":"function","name":"getAvailablePeriods","inputs":[],"outputs":[{"name":"","type":"uint256[]","internalType":"uint256[]"}],"stateMutability":"view"},{"type":"function","name":"getLatestMessages","inputs":[{"name":"count","type":"uint256","internalType":"uint256"}],"outputs":[{"name":"","type":"tuple[]","internalType":"struct ReactiveTwitter.Message[]","components":[{"name":"sender","type":"address","internalType":"address"},{"name":"content","type":"string","internalType":"string"},{"name":"timestamp","type":"uint256","internalType":"uint256"},{"name":"nickname","type":"string","internalType":"string"},{"name":"replyToMessageId","type":"uint256","internalType":"uint256"},{"name":"isDeleted","type":"bool","internalType":"bool"}]}],"stateMutability":"view"},{"type":"function","name":"getMessage","inputs":[{"name":"messageId","type":"uint256","internalType":"uint256"}],"outputs":[{"name":"","type":"tuple","internalType":"struct ReactiveTwitter.Message","components":[{"name":"sender","type":"address","internalType":"address"},{"name":"content","type":"string","internalType":"string"},{"name":"timestamp","type":"uint256","internalType":"uint256"},{"name":"nickname","type":"string","internalType":"string"},{"name":"replyToMessageId","type":"uint256","internalType":"uint256"},{"name":"isDeleted","type":"bool","internalType":"bool"}]}],"stateMutability":"view"},{"type":"function","name":"getMessageCount","inputs":[],"outputs":[{"name":"","type":"uint256","internalType":"uint256"}],"stateMutability":"view"},{"type":"function","name":"getMessagesByPeriod","inputs":[{"name":"period","type":"uint256","internalType":"uint256"}],"outputs":[{"name":"","type":"tuple[]","internalType":"struct ReactiveTwitter.Message[]","components":[{"name":"sender","type":"address","internalType":"address"},{"name":"content","type":"string","internalType":"string"},{"name":"timestamp","type":"uint256","internalType":"uint256"},{"name":"nickname","type":"string","internalType":"string"},{"name":"replyToMessageId","type":"uint256","internalType":"uint256"},{"name":"isDeleted","type":"bool","internalType":"bool"}]}],"stateMutability":"view"},{"type":"function","name":"getMessagesBySender","inputs":[{"name":"sender","type":"address","internalType":"address"}],"outputs":[{"name":"","type":"tuple[]","internalType":"struct ReactiveTwitter.Message[]","components":[{"name":"sender","type":"address","internalType":"address"},{"name":"content","type":"string","internalType":"string"},{"name":"timestamp","type":"uint256","internalType":"uint256"},{"name":"nickname","type":"string","internalType":"string"},{"name":"replyToMessageId","type":"uint256","internalType":"uint256"},{"name":"isDeleted","type":"bool","internalType":"bool"}]}],"stateMutability":"view"},{"type":"function","name":"getMessagesWithPagination","inputs":[{"name":"page","type":"uint256","internalType":"uint256"},{"name":"pageSize","type":"uint256","internalType":"uint256"}],"outputs":[{"name":"","type":"tuple[]","internalType":"struct ReactiveTwitter.Message[]","components":[{"name":"sender","type":"address","internalType":"address"},{"name":"content","type":"string","internalType":"string"},{"name":"timestamp","type":"uint256","internalType":"uint256"},{"name":"nickname","type":"string","internalType":"string"},{"name":"replyToMessageId","type":"uint256","internalType":"uint256"},{"name":"isDeleted","type":"bool","internalType":"bool"}]}],"stateMutability":"view"},{"type":"function","name":"getOriginalMessage","inputs":[{"name":"replyMessageId","type":"uint256","internalType":"uint256"}],"outputs":[{"name":"","type":"tuple","internalType":"struct ReactiveTwitter.Message","components":[{"name":"sender","type":"address","internalType":"address"},{"name":"content","type":"string","internalType":"string"},{"name":"timestamp","type":"uint256","internalType":"uint256"},{"name":"nickname","type":"string","internalType":"string"},{"name":"replyToMessageId","type":"uint256","internalType":"uint256"},{"name":"isDeleted","type":"bool","internalType":"bool"}]}],"stateMutability":"view"},{"type":"function","name":"getOwner","inputs":[],"outputs":[{"name":"","type":"address","internalType":"address"}],"stateMutability":"view"},{"type":"function","name":"getParameters","inputs":[],"outputs":[{"name":"_maxMessageLength","type":"uint256","internalType":"uint256"},{"name":"_messageCooldown","type":"uint256","internalType":"uint256"},{"name":"_maxReturnCount","type":"uint256","internalType":"uint256"},{"name":"_maxActiveMessages","type":"uint256","internalType":"uint256"}],"stateMutability":"view"},{"type":"function","name":"getRepliesForMessage","inputs":[{"name":"messageId","type":"uint256","internalType":"uint256"}],"outputs":[{"name":"","type":"tuple[]","internalType":"struct ReactiveTwitter.Message[]","components":[{"name":"sender","type":"address","internalType":"address"},{"name":"content","type":"string","internalType":"string"},{"name":"timestamp","type":"uint256","internalType":"uint256"},{"name":"nickname","type":"string","internalType":"string"},{"name":"replyToMessageId","type":"uint256","internalType":"uint256"},{"name":"isDeleted","type":"bool","internalType":"bool"}]}],"stateMutability":"view"},{"type":"function","name":"getTotalActiveMessages","inputs":[],"outputs":[{"name":"","type":"uint256","internalType":"uint256"}],"stateMutability":"view"},{"type":"function","name":"getUserProfile","inputs":[{"name":"user","type":"address","internalType":"address"}],"outputs":[{"name":"nickname","type":"string","internalType":"string"},{"name":"avatarCode","type":"string","internalType":"string"},{"name":"isActive","type":"bool","internalType":"bool"}],"stateMutability":"view"},{"type":"function","name":"markMessageAsDeleted","inputs":[{"name":"messageId","type":"uint256","internalType":"uint256"}],"outputs":[],"stateMutability":"nonpayable"},{"type":"function","name":"pay","inputs":[{"name":"amount","type":"uint256","internalType":"uint256"}],"outputs":[],"stateMutability":"nonpayable"},{"type":"function","name":"postMessage","inputs":[{"name":"content","type":"string","internalType":"string"}],"outputs":[],"stateMutability":"nonpayable"},{"type":"function","name":"react","inputs":[{"name":"","type":"tuple","internalType":"struct IReactive.LogRecord","components":[{"name":"chain_id","type":"uint256","internalType":"uint256"},{"name":"_contract","type":"address","internalType":"address"},{"name":"topic_0","type":"uint256","internalType":"uint256"},{"name":"topic_1","type":"uint256","internalType":"uint256"},{"name":"topic_2","type":"uint256","internalType":"uint256"},{"name":"topic_3","type":"uint256","internalType":"uint256"},{"name":"data","type":"bytes","internalType":"bytes"},{"name":"block_number","type":"uint256","internalType":"uint256"},{"name":"op_code","type":"uint256","internalType":"uint256"},{"name":"block_hash","type":"uint256","internalType":"uint256"},{"name":"tx_hash","type":"uint256","internalType":"uint256"},{"name":"log_index","type":"uint256","internalType":"uint256"}]}],"outputs":[],"stateMutability":"nonpayable"},{"type":"function","name":"replyToMessage","inputs":[{"name":"replyToMessageId","type":"uint256","internalType":"uint256"},{"name":"content","type":"string","internalType":"string"}],"outputs":[],"stateMutability":"nonpayable"},{"type":"function","name":"transferOwnership","inputs":[{"name":"newOwner","type":"address","internalType":"address"}],"outputs":[],"stateMutability":"nonpayable"},{"type":"function","name":"updateAvatar","inputs":[{"name":"avatarCode","type":"string","internalType":"string"}],"outputs":[],"stateMutability":"nonpayable"},{"type":"function","name":"updateParameters","inputs":[{"name":"newMaxMessageLength","type":"uint256","internalType":"uint256"},{"name":"newMessageCooldown","type":"uint256","internalType":"uint256"},{"name":"newMaxReturnCount","type":"uint256","internalType":"uint256"},{"name":"newMaxActiveMessages","type":"uint256","internalType":"uint256"}],"outputs":[],"stateMutability":"nonpayable"},{"type":"function","name":"updateProfile","inputs":[{"name":"nickname","type":"string","internalType":"string"},{"name":"avatarCode","type":"string","internalType":"string"}],"outputs":[],"stateMutability":"nonpayable"},{"type":"event","name":"Callback","inputs":[{"name":"chain_id","type":"uint256","indexed":true,"internalType":"uint256"},{"name":"_contract","type":"address","indexed":true,"internalType":"address"},{"name":"gas_limit","type":"uint64","indexed":true,"internalType":"uint64"},{"name":"payload","type":"bytes","indexed":false,"internalType":"bytes"}],"anonymous":false},{"type":"event","name":"MessageDeleted","inputs":[{"name":"messageId","type":"uint256","indexed":true,"internalType":"uint256"},{"name":"sender","type":"address","indexed":true,"internalType":"address"}],"anonymous":false},{"type":"event","name":"MessageSent","inputs":[{"name":"messageId","type":"uint256","indexed":true,"internalType":"uint256"},{"name":"sender","type":"address","indexed":true,"internalType":"address"},{"name":"content","type":"string","indexed":false,"internalType":"string"},{"name":"timestamp","type":"uint256","indexed":false,"internalType":"uint256"}],"anonymous":false},{"type":"event","name":"OldMessagesDeleted","inputs":[{"name":"count","type":"uint256","indexed":false,"internalType":"uint256"}],"anonymous":false},{"type":"event","name":"ParameterUpdated","inputs":[{"name":"paramName","type":"string","indexed":false,"internalType":"string"},{"name":"newValue","type":"uint256","indexed":false,"internalType":"uint256"}],"anonymous":false},{"type":"event","name":"ProfileDeactivated","inputs":[{"name":"user","type":"address","indexed":true,"internalType":"address"}],"anonymous":false},{"type":"event","name":"ProfileUpdated","inputs":[{"name":"user","type":"address","indexed":true,"internalType":"address"},{"name":"nickname","type":"string","indexed":false,"internalType":"string"},{"name":"avatarCode","type":"string","indexed":false,"internalType":"string"}],"anonymous":false},{"type":"event","name":"ReplyMessageSent","inputs":[{"name":"messageId","type":"uint256","indexed":true,"internalType":"uint256"},{"name":"sender","type":"address","indexed":true,"internalType":"address"},{"name":"replyToMessageId","type":"uint256","indexed":true,"internalType":"uint256"},{"name":"timestamp","type":"uint256","indexed":false,"internalType":"uint256"}],"anonymous":false}],"bytecode":{"object":"0x6080604052610300600355603c60045560326005556101f460065562ffffff600260016101000a81548173ffffffffffffffffffffffffffffffffffffffff021916908373ffffffffffffffffffffffffffffffffffffffff16021790555f806101000a81548173ffffffffffffffffffffffffffffffffffffffff021916908373ffffffffffffffffffffffffffffffffffffffff160217905550620000af62ffffff620002f160201b60201c565b620000bf6200034860201b60201c565b3360075f6101000a81548173ffffffffffffffffffffffffffffffffffffffff021916908373ffffffffffffffffffffffffffffffffffffffff1602179055506040518060c001604052805f73ffffffffffffffffffffffffffffffffffffffff16815260200160405180602001604052805f815250815260200142815260200160405180602001604052805f81525081526020015f81526020016001151581525060085f8081526020019081526020015f205f820151815f015f6101000a81548173ffffffffffffffffffffffffffffffffffffffff021916908373ffffffffffffffffffffffffffffffffffffffff1602179055506020820151816001019081620001cd9190620005d2565b50604082015181600201556060820151816003019081620001ef9190620005d2565b506080820151816004015560a0820151816005015f6101000a81548160ff021916908315150217905550905050600a5f8081526020019081526020015f205f908060018154018082558091505060019003905f5260205f20015f9091909190915055600c5f908060018154018082558091505060019003905f5260205f20015f90919091909150556001600d5f8081526020019081526020015f205f6101000a81548160ff02191690831515021790555060016009819055505f60158190555060165f908060018154018082558091505060019003905f5260205f20015f90919091909150555f60175f8081526020019081526020015f2081905550620006b6565b6001805f8373ffffffffffffffffffffffffffffffffffffffff1673ffffffffffffffffffffffffffffffffffffffff1681526020019081526020015f205f6101000a81548160ff02191690831515021790555050565b5f62ffffff3b90505f811460025f6101000a81548160ff02191690831515021790555050565b5f81519050919050565b7f4e487b71000000000000000000000000000000000000000000000000000000005f52604160045260245ffd5b7f4e487b71000000000000000000000000000000000000000000000000000000005f52602260045260245ffd5b5f6002820490506001821680620003ea57607f821691505b6020821081036200040057620003ff620003a5565b5b50919050565b5f819050815f5260205f209050919050565b5f6020601f8301049050919050565b5f82821b905092915050565b5f60088302620004647fffffffffffffffffffffffffffffffffffffffffffffffffffffffffffffffff8262000427565b62000470868362000427565b95508019841693508086168417925050509392505050565b5f819050919050565b5f819050919050565b5f620004ba620004b4620004ae8462000488565b62000491565b62000488565b9050919050565b5f819050919050565b620004d5836200049a565b620004ed620004e482620004c1565b84845462000433565b825550505050565b5f90565b62000503620004f5565b62000510818484620004ca565b505050565b5b8181101562000537576200052b5f82620004f9565b60018101905062000516565b5050565b601f8211156200058657620005508162000406565b6200055b8462000418565b810160208510156200056b578190505b620005836200057a8562000418565b83018262000515565b50505b505050565b5f82821c905092915050565b5f620005a85f19846008026200058b565b1980831691505092915050565b5f620005c2838362000597565b9150826002028217905092915050565b620005dd826200036e565b67ffffffffffffffff811115620005f957620005f862000378565b5b620006058254620003d2565b620006128282856200053b565b5f60209050601f83116001811462000648575f841562000633578287015190505b6200063f8582620005b5565b865550620006ae565b601f198416620006588662000406565b5f5b8281101562000681578489015182556001820191506020850194506020810190506200065a565b86831015620006a157848901516200069d601f89168262000597565b8355505b6001600288020188555050505b505050505050565b61621f80620006c45f395ff3fe608060405260043610610169575f3560e01c806386f79edb116100d0578063c290d69111610089578063c9d3cc6a11610063578063c9d3cc6a1461055b578063ee1eab4f14610583578063ee72539e146105ab578063f2fde38b146105d357610170565b8063c290d691146104cd578063c6e4d923146104f5578063c982923f1461053157610170565b806386f79edb14610398578063893d20e8146103d4578063987ee156146103fe5780639e19a1ca1461043c5780639fe958b914610478578063a5ea11da146104a057610170565b80635eb3a5ac116101225780635eb3a5ac1461029057806364598fda146102b85780636630f88f146102e257806376bf69411461030a5780637a90b990146103465780638382ea901461035c57610170565b80630c5d798d146101745780630d152c2c146101b057806320a17bca146101d857806331085c5f146101ee578063319339161461022a5780634eca280c1461025457610170565b3661017057005b5f80fd5b34801561017f575f80fd5b5061019a600480360381019061019591906143c1565b6105fb565b6040516101a79190614639565b60405180910390f35b3480156101bb575f80fd5b506101d660048036038101906101d1919061467c565b610a22565b005b3480156101e3575f80fd5b506101ec610a73565b005b3480156101f9575f80fd5b50610214600480360381019061020f9190614724565b610d17565b604051610221919061477e565b60405180910390f35b348015610235575f80fd5b5061023e610d60565b60405161024b91906147a6565b60405180910390f35b34801561025f575f80fd5b5061027a600480360381019061027591906147bf565b610d69565b6040516102879190614639565b60405180910390f35b34801561029b575f80fd5b506102b660048036038101906102b191906147bf565b6110c5565b005b3480156102c3575f80fd5b506102cc6112b1565b6040516102d99190614892565b60405180910390f35b3480156102ed575f80fd5b5061030860048036038101906103039190614724565b611307565b005b348015610315575f80fd5b50610330600480360381019061032b91906147bf565b611a00565b60405161033d9190614639565b60405180910390f35b348015610351575f80fd5b5061035a611d43565b005b348015610367575f80fd5b50610382600480360381019061037d91906147bf565b611e0a565b60405161038f919061493f565b60405180910390f35b3480156103a3575f80fd5b506103be60048036038101906103b991906147bf565b612227565b6040516103cb919061493f565b60405180910390f35b3480156103df575f80fd5b506103e8612438565b6040516103f5919061477e565b60405180910390f35b348015610409575f80fd5b50610424600480360381019061041f9190614989565b612460565b60405161043393929190614a0b565b60405180910390f35b348015610447575f80fd5b50610462600480360381019061045d91906147bf565b61260e565b60405161046f9190614639565b60405180910390f35b348015610483575f80fd5b5061049e60048036038101906104999190614724565b612949565b005b3480156104ab575f80fd5b506104b4612aba565b6040516104c49493929190614a4e565b60405180910390f35b3480156104d8575f80fd5b506104f360048036038101906104ee91906147bf565b612ad8565b005b348015610500575f80fd5b5061051b60048036038101906105169190614989565b612b6e565b6040516105289190614639565b60405180910390f35b34801561053c575f80fd5b50610545612ec5565b60405161055291906147a6565b60405180910390f35b348015610566575f80fd5b50610581600480360381019061057c9190614a91565b612ece565b005b34801561058e575f80fd5b506105a960048036038101906105a49190614b0f565b6132e3565b005b3480156105b6575f80fd5b506105d160048036038101906105cc9190614b73565b613491565b005b3480156105de575f80fd5b506105f960048036038101906105f49190614989565b613c27565b005b60605f821161063f576040517f08c379a000000000000000000000000000000000000000000000000000000000815260040161063690614c1a565b60405180910390fd5b600554821115610684576040517f08c379a000000000000000000000000000000000000000000000000000000000815260040161067b90614c82565b60405180910390fd5b5f82846106919190614ccd565b905060155481106106f8575f67ffffffffffffffff8111156106b6576106b5614d0e565b5b6040519080825280602002602001820160405280156106ef57816020015b6106dc61433c565b8152602001906001900390816106d45790505b50915050610a1c565b5f839050601554818361070b9190614d3b565b1115610722578160155461071f9190614d6e565b90505b5f8167ffffffffffffffff81111561073d5761073c614d0e565b5b60405190808252806020026020018201604052801561077657816020015b61076361433c565b81526020019060019003908161075b5790505b5090505f805f600160168054905061078e9190614daa565b90505b5f81121580156107a057508482105b15610a12575f601682815481106107ba576107b9614dea565b5b905f5260205f20015490505f60085f8381526020019081526020015f206040518060c00160405290815f82015f9054906101000a900473ffffffffffffffffffffffffffffffffffffffff1673ffffffffffffffffffffffffffffffffffffffff1673ffffffffffffffffffffffffffffffffffffffff16815260200160018201805461084690614e44565b80601f016020809104026020016040519081016040528092919081815260200182805461087290614e44565b80156108bd5780601f10610894576101008083540402835291602001916108bd565b820191905f5260205f20905b8154815290600101906020018083116108a057829003601f168201915b50505050508152602001600282015481526020016003820180546108e090614e44565b80601f016020809104026020016040519081016040528092919081815260200182805461090c90614e44565b80156109575780601f1061092e57610100808354040283529160200191610957565b820191905f5260205f20905b81548152906001019060200180831161093a57829003601f168201915b5050505050815260200160048201548152602001600582015f9054906101000a900460ff16151515158152505090505f816080015114801561099b57508060a00151155b156109e4578785106109d557808685815181106109bb576109ba614dea565b5b602002602001018190525083806109d190614e74565b9450505b84806109e090614e74565b9550505b86886109f09190614d3b565b85106109fd575050610a12565b50508080610a0a90614ebb565b915050610791565b5082955050505050505b92915050565b60025f9054906101000a900460ff16610a70576040517f08c379a0000000000000000000000000000000000000000000000000000000008152600401610a6790614f4c565b60405180910390fd5b50565b5f60135f3373ffffffffffffffffffffffffffffffffffffffff1673ffffffffffffffffffffffffffffffffffffffff1681526020019081526020015f205f018054610abe90614e44565b905011610b00576040517f08c379a0000000000000000000000000000000000000000000000000000000008152600401610af790614fb4565b60405180910390fd5b5f60135f3373ffffffffffffffffffffffffffffffffffffffff1673ffffffffffffffffffffffffffffffffffffffff1681526020019081526020015f205f018054610b4b90614e44565b80601f0160208091040260200160405190810160405280929190818152602001828054610b7790614e44565b8015610bc25780601f10610b9957610100808354040283529160200191610bc2565b820191905f5260205f20905b815481529060010190602001808311610ba557829003601f168201915b505050505090503373ffffffffffffffffffffffffffffffffffffffff16601282604051610bf0919061500c565b90815260200160405180910390205f9054906101000a900473ffffffffffffffffffffffffffffffffffffffff1673ffffffffffffffffffffffffffffffffffffffff1603610c7a57601281604051610c49919061500c565b90815260200160405180910390205f6101000a81549073ffffffffffffffffffffffffffffffffffffffff02191690555b5f60135f3373ffffffffffffffffffffffffffffffffffffffff1673ffffffffffffffffffffffffffffffffffffffff1681526020019081526020015f206002015f6101000a81548160ff0219169083151502179055503373ffffffffffffffffffffffffffffffffffffffff167f54a43e4629a715b7e7723ff4f7400f2b5804224e3c8fcf6c96d0bbb46ae02c9360405160405180910390a250565b5f60128383604051610d2a929190615054565b90815260200160405180910390205f9054906101000a900473ffffffffffffffffffffffffffffffffffffffff16905092915050565b5f600954905090565b6060600d5f8381526020019081526020015f205f9054906101000a900460ff16610dc8576040517f08c379a0000000000000000000000000000000000000000000000000000000008152600401610dbf906150b6565b60405180910390fd5b5f600a5f8481526020019081526020015f2090505f600b5f8581526020019081526020015f205490505f8167ffffffffffffffff811115610e0c57610e0b614d0e565b5b604051908082528060200260200182016040528015610e4557816020015b610e3261433c565b815260200190600190039081610e2a5790505b5090505f8203610e5a578093505050506110c0565b5f805b848054905081108015610e6f57508382105b156110b7575f858281548110610e8857610e87614dea565b5b905f5260205f200154905060085f8281526020019081526020015f206005015f9054906101000a900460ff166110a35760085f8281526020019081526020015f206040518060c00160405290815f82015f9054906101000a900473ffffffffffffffffffffffffffffffffffffffff1673ffffffffffffffffffffffffffffffffffffffff1673ffffffffffffffffffffffffffffffffffffffff168152602001600182018054610f3890614e44565b80601f0160208091040260200160405190810160405280929190818152602001828054610f6490614e44565b8015610faf5780601f10610f8657610100808354040283529160200191610faf565b820191905f5260205f20905b815481529060010190602001808311610f9257829003601f168201915b5050505050815260200160028201548152602001600382018054610fd290614e44565b80601f0160208091040260200160405190810160405280929190818152602001828054610ffe90614e44565b80156110495780601f1061102057610100808354040283529160200191611049565b820191905f5260205f20905b81548152906001019060200180831161102c57829003601f168201915b5050505050815260200160048201548152602001600582015f9054906101000a900460ff16151515158152505084848151811061108957611088614dea565b5b6020026020010181905250828061109f90614e74565b9350505b5080806110af90614e74565b915050610e5d565b50819450505050505b919050565b6009548110611109576040517f08c379a00000000000000000000000000000000000000000000000000000000081526004016111009061511e565b60405180910390fd5b3373ffffffffffffffffffffffffffffffffffffffff1660085f8381526020019081526020015f205f015f9054906101000a900473ffffffffffffffffffffffffffffffffffffffff1673ffffffffffffffffffffffffffffffffffffffff1614806111c1575060075f9054906101000a900473ffffffffffffffffffffffffffffffffffffffff1673ffffffffffffffffffffffffffffffffffffffff163373ffffffffffffffffffffffffffffffffffffffff16145b611200576040517f08c379a00000000000000000000000000000000000000000000000000000000081526004016111f7906151ac565b60405180910390fd5b60085f8281526020019081526020015f206005015f9054906101000a900460ff1615611261576040517f08c379a000000000000000000000000000000000000000000000000000000000815260040161125890615214565b60405180910390fd5b61126a81613d67565b3373ffffffffffffffffffffffffffffffffffffffff16817ffb2787660bc2cbdfc289209f8fc92a07a17109a8f520025df91f322e51da794760405160405180910390a350565b6060600c8054806020026020016040519081016040528092919081815260200182805480156112fd57602002820191905f5260205f20905b8154815260200190600101908083116112e9575b5050505050905090565b5f828290501161134c576040517f08c379a00000000000000000000000000000000000000000000000000000000081526004016113439061527c565b60405180910390fd5b600354828290501115611394576040517f08c379a000000000000000000000000000000000000000000000000000000000815260040161138b906152e4565b60405180910390fd5b60045460145f3373ffffffffffffffffffffffffffffffffffffffff1673ffffffffffffffffffffffffffffffffffffffff1681526020019081526020015f2054426113e09190614d6e565b1015611421576040517f08c379a00000000000000000000000000000000000000000000000000000000081526004016114189061534c565b60405180910390fd5b5f60135f3373ffffffffffffffffffffffffffffffffffffffff1673ffffffffffffffffffffffffffffffffffffffff1681526020019081526020015f205f01805461146c90614e44565b9050116114ae576040517f08c379a00000000000000000000000000000000000000000000000000000000081526004016114a5906153b4565b60405180910390fd5b60135f3373ffffffffffffffffffffffffffffffffffffffff1673ffffffffffffffffffffffffffffffffffffffff1681526020019081526020015f206002015f9054906101000a900460ff1661153a576040517f08c379a00000000000000000000000000000000000000000000000000000000081526004016115319061541c565b60405180910390fd5b600654601554106115505761154f6001613f0d565b5b5f600954905060095f81548092919061156890614e74565b91905055505f60648261157b9190615467565b90506040518060c001604052803373ffffffffffffffffffffffffffffffffffffffff16815260200185858080601f0160208091040260200160405190810160405280939291908181526020018383808284375f81840152601f19601f82011690508083019250505050505050815260200142815260200160135f3373ffffffffffffffffffffffffffffffffffffffff1673ffffffffffffffffffffffffffffffffffffffff1681526020019081526020015f205f01805461163d90614e44565b80601f016020809104026020016040519081016040528092919081815260200182805461166990614e44565b80156116b45780601f1061168b576101008083540402835291602001916116b4565b820191905f5260205f20905b81548152906001019060200180831161169757829003601f168201915b505050505081526020015f81526020015f151581525060085f8481526020019081526020015f205f820151815f015f6101000a81548173ffffffffffffffffffffffffffffffffffffffff021916908373ffffffffffffffffffffffffffffffffffffffff16021790555060208201518160010190816117349190615634565b506040820151816002015560608201518160030190816117549190615634565b506080820151816004015560a0820151816005015f6101000a81548160ff021916908315150217905550905050600d5f8281526020019081526020015f205f9054906101000a900460ff166117f357600c81908060018154018082558091505060019003905f5260205f20015f90919091909150556001600d5f8381526020019081526020015f205f6101000a81548160ff0219169083151502179055505b600a5f8281526020019081526020015f2082908060018154018082558091505060019003905f5260205f20015f9091909190915055600b5f8281526020019081526020015f205f81548092919061184990614e74565b9190505550600e5f3373ffffffffffffffffffffffffffffffffffffffff1673ffffffffffffffffffffffffffffffffffffffff1681526020019081526020015f2082908060018154018082558091505060019003905f5260205f20015f9091909190915055600f5f3373ffffffffffffffffffffffffffffffffffffffff1673ffffffffffffffffffffffffffffffffffffffff1681526020019081526020015f205f8154809291906118fc90614e74565b9190505550601682908060018154018082558091505060019003905f5260205f20015f909190919091505560016016805490506119399190614d6e565b60175f8481526020019081526020015f208190555060155f81548092919061196090614e74565b91905055504260145f3373ffffffffffffffffffffffffffffffffffffffff1673ffffffffffffffffffffffffffffffffffffffff1681526020019081526020015f20819055503373ffffffffffffffffffffffffffffffffffffffff16827f1f8960ec3ee7087d0552bc042c456f22e713898e21204c04f5885b3942bb07908686426040516119f29392919061572f565b60405180910390a350505050565b60606009548210611a46576040517f08c379a0000000000000000000000000000000000000000000000000000000008152600401611a3d9061511e565b60405180910390fd5b5f60105f8481526020019081526020015f2090505f60115f8581526020019081526020015f205490505f8167ffffffffffffffff811115611a8a57611a89614d0e565b5b604051908082528060200260200182016040528015611ac357816020015b611ab061433c565b815260200190600190039081611aa85790505b5090505f8203611ad857809350505050611d3e565b5f805b848054905081108015611aed57508382105b15611d35575f858281548110611b0657611b05614dea565b5b905f5260205f200154905060085f8281526020019081526020015f206005015f9054906101000a900460ff16611d215760085f8281526020019081526020015f206040518060c00160405290815f82015f9054906101000a900473ffffffffffffffffffffffffffffffffffffffff1673ffffffffffffffffffffffffffffffffffffffff1673ffffffffffffffffffffffffffffffffffffffff168152602001600182018054611bb690614e44565b80601f0160208091040260200160405190810160405280929190818152602001828054611be290614e44565b8015611c2d5780601f10611c0457610100808354040283529160200191611c2d565b820191905f5260205f20905b815481529060010190602001808311611c1057829003601f168201915b5050505050815260200160028201548152602001600382018054611c5090614e44565b80601f0160208091040260200160405190810160405280929190818152602001828054611c7c90614e44565b8015611cc75780601f10611c9e57610100808354040283529160200191611cc7565b820191905f5260205f20905b815481529060010190602001808311611caa57829003601f168201915b5050505050815260200160048201548152602001600582015f9054906101000a900460ff161515151581525050848481518110611d0757611d06614dea565b5b60200260200101819052508280611d1d90614e74565b9350505b508080611d2d90614e74565b915050611adb565b50819450505050505b919050565b5f805f9054906101000a900473ffffffffffffffffffffffffffffffffffffffff1673ffffffffffffffffffffffffffffffffffffffff16639b6c56ec306040518263ffffffff1660e01b8152600401611d9d919061477e565b602060405180830381865afa158015611db8573d5f803e3d5ffd5b505050506040513d601f19601f82011682018060405250810190611ddc9190615773565b9050611e075f8054906101000a900473ffffffffffffffffffffffffffffffffffffffff168261403b565b50565b611e1261433c565b6009548210611e56576040517f08c379a0000000000000000000000000000000000000000000000000000000008152600401611e4d9061511e565b60405180910390fd5b5f60085f8481526020019081526020015f206040518060c00160405290815f82015f9054906101000a900473ffffffffffffffffffffffffffffffffffffffff1673ffffffffffffffffffffffffffffffffffffffff1673ffffffffffffffffffffffffffffffffffffffff168152602001600182018054611ed790614e44565b80601f0160208091040260200160405190810160405280929190818152602001828054611f0390614e44565b8015611f4e5780601f10611f2557610100808354040283529160200191611f4e565b820191905f5260205f20905b815481529060010190602001808311611f3157829003601f168201915b5050505050815260200160028201548152602001600382018054611f7190614e44565b80601f0160208091040260200160405190810160405280929190818152602001828054611f9d90614e44565b8015611fe85780601f10611fbf57610100808354040283529160200191611fe8565b820191905f5260205f20905b815481529060010190602001808311611fcb57829003601f168201915b5050505050815260200160048201548152602001600582015f9054906101000a900460ff16151515158152505090505f81608001511161205d576040517f08c379a0000000000000000000000000000000000000000000000000000000008152600401612054906157e8565b60405180910390fd5b60085f826080015181526020019081526020015f206040518060c00160405290815f82015f9054906101000a900473ffffffffffffffffffffffffffffffffffffffff1673ffffffffffffffffffffffffffffffffffffffff1673ffffffffffffffffffffffffffffffffffffffff1681526020016001820180546120e190614e44565b80601f016020809104026020016040519081016040528092919081815260200182805461210d90614e44565b80156121585780601f1061212f57610100808354040283529160200191612158565b820191905f5260205f20905b81548152906001019060200180831161213b57829003601f168201915b505050505081526020016002820154815260200160038201805461217b90614e44565b80601f01602080910402602001604051908101604052809291908181526020018280546121a790614e44565b80156121f25780601f106121c9576101008083540402835291602001916121f2565b820191905f5260205f20905b8154815290600101906020018083116121d557829003601f168201915b5050505050815260200160048201548152602001600582015f9054906101000a900460ff161515151581525050915050919050565b61222f61433c565b6009548210612273576040517f08c379a000000000000000000000000000000000000000000000000000000000815260040161226a9061511e565b60405180910390fd5b60085f8381526020019081526020015f206040518060c00160405290815f82015f9054906101000a900473ffffffffffffffffffffffffffffffffffffffff1673ffffffffffffffffffffffffffffffffffffffff1673ffffffffffffffffffffffffffffffffffffffff1681526020016001820180546122f390614e44565b80601f016020809104026020016040519081016040528092919081815260200182805461231f90614e44565b801561236a5780601f106123415761010080835404028352916020019161236a565b820191905f5260205f20905b81548152906001019060200180831161234d57829003601f168201915b505050505081526020016002820154815260200160038201805461238d90614e44565b80601f01602080910402602001604051908101604052809291908181526020018280546123b990614e44565b80156124045780601f106123db57610100808354040283529160200191612404565b820191905f5260205f20905b8154815290600101906020018083116123e757829003601f168201915b5050505050815260200160048201548152602001600582015f9054906101000a900460ff1615151515815250509050919050565b5f60075f9054906101000a900473ffffffffffffffffffffffffffffffffffffffff16905090565b6060805f8060135f8673ffffffffffffffffffffffffffffffffffffffff1673ffffffffffffffffffffffffffffffffffffffff1681526020019081526020015f206040518060800160405290815f820180546124bc90614e44565b80601f01602080910402602001604051908101604052809291908181526020018280546124e890614e44565b80156125335780601f1061250a57610100808354040283529160200191612533565b820191905f5260205f20905b81548152906001019060200180831161251657829003601f168201915b5050505050815260200160018201805461254c90614e44565b80601f016020809104026020016040519081016040528092919081815260200182805461257890614e44565b80156125c35780601f1061259a576101008083540402835291602001916125c3565b820191905f5260205f20905b8154815290600101906020018083116125a657829003601f168201915b50505050508152602001600282015f9054906101000a900460ff161515151581526020016003820154815250509050805f015181602001518260400151935093509350509193909250565b6060600554821115612655576040517f08c379a000000000000000000000000000000000000000000000000000000000815260040161264c90615850565b60405180910390fd5b5f601554831061266757601554612669565b825b90505f8167ffffffffffffffff81111561268657612685614d0e565b5b6040519080825280602002602001820160405280156126bf57816020015b6126ac61433c565b8152602001906001900390816126a45790505b5090505f82036126d3578092505050612944565b5f8060016016805490506126e79190614daa565b90505b5f81121580156126f957508382105b1561293c575f6016828154811061271357612712614dea565b5b905f5260205f20015490505f60085f8381526020019081526020015f206040518060c00160405290815f82015f9054906101000a900473ffffffffffffffffffffffffffffffffffffffff1673ffffffffffffffffffffffffffffffffffffffff1673ffffffffffffffffffffffffffffffffffffffff16815260200160018201805461279f90614e44565b80601f01602080910402602001604051908101604052809291908181526020018280546127cb90614e44565b80156128165780601f106127ed57610100808354040283529160200191612816565b820191905f5260205f20905b8154815290600101906020018083116127f957829003601f168201915b505050505081526020016002820154815260200160038201805461283990614e44565b80601f016020809104026020016040519081016040528092919081815260200182805461286590614e44565b80156128b05780601f10612887576101008083540402835291602001916128b0565b820191905f5260205f20905b81548152906001019060200180831161289357829003601f168201915b5050505050815260200160048201548152602001600582015f9054906101000a900460ff16151515158152505090505f81608001511480156128f457508060a00151155b15612927578085858151811061290d5761290c614dea565b5b6020026020010181905250838061292390614e74565b9450505b5050808061293490614ebb565b9150506126ea565b508193505050505b919050565b5f60135f3373ffffffffffffffffffffffffffffffffffffffff1673ffffffffffffffffffffffffffffffffffffffff1681526020019081526020015f205f01805461299490614e44565b9050116129d6576040517f08c379a00000000000000000000000000000000000000000000000000000000081526004016129cd906158b8565b60405180910390fd5b818160135f3373ffffffffffffffffffffffffffffffffffffffff1673ffffffffffffffffffffffffffffffffffffffff1681526020019081526020015f206001019182612a259291906158e0565b503373ffffffffffffffffffffffffffffffffffffffff167f6eb3a1c6a4675ba92d44e090515b1ceea358f26565d2854df0c99c3f5eaf985060135f3373ffffffffffffffffffffffffffffffffffffffff1673ffffffffffffffffffffffffffffffffffffffff1681526020019081526020015f205f018484604051612aae93929190615a2e565b60405180910390a25050565b5f805f80600354600454600554600654935093509350935090919293565b60015f3373ffffffffffffffffffffffffffffffffffffffff1673ffffffffffffffffffffffffffffffffffffffff1681526020019081526020015f205f9054906101000a900460ff16612b61576040517f08c379a0000000000000000000000000000000000000000000000000000000008152600401612b5890615aaf565b60405180910390fd5b612b6b338261403b565b50565b60605f600e5f8473ffffffffffffffffffffffffffffffffffffffff1673ffffffffffffffffffffffffffffffffffffffff1681526020019081526020015f2090505f600f5f8573ffffffffffffffffffffffffffffffffffffffff1673ffffffffffffffffffffffffffffffffffffffff1681526020019081526020015f205490505f8167ffffffffffffffff811115612c0c57612c0b614d0e565b5b604051908082528060200260200182016040528015612c4557816020015b612c3261433c565b815260200190600190039081612c2a5790505b5090505f8203612c5a57809350505050612ec0565b5f805b848054905081108015612c6f57508382105b15612eb7575f858281548110612c8857612c87614dea565b5b905f5260205f200154905060085f8281526020019081526020015f206005015f9054906101000a900460ff16612ea35760085f8281526020019081526020015f206040518060c00160405290815f82015f9054906101000a900473ffffffffffffffffffffffffffffffffffffffff1673ffffffffffffffffffffffffffffffffffffffff1673ffffffffffffffffffffffffffffffffffffffff168152602001600182018054612d3890614e44565b80601f0160208091040260200160405190810160405280929190818152602001828054612d6490614e44565b8015612daf5780601f10612d8657610100808354040283529160200191612daf565b820191905f5260205f20905b815481529060010190602001808311612d9257829003601f168201915b5050505050815260200160028201548152602001600382018054612dd290614e44565b80601f0160208091040260200160405190810160405280929190818152602001828054612dfe90614e44565b8015612e495780601f10612e2057610100808354040283529160200191612e49565b820191905f5260205f20905b815481529060010190602001808311612e2c57829003601f168201915b5050505050815260200160048201548152602001600582015f9054906101000a900460ff161515151581525050848481518110612e8957612e88614dea565b5b60200260200101819052508280612e9f90614e74565b9350505b508080612eaf90614e74565b915050612c5d565b50819450505050505b919050565b5f601554905090565b5f8484905011612f13576040517f08c379a0000000000000000000000000000000000000000000000000000000008152600401612f0a90615b17565b60405180910390fd5b6020848490501115612f5a576040517f08c379a0000000000000000000000000000000000000000000000000000000008152600401612f5190615b7f565b60405180910390fd5b612fa684848080601f0160208091040260200160405190810160405280939291908181526020018383808284375f81840152601f19601f82011690508083019250505050505050614182565b612fe5576040517f08c379a0000000000000000000000000000000000000000000000000000000008152600401612fdc90615c0d565b60405180910390fd5b5f60128585604051612ff8929190615054565b90815260200160405180910390205f9054906101000a900473ffffffffffffffffffffffffffffffffffffffff1690505f73ffffffffffffffffffffffffffffffffffffffff168173ffffffffffffffffffffffffffffffffffffffff161415801561309057503373ffffffffffffffffffffffffffffffffffffffff168173ffffffffffffffffffffffffffffffffffffffff1614155b156130d0576040517f08c379a00000000000000000000000000000000000000000000000000000000081526004016130c790615c75565b60405180910390fd5b5f60135f3373ffffffffffffffffffffffffffffffffffffffff1673ffffffffffffffffffffffffffffffffffffffff1681526020019081526020015f2090505f815f01805461311f90614e44565b905011156131dd573373ffffffffffffffffffffffffffffffffffffffff166012825f016040516131509190615d13565b90815260200160405180910390205f9054906101000a900473ffffffffffffffffffffffffffffffffffffffff1673ffffffffffffffffffffffffffffffffffffffff16036131dc576012815f016040516131ab9190615d13565b90815260200160405180910390205f6101000a81549073ffffffffffffffffffffffffffffffffffffffff02191690555b5b8585825f0191826131ef9291906158e0565b5083838260010191826132039291906158e0565b506001816002015f6101000a81548160ff021916908315150217905550428160030181905550336012878760405161323c929190615054565b90815260200160405180910390205f6101000a81548173ffffffffffffffffffffffffffffffffffffffff021916908373ffffffffffffffffffffffffffffffffffffffff1602179055503373ffffffffffffffffffffffffffffffffffffffff167f6eb3a1c6a4675ba92d44e090515b1ceea358f26565d2854df0c99c3f5eaf9850878787876040516132d39493929190615d29565b60405180910390a2505050505050565b60075f9054906101000a900473ffffffffffffffffffffffffffffffffffffffff1673ffffffffffffffffffffffffffffffffffffffff163373ffffffffffffffffffffffffffffffffffffffff1614613372576040517f08c379a000000000000000000000000000000000000000000000000000000000815260040161336990615dd2565b60405180910390fd5b836003819055507f3a64504f0bc0c335e2aecb78638a257e0351a3fe0370861fd54ee4190b920933846040516133a89190615e3a565b60405180910390a1826004819055507f3a64504f0bc0c335e2aecb78638a257e0351a3fe0370861fd54ee4190b920933836040516133e69190615eb0565b60405180910390a1816005819055507f3a64504f0bc0c335e2aecb78638a257e0351a3fe0370861fd54ee4190b920933826040516134249190615f26565b60405180910390a1806006819055507f3a64504f0bc0c335e2aecb78638a257e0351a3fe0370861fd54ee4190b920933816040516134629190615f9c565b60405180910390a180601554111561348b5761348a816015546134859190614d6e565b613f0d565b5b50505050565b60095483106134d5576040517f08c379a00000000000000000000000000000000000000000000000000000000081526004016134cc90616012565b60405180910390fd5b5f828290501161351a576040517f08c379a00000000000000000000000000000000000000000000000000000000081526004016135119061527c565b60405180910390fd5b600354828290501115613562576040517f08c379a0000000000000000000000000000000000000000000000000000000008152600401613559906152e4565b60405180910390fd5b60045460145f3373ffffffffffffffffffffffffffffffffffffffff1673ffffffffffffffffffffffffffffffffffffffff1681526020019081526020015f2054426135ae9190614d6e565b10156135ef576040517f08c379a00000000000000000000000000000000000000000000000000000000081526004016135e69061534c565b60405180910390fd5b5f60135f3373ffffffffffffffffffffffffffffffffffffffff1673ffffffffffffffffffffffffffffffffffffffff1681526020019081526020015f205f01805461363a90614e44565b90501161367c576040517f08c379a0000000000000000000000000000000000000000000000000000000008152600401613673906153b4565b60405180910390fd5b60135f3373ffffffffffffffffffffffffffffffffffffffff1673ffffffffffffffffffffffffffffffffffffffff1681526020019081526020015f206002015f9054906101000a900460ff16613708576040517f08c379a00000000000000000000000000000000000000000000000000000000081526004016136ff9061541c565b60405180910390fd5b6006546015541061371e5761371d6001613f0d565b5b5f600954905060095f81548092919061373690614e74565b91905055505f6064826137499190615467565b90506040518060c001604052803373ffffffffffffffffffffffffffffffffffffffff16815260200185858080601f0160208091040260200160405190810160405280939291908181526020018383808284375f81840152601f19601f82011690508083019250505050505050815260200142815260200160135f3373ffffffffffffffffffffffffffffffffffffffff1673ffffffffffffffffffffffffffffffffffffffff1681526020019081526020015f205f01805461380b90614e44565b80601f016020809104026020016040519081016040528092919081815260200182805461383790614e44565b80156138825780601f1061385957610100808354040283529160200191613882565b820191905f5260205f20905b81548152906001019060200180831161386557829003601f168201915b505050505081526020018681526020015f151581525060085f8481526020019081526020015f205f820151815f015f6101000a81548173ffffffffffffffffffffffffffffffffffffffff021916908373ffffffffffffffffffffffffffffffffffffffff16021790555060208201518160010190816139029190615634565b506040820151816002015560608201518160030190816139229190615634565b506080820151816004015560a0820151816005015f6101000a81548160ff021916908315150217905550905050600d5f8281526020019081526020015f205f9054906101000a900460ff166139c157600c81908060018154018082558091505060019003905f5260205f20015f90919091909150556001600d5f8381526020019081526020015f205f6101000a81548160ff0219169083151502179055505b600a5f8281526020019081526020015f2082908060018154018082558091505060019003905f5260205f20015f9091909190915055600b5f8281526020019081526020015f205f815480929190613a1790614e74565b9190505550600e5f3373ffffffffffffffffffffffffffffffffffffffff1673ffffffffffffffffffffffffffffffffffffffff1681526020019081526020015f2082908060018154018082558091505060019003905f5260205f20015f9091909190915055600f5f3373ffffffffffffffffffffffffffffffffffffffff1673ffffffffffffffffffffffffffffffffffffffff1681526020019081526020015f205f815480929190613aca90614e74565b919050555060105f8681526020019081526020015f2082908060018154018082558091505060019003905f5260205f20015f909190919091505560115f8681526020019081526020015f205f815480929190613b2590614e74565b9190505550601682908060018154018082558091505060019003905f5260205f20015f90919091909150556001601680549050613b629190614d6e565b60175f8481526020019081526020015f208190555060155f815480929190613b8990614e74565b91905055504260145f3373ffffffffffffffffffffffffffffffffffffffff1673ffffffffffffffffffffffffffffffffffffffff1681526020019081526020015f2081905550843373ffffffffffffffffffffffffffffffffffffffff16837f05c02fa0393bcb04a7ac9e303244d6f8940cbc648ac841bfd0fb31fd94965c1442604051613c1891906147a6565b60405180910390a45050505050565b60075f9054906101000a900473ffffffffffffffffffffffffffffffffffffffff1673ffffffffffffffffffffffffffffffffffffffff163373ffffffffffffffffffffffffffffffffffffffff1614613cb6576040517f08c379a0000000000000000000000000000000000000000000000000000000008152600401613cad90615dd2565b60405180910390fd5b5f73ffffffffffffffffffffffffffffffffffffffff168173ffffffffffffffffffffffffffffffffffffffff1603613d24576040517f08c379a0000000000000000000000000000000000000000000000000000000008152600401613d1b9061607a565b60405180910390fd5b8060075f6101000a81548173ffffffffffffffffffffffffffffffffffffffff021916908373ffffffffffffffffffffffffffffffffffffffff16021790555050565b60085f8281526020019081526020015f206005015f9054906101000a900460ff16613f0a57600160085f8381526020019081526020015f206005015f6101000a81548160ff0219169083151502179055505f606482613dc69190615467565b9050600d5f8281526020019081526020015f205f9054906101000a900460ff1615613e1257600b5f8281526020019081526020015f205f815480929190613e0c90616098565b91905055505b5f60085f8481526020019081526020015f205f015f9054906101000a900473ffffffffffffffffffffffffffffffffffffffff169050600f5f8273ffffffffffffffffffffffffffffffffffffffff1673ffffffffffffffffffffffffffffffffffffffff1681526020019081526020015f205f815480929190613e9590616098565b91905055505f60085f8581526020019081526020015f206004015414613ef05760115f60085f8681526020019081526020015f206004015481526020019081526020015f205f815480929190613eea90616098565b91905055505b60155f815480929190613f0290616098565b919050555050505b50565b5f811480613f1c57505f601554145b614038575f806015548310613f3357601554613f35565b825b90505f600190505b60168054905081108015613f5057508183105b15613ff4575f60168281548110613f6a57613f69614dea565b5b905f5260205f200154905060085f8281526020019081526020015f206005015f9054906101000a900460ff16158015613fb657505f60085f8381526020019081526020015f2060040154145b15613fd357613fc481613d67565b8380613fcf90614e74565b9450505b828410613fe05750613ff4565b508080613fec90614e74565b915050613f3d565b505f821115614035577f5f1c520f93f117b166bf6702cbe25052f690142de6b84aec9bb0e38c828fcd9a8260405161402c91906147a6565b60405180910390a15b50505b50565b8047101561407e576040517f08c379a000000000000000000000000000000000000000000000000000000000815260040161407590616109565b60405180910390fd5b5f81111561417e575f8273ffffffffffffffffffffffffffffffffffffffff16825f67ffffffffffffffff8111156140b9576140b8614d0e565b5b6040519080825280601f01601f1916602001820160405280156140eb5781602001600182028036833780820191505090505b506040516140f9919061616b565b5f6040518083038185875af1925050503d805f8114614133576040519150601f19603f3d011682016040523d82523d5f602084013e614138565b606091505b505090508061417c576040517f08c379a0000000000000000000000000000000000000000000000000000000008152600401614173906161cb565b60405180910390fd5b505b5050565b5f808290505f5b8151811015614330575f8282815181106141a6576141a5614dea565b5b602001015160f81c60f81b9050603060f81b817effffffffffffffffffffffffffffffffffffffffffffffffffffffffffffff19161015801561420f5750603960f81b817effffffffffffffffffffffffffffffffffffffffffffffffffffffffffffff191611155b1580156142755750604160f81b817effffffffffffffffffffffffffffffffffffffffffffffffffffffffffffff1916101580156142735750605a60f81b817effffffffffffffffffffffffffffffffffffffffffffffffffffffffffffff191611155b155b80156142da5750606160f81b817effffffffffffffffffffffffffffffffffffffffffffffffffffffffffffff1916101580156142d85750607a60f81b817effffffffffffffffffffffffffffffffffffffffffffffffffffffffffffff191611155b155b801561430c5750605f60f81b817effffffffffffffffffffffffffffffffffffffffffffffffffffffffffffff191614155b1561431c575f9350505050614337565b50808061432890614e74565b915050614189565b5060019150505b919050565b6040518060c001604052805f73ffffffffffffffffffffffffffffffffffffffff168152602001606081526020015f8152602001606081526020015f81526020015f151581525090565b5f80fd5b5f80fd5b5f819050919050565b6143a08161438e565b81146143aa575f80fd5b50565b5f813590506143bb81614397565b92915050565b5f80604083850312156143d7576143d6614386565b5b5f6143e4858286016143ad565b92505060206143f5858286016143ad565b9150509250929050565b5f81519050919050565b5f82825260208201905092915050565b5f819050602082019050919050565b5f73ffffffffffffffffffffffffffffffffffffffff82169050919050565b5f61445182614428565b9050919050565b61446181614447565b82525050565b5f81519050919050565b5f82825260208201905092915050565b5f5b8381101561449e578082015181840152602081019050614483565b5f8484015250505050565b5f601f19601f8301169050919050565b5f6144c382614467565b6144cd8185614471565b93506144dd818560208601614481565b6144e6816144a9565b840191505092915050565b6144fa8161438e565b82525050565b5f8115159050919050565b61451481614500565b82525050565b5f60c083015f83015161452f5f860182614458565b506020830151848203602086015261454782826144b9565b915050604083015161455c60408601826144f1565b506060830151848203606086015261457482826144b9565b915050608083015161458960808601826144f1565b5060a083015161459c60a086018261450b565b508091505092915050565b5f6145b2838361451a565b905092915050565b5f602082019050919050565b5f6145d0826143ff565b6145da8185614409565b9350836020820285016145ec85614419565b805f5b85811015614627578484038952815161460885826145a7565b9450614613836145ba565b925060208a019950506001810190506145ef565b50829750879550505050505092915050565b5f6020820190508181035f83015261465181846145c6565b905092915050565b5f80fd5b5f610180828403121561467357614672614659565b5b81905092915050565b5f6020828403121561469157614690614386565b5b5f82013567ffffffffffffffff8111156146ae576146ad61438a565b5b6146ba8482850161465d565b91505092915050565b5f80fd5b5f80fd5b5f80fd5b5f8083601f8401126146e4576146e36146c3565b5b8235905067ffffffffffffffff811115614701576147006146c7565b5b60208301915083600182028301111561471d5761471c6146cb565b5b9250929050565b5f806020838503121561473a57614739614386565b5b5f83013567ffffffffffffffff8111156147575761475661438a565b5b614763858286016146cf565b92509250509250929050565b61477881614447565b82525050565b5f6020820190506147915f83018461476f565b92915050565b6147a08161438e565b82525050565b5f6020820190506147b95f830184614797565b92915050565b5f602082840312156147d4576147d3614386565b5b5f6147e1848285016143ad565b91505092915050565b5f81519050919050565b5f82825260208201905092915050565b5f819050602082019050919050565b5f61481e83836144f1565b60208301905092915050565b5f602082019050919050565b5f614840826147ea565b61484a81856147f4565b935061485583614804565b805f5b8381101561488557815161486c8882614813565b97506148778361482a565b925050600181019050614858565b5085935050505092915050565b5f6020820190508181035f8301526148aa8184614836565b905092915050565b5f60c083015f8301516148c75f860182614458565b50602083015184820360208601526148df82826144b9565b91505060408301516148f460408601826144f1565b506060830151848203606086015261490c82826144b9565b915050608083015161492160808601826144f1565b5060a083015161493460a086018261450b565b508091505092915050565b5f6020820190508181035f83015261495781846148b2565b905092915050565b61496881614447565b8114614972575f80fd5b50565b5f813590506149838161495f565b92915050565b5f6020828403121561499e5761499d614386565b5b5f6149ab84828501614975565b91505092915050565b5f82825260208201905092915050565b5f6149ce82614467565b6149d881856149b4565b93506149e8818560208601614481565b6149f1816144a9565b840191505092915050565b614a0581614500565b82525050565b5f6060820190508181035f830152614a2381866149c4565b90508181036020830152614a3781856149c4565b9050614a4660408301846149fc565b949350505050565b5f608082019050614a615f830187614797565b614a6e6020830186614797565b614a7b6040830185614797565b614a886060830184614797565b95945050505050565b5f805f8060408587031215614aa957614aa8614386565b5b5f85013567ffffffffffffffff811115614ac657614ac561438a565b5b614ad2878288016146cf565b9450945050602085013567ffffffffffffffff811115614af557614af461438a565b5b614b01878288016146cf565b925092505092959194509250565b5f805f8060808587031215614b2757614b26614386565b5b5f614b34878288016143ad565b9450506020614b45878288016143ad565b9350506040614b56878288016143ad565b9250506060614b67878288016143ad565b91505092959194509250565b5f805f60408486031215614b8a57614b89614386565b5b5f614b97868287016143ad565b935050602084013567ffffffffffffffff811115614bb857614bb761438a565b5b614bc4868287016146cf565b92509250509250925092565b7f506167652073697a65206d7573742062652067726561746572207468616e20305f82015250565b5f614c046020836149b4565b9150614c0f82614bd0565b602082019050919050565b5f6020820190508181035f830152614c3181614bf8565b9050919050565b7f506167652073697a6520746f6f206c61726765000000000000000000000000005f82015250565b5f614c6c6013836149b4565b9150614c7782614c38565b602082019050919050565b5f6020820190508181035f830152614c9981614c60565b9050919050565b7f4e487b71000000000000000000000000000000000000000000000000000000005f52601160045260245ffd5b5f614cd78261438e565b9150614ce28361438e565b9250828202614cf08161438e565b91508282048414831517614d0757614d06614ca0565b5b5092915050565b7f4e487b71000000000000000000000000000000000000000000000000000000005f52604160045260245ffd5b5f614d458261438e565b9150614d508361438e565b9250828201905080821115614d6857614d67614ca0565b5b92915050565b5f614d788261438e565b9150614d838361438e565b9250828203905081811115614d9b57614d9a614ca0565b5b92915050565b5f819050919050565b5f614db482614da1565b9150614dbf83614da1565b925082820390508181125f8412168282135f851215161715614de457614de3614ca0565b5b92915050565b7f4e487b71000000000000000000000000000000000000000000000000000000005f52603260045260245ffd5b7f4e487b71000000000000000000000000000000000000000000000000000000005f52602260045260245ffd5b5f6002820490506001821680614e5b57607f821691505b602082108103614e6e57614e6d614e17565b5b50919050565b5f614e7e8261438e565b91507fffffffffffffffffffffffffffffffffffffffffffffffffffffffffffffffff8203614eb057614eaf614ca0565b5b600182019050919050565b5f614ec582614da1565b91507f80000000000000000000000000000000000000000000000000000000000000008203614ef757614ef6614ca0565b5b600182039050919050565b7f564d206f6e6c79000000000000000000000000000000000000000000000000005f82015250565b5f614f366007836149b4565b9150614f4182614f02565b602082019050919050565b5f6020820190508181035f830152614f6381614f2a565b9050919050565b7f50726f66696c65206e6f7420666f756e640000000000000000000000000000005f82015250565b5f614f9e6011836149b4565b9150614fa982614f6a565b602082019050919050565b5f6020820190508181035f830152614fcb81614f92565b9050919050565b5f81905092915050565b5f614fe682614467565b614ff08185614fd2565b9350615000818560208601614481565b80840191505092915050565b5f6150178284614fdc565b915081905092915050565b828183375f83830152505050565b5f61503b8385614fd2565b9350615048838584615022565b82840190509392505050565b5f615060828486615030565b91508190509392505050565b7f506572696f6420646f6573206e6f7420657869737400000000000000000000005f82015250565b5f6150a06015836149b4565b91506150ab8261506c565b602082019050919050565b5f6020820190508181035f8301526150cd81615094565b9050919050565b7f4d65737361676520646f6573206e6f74206578697374000000000000000000005f82015250565b5f6151086016836149b4565b9150615113826150d4565b602082019050919050565b5f6020820190508181035f830152615135816150fc565b9050919050565b7f4e6f7420617574686f72697a656420746f2064656c6574652074686973206d655f8201527f7373616765000000000000000000000000000000000000000000000000000000602082015250565b5f6151966025836149b4565b91506151a18261513c565b604082019050919050565b5f6020820190508181035f8301526151c38161518a565b9050919050565b7f4d65737361676520616c72656164792064656c657465640000000000000000005f82015250565b5f6151fe6017836149b4565b9150615209826151ca565b602082019050919050565b5f6020820190508181035f83015261522b816151f2565b9050919050565b7f4d6573736167652063616e6e6f7420626520656d7074790000000000000000005f82015250565b5f6152666017836149b4565b915061527182615232565b602082019050919050565b5f6020820190508181035f8301526152938161525a565b9050919050565b7f4d65737361676520746f6f206c6f6e67000000000000000000000000000000005f82015250565b5f6152ce6010836149b4565b91506152d98261529a565b602082019050919050565b5f6020820190508181035f8301526152fb816152c2565b9050919050565b7f506c656173652077616974206265666f726520706f7374696e6720616761696e5f82015250565b5f6153366020836149b4565b915061534182615302565b602082019050919050565b5f6020820190508181035f8301526153638161532a565b9050919050565b7f43726561746520612070726f66696c65206669727374000000000000000000005f82015250565b5f61539e6016836149b4565b91506153a98261536a565b602082019050919050565b5f6020820190508181035f8301526153cb81615392565b9050919050565b7f50726f66696c65206973206465616374697661746564000000000000000000005f82015250565b5f6154066016836149b4565b9150615411826153d2565b602082019050919050565b5f6020820190508181035f830152615433816153fa565b9050919050565b7f4e487b71000000000000000000000000000000000000000000000000000000005f52601260045260245ffd5b5f6154718261438e565b915061547c8361438e565b92508261548c5761548b61543a565b5b828204905092915050565b5f819050815f5260205f209050919050565b5f6020601f8301049050919050565b5f82821b905092915050565b5f600883026154f37fffffffffffffffffffffffffffffffffffffffffffffffffffffffffffffffff826154b8565b6154fd86836154b8565b95508019841693508086168417925050509392505050565b5f819050919050565b5f61553861553361552e8461438e565b615515565b61438e565b9050919050565b5f819050919050565b6155518361551e565b61556561555d8261553f565b8484546154c4565b825550505050565b5f90565b61557961556d565b615584818484615548565b505050565b5b818110156155a75761559c5f82615571565b60018101905061558a565b5050565b601f8211156155ec576155bd81615497565b6155c6846154a9565b810160208510156155d5578190505b6155e96155e1856154a9565b830182615589565b50505b505050565b5f82821c905092915050565b5f61560c5f19846008026155f1565b1980831691505092915050565b5f61562483836155fd565b9150826002028217905092915050565b61563d82614467565b67ffffffffffffffff81111561565657615655614d0e565b5b6156608254614e44565b61566b8282856155ab565b5f60209050601f83116001811461569c575f841561568a578287015190505b6156948582615619565b8655506156fb565b601f1984166156aa86615497565b5f5b828110156156d1578489015182556001820191506020850194506020810190506156ac565b868310156156ee57848901516156ea601f8916826155fd565b8355505b6001600288020188555050505b505050505050565b5f61570e83856149b4565b935061571b838584615022565b615724836144a9565b840190509392505050565b5f6040820190508181035f830152615748818587615703565b90506157576020830184614797565b949350505050565b5f8151905061576d81614397565b92915050565b5f6020828403121561578857615787614386565b5b5f6157958482850161575f565b91505092915050565b7f4e6f742061207265706c79206d657373616765000000000000000000000000005f82015250565b5f6157d26013836149b4565b91506157dd8261579e565b602082019050919050565b5f6020820190508181035f8301526157ff816157c6565b9050919050565b7f546f6f206d616e79206d657373616765732072657175657374656400000000005f82015250565b5f61583a601b836149b4565b915061584582615806565b602082019050919050565b5f6020820190508181035f8301526158678161582e565b9050919050565b7f536574206e69636b6e616d6520666972737400000000000000000000000000005f82015250565b5f6158a26012836149b4565b91506158ad8261586e565b602082019050919050565b5f6020820190508181035f8301526158cf81615896565b9050919050565b5f82905092915050565b6158ea83836158d6565b67ffffffffffffffff81111561590357615902614d0e565b5b61590d8254614e44565b6159188282856155ab565b5f601f831160018114615945575f8415615933578287013590505b61593d8582615619565b8655506159a4565b601f19841661595386615497565b5f5b8281101561597a57848901358255600182019150602085019450602081019050615955565b868310156159975784890135615993601f8916826155fd565b8355505b6001600288020188555050505b50505050505050565b5f81546159b981614e44565b6159c381866149b4565b9450600182165f81146159dd57600181146159f357615a25565b60ff198316865281151560200286019350615a25565b6159fc85615497565b5f5b83811015615a1d578154818901526001820191506020810190506159fe565b808801955050505b50505092915050565b5f6040820190508181035f830152615a4681866159ad565b90508181036020830152615a5b818486615703565b9050949350505050565b7f417574686f72697a65642073656e646572206f6e6c79000000000000000000005f82015250565b5f615a996016836149b4565b9150615aa482615a65565b602082019050919050565b5f6020820190508181035f830152615ac681615a8d565b9050919050565b7f4e69636b6e616d652063616e6e6f7420626520656d70747900000000000000005f82015250565b5f615b016018836149b4565b9150615b0c82615acd565b602082019050919050565b5f6020820190508181035f830152615b2e81615af5565b9050919050565b7f4e69636b6e616d6520746f6f206c6f6e670000000000000000000000000000005f82015250565b5f615b696011836149b4565b9150615b7482615b35565b602082019050919050565b5f6020820190508181035f830152615b9681615b5d565b9050919050565b7f4e69636b6e616d6520636f6e7461696e7320696e76616c6964206368617261635f8201527f7465727300000000000000000000000000000000000000000000000000000000602082015250565b5f615bf76024836149b4565b9150615c0282615b9d565b604082019050919050565b5f6020820190508181035f830152615c2481615beb565b9050919050565b7f4e69636b6e616d6520616c72656164792074616b656e000000000000000000005f82015250565b5f615c5f6016836149b4565b9150615c6a82615c2b565b602082019050919050565b5f6020820190508181035f830152615c8c81615c53565b9050919050565b5f8154615c9f81614e44565b615ca98186614fd2565b9450600182165f8114615cc35760018114615cd857615d0a565b60ff1983168652811515820286019350615d0a565b615ce185615497565b5f5b83811015615d0257815481890152600182019150602081019050615ce3565b838801955050505b50505092915050565b5f615d1e8284615c93565b915081905092915050565b5f6040820190508181035f830152615d42818688615703565b90508181036020830152615d57818486615703565b905095945050505050565b7f4f6e6c79206f776e65722063616e2063616c6c20746869732066756e6374696f5f8201527f6e00000000000000000000000000000000000000000000000000000000000000602082015250565b5f615dbc6021836149b4565b9150615dc782615d62565b604082019050919050565b5f6020820190508181035f830152615de981615db0565b9050919050565b7f6d61784d6573736167654c656e677468000000000000000000000000000000005f82015250565b5f615e246010836149b4565b9150615e2f82615df0565b602082019050919050565b5f6040820190508181035f830152615e5181615e18565b9050615e606020830184614797565b92915050565b7f6d657373616765436f6f6c646f776e00000000000000000000000000000000005f82015250565b5f615e9a600f836149b4565b9150615ea582615e66565b602082019050919050565b5f6040820190508181035f830152615ec781615e8e565b9050615ed66020830184614797565b92915050565b7f6d617852657475726e436f756e740000000000000000000000000000000000005f82015250565b5f615f10600e836149b4565b9150615f1b82615edc565b602082019050919050565b5f6040820190508181035f830152615f3d81615f04565b9050615f4c6020830184614797565b92915050565b7f6d61784163746976654d657373616765730000000000000000000000000000005f82015250565b5f615f866011836149b4565b9150615f9182615f52565b602082019050919050565b5f6040820190508181035f830152615fb381615f7a565b9050615fc26020830184614797565b92915050565b7f4f726967696e616c206d65737361676520646f6573206e6f74206578697374005f82015250565b5f615ffc601f836149b4565b915061600782615fc8565b602082019050919050565b5f6020820190508181035f83015261602981615ff0565b9050919050565b7f4e6577206f776e65722063616e6e6f74206265207a65726f20616464726573735f82015250565b5f6160646020836149b4565b915061606f82616030565b602082019050919050565b5f6020820190508181035f83015261609181616058565b9050919050565b5f6160a28261438e565b91505f82036160b4576160b3614ca0565b5b600182039050919050565b7f496e73756666696369656e742066756e647300000000000000000000000000005f82015250565b5f6160f36012836149b4565b91506160fe826160bf565b602082019050919050565b5f6020820190508181035f830152616120816160e7565b9050919050565b5f81519050919050565b5f81905092915050565b5f61614582616127565b61614f8185616131565b935061615f818560208601614481565b80840191505092915050565b5f616176828461613b565b915081905092915050565b7f5472616e73666572206661696c656400000000000000000000000000000000005f82015250565b5f6161b5600f836149b4565b91506161c082616181565b602082019050919050565b5f6020820190508181035f8301526161e2816161a9565b905091905056fea26469706673582212204c3076285827b90ef41213b74dca365768a875b0fa79863f62db508c353f0fa364736f6c63430008140033","linkReferences":{}},"methodIdentifiers":{"coverDebt()":"7a90b990","deactivateProfile()":"20a17bca","getAddressByNickname(string)":"31085c5f","getAvailablePeriods()":"64598fda","getLatestMessages(uint256)":"9e19a1ca","getMessage(uint256)":"86f79edb","getMessageCount()":"31933916","getMessagesByPeriod(uint256)":"4eca280c","getMessagesBySender(address)":"c6e4d923","getMessagesWithPagination(uint256,uint256)":"0c5d798d","getOriginalMessage(uint256)":"8382ea90","getOwner()":"893d20e8","getParameters()":"a5ea11da","getRepliesForMessage(uint256)":"76bf6941","getTotalActiveMessages()":"c982923f","getUserProfile(address)":"987ee156","markMessageAsDeleted(uint256)":"5eb3a5ac","pay(uint256)":"c290d691","postMessage(string)":"6630f88f","react((uint256,address,uint256,uint256,uint256,uint256,bytes,uint256,uint256,uint256,uint256,uint256))":"0d152c2c","replyToMessage(uint256,string)":"ee72539e","transferOwnership(address)":"f2fde38b","updateAvatar(string)":"9fe958b9","updateParameters(uint256,uint256,uint256,uint256)":"ee1eab4f","updateProfile(string,string)":"c9d3cc6a"},"id":30}