{"abi":[{"type":"constructor","inputs":[],"stateMutability":"payable"},{"type":"function","name":"deactivateProfile","inputs":[],"outputs":[],"stateMutability":"nonpayable"},{"type":"function","name":"getAddressByNickname","inputs":[{"name":"nickname","type":"string","internalType":"string"}],"outputs":[{"name":"","type":"address","internalType":"address"}],"stateMutability":"view"},{"type":"function","name":"getAvailablePeriods","inputs":[],"outputs":[{"name":"","type":"uint256[]","internalType":"uint256[]"}],"stateMutability":"view"},{"type":"function","name":"getLatestMessages","inputs":[{"name":"count","type":"uint256","internalType":"uint256"}],"outputs":[{"name":"","type":"tuple[]","internalType":"struct SimplifiedTwitterStep1.Message[]","components":[{"name":"sender","type":"address","internalType":"address"},{"name":"content","type":"string","internalType":"string"},{"name":"timestamp","type":"uint256","internalType":"uint256"},{"name":"nickname","type":"string","internalType":"string"},{"name":"replyToMessageId","type":"uint256","internalType":"uint256"},{"name":"isDeleted","type":"bool","internalType":"bool"}]}],"stateMutability":"view"},{"type":"function","name":"getMessageCount","inputs":[],"outputs":[{"name":"","type":"uint256","internalType":"uint256"}],"stateMutability":"view"},{"type":"function","name":"getMessagesByPeriod","inputs":[{"name":"period","type":"uint256","internalType":"uint256"}],"outputs":[{"name":"","type":"tuple[]","internalType":"struct SimplifiedTwitterStep1.Message[]","components":[{"name":"sender","type":"address","internalType":"address"},{"name":"content","type":"string","internalType":"string"},{"name":"timestamp","type":"uint256","internalType":"uint256"},{"name":"nickname","type":"string","internalType":"string"},{"name":"replyToMessageId","type":"uint256","internalType":"uint256"},{"name":"isDeleted","type":"bool","internalType":"bool"}]}],"stateMutability":"view"},{"type":"function","name":"getMessagesBySender","inputs":[{"name":"sender","type":"address","internalType":"address"}],"outputs":[{"name":"","type":"tuple[]","internalType":"struct SimplifiedTwitterStep1.Message[]","components":[{"name":"sender","type":"address","internalType":"address"},{"name":"content","type":"string","internalType":"string"},{"name":"timestamp","type":"uint256","internalType":"uint256"},{"name":"nickname","type":"string","internalType":"string"},{"name":"replyToMessageId","type":"uint256","internalType":"uint256"},{"name":"isDeleted","type":"bool","internalType":"bool"}]}],"stateMutability":"view"},{"type":"function","name":"getUserProfile","inputs":[{"name":"user","type":"address","internalType":"address"}],"outputs":[{"name":"nickname","type":"string","internalType":"string"},{"name":"avatarCode","type":"string","internalType":"string"},{"name":"isActive","type":"bool","internalType":"bool"}],"stateMutability":"view"},{"type":"function","name":"postMessage","inputs":[{"name":"content","type":"string","internalType":"string"}],"outputs":[],"stateMutability":"nonpayable"},{"type":"function","name":"react","inputs":[{"name":"","type":"tuple","internalType":"struct IReactive.LogRecord","components":[{"name":"source","type":"address","internalType":"address"},{"name":"blockNumber","type":"uint256","internalType":"uint256"},{"name":"blockTimestamp","type":"uint256","internalType":"uint256"},{"name":"recordType","type":"uint256","internalType":"uint256"},{"name":"callerAddr","type":"address","internalType":"address"},{"name":"abiEncTx","type":"bytes","internalType":"bytes"},{"name":"returnedResult","type":"bytes","internalType":"bytes"},{"name":"logs","type":"bytes32[]","internalType":"bytes32[]"}]}],"outputs":[],"stateMutability":"nonpayable"},{"type":"function","name":"updateAvatar","inputs":[{"name":"avatarCode","type":"string","internalType":"string"}],"outputs":[],"stateMutability":"nonpayable"},{"type":"function","name":"updateProfile","inputs":[{"name":"nickname","type":"string","internalType":"string"},{"name":"avatarCode","type":"string","internalType":"string"}],"outputs":[],"stateMutability":"nonpayable"},{"type":"event","name":"MessageSent","inputs":[{"name":"messageId","type":"uint256","indexed":true,"internalType":"uint256"},{"name":"sender","type":"address","indexed":true,"internalType":"address"},{"name":"content","type":"string","indexed":false,"internalType":"string"},{"name":"timestamp","type":"uint256","indexed":false,"internalType":"uint256"}],"anonymous":false},{"type":"event","name":"ProfileDeactivated","inputs":[{"name":"user","type":"address","indexed":true,"internalType":"address"}],"anonymous":false},{"type":"event","name":"ProfileUpdated","inputs":[{"name":"user","type":"address","indexed":true,"internalType":"address"},{"name":"nickname","type":"string","indexed":false,"internalType":"string"},{"name":"avatarCode","type":"string","indexed":false,"internalType":"string"}],"anonymous":false},{"type":"event","name":"ReplyMessageSent","inputs":[{"name":"messageId","type":"uint256","indexed":true,"internalType":"uint256"},{"name":"sender","type":"address","indexed":true,"internalType":"address"},{"name":"replyToMessageId","type":"uint256","indexed":true,"internalType":"uint256"},{"name":"timestamp","type":"uint256","indexed":false,"internalType":"uint256"}],"anonymous":false}],"bytecode":{"object":"0x60806040525f6040518060c001604052805f73ffffffffffffffffffffffffffffffffffffffff16815260200160405180602001604052805f815250815260200142815260200160405180602001604052805f81525081526020015f815260200160011515815250908060018154018082558091505060019003905f5260205f2090600602015f909190919091505f820151815f015f6101000a81548173ffffffffffffffffffffffffffffffffffffffff021916908373ffffffffffffffffffffffffffffffffffffffff1602179055506020820151816001019081620000e891906200051a565b506040820151816002015560608201518160030190816200010a91906200051a565b506080820151816004015560a0820151816005015f6101000a81548160ff021916908315150217905550505060015f8081526020019081526020015f205f80815481106200015d576200015c620005fe565b5b905f5260205f209060060201908060018154018082558091505060019003905f5260205f2090600602015f909190919091505f82015f9054906101000a900473ffffffffffffffffffffffffffffffffffffffff16815f015f6101000a81548173ffffffffffffffffffffffffffffffffffffffff021916908373ffffffffffffffffffffffffffffffffffffffff1602179055506001820181600101908162000208919062000642565b50600282015481600201556003820181600301908162000229919062000642565b5060048201548160040155600582015f9054906101000a900460ff16816005015f6101000a81548160ff021916908315150217905550505060025f908060018154018082558091505060019003905f5260205f20015f9091909190915055600160035f8081526020019081526020015f205f6101000a81548160ff02191690831515021790555062000740565b5f81519050919050565b7f4e487b71000000000000000000000000000000000000000000000000000000005f52604160045260245ffd5b7f4e487b71000000000000000000000000000000000000000000000000000000005f52602260045260245ffd5b5f60028204905060018216806200033257607f821691505b602082108103620003485762000347620002ed565b5b50919050565b5f819050815f5260205f209050919050565b5f6020601f8301049050919050565b5f82821b905092915050565b5f60088302620003ac7fffffffffffffffffffffffffffffffffffffffffffffffffffffffffffffffff826200036f565b620003b886836200036f565b95508019841693508086168417925050509392505050565b5f819050919050565b5f819050919050565b5f62000402620003fc620003f684620003d0565b620003d9565b620003d0565b9050919050565b5f819050919050565b6200041d83620003e2565b620004356200042c8262000409565b8484546200037b565b825550505050565b5f90565b6200044b6200043d565b6200045881848462000412565b505050565b5b818110156200047f57620004735f8262000441565b6001810190506200045e565b5050565b601f821115620004ce5762000498816200034e565b620004a38462000360565b81016020851015620004b3578190505b620004cb620004c28562000360565b8301826200045d565b50505b505050565b5f82821c905092915050565b5f620004f05f1984600802620004d3565b1980831691505092915050565b5f6200050a8383620004df565b9150826002028217905092915050565b6200052582620002b6565b67ffffffffffffffff811115620005415762000540620002c0565b5b6200054d82546200031a565b6200055a82828562000483565b5f60209050601f83116001811462000590575f84156200057b578287015190505b620005878582620004fd565b865550620005f6565b601f198416620005a0866200034e565b5f5b82811015620005c957848901518255600182019150602085019450602081019050620005a2565b86831015620005e95784890151620005e5601f891682620004df565b8355505b6001600288020188555050505b505050505050565b7f4e487b71000000000000000000000000000000000000000000000000000000005f52603260045260245ffd5b5f815490506200063b816200031a565b9050919050565b818103620006525750506200073e565b6200065d826200062b565b67ffffffffffffffff811115620006795762000678620002c0565b5b6200068582546200031a565b6200069282828562000483565b5f601f831160018114620006c4575f8415620006af578287015490505b620006bb8582620004fd565b86555062000737565b601f198416620006d4876200034e565b9650620006e1866200034e565b5f5b828110156200070a57848901548255600182019150600185019450602081019050620006e3565b868310156200072a578489015462000726601f891682620004df565b8355505b6001600288020188555050505b5050505050505b565b612e57806200074e5f395ff3fe608060405234801561000f575f80fd5b50600436106100b2575f3560e01c806371befe9f1161006f57806371befe9f14610178578063987ee156146101945780639e19a1ca146101c65780639fe958b9146101f6578063c6e4d92314610212578063c9d3cc6a14610242576100b2565b806320a17bca146100b657806331085c5f146100c057806331933916146100f05780634eca280c1461010e57806364598fda1461013e5780636630f88f1461015c575b5f80fd5b6100be61025e565b005b6100da60048036038101906100d59190611bf3565b610387565b6040516100e79190611c7d565b60405180910390f35b6100f86103d0565b6040516101059190611cae565b60405180910390f35b61012860048036038101906101239190611cf1565b6103db565b6040516101359190611f26565b60405180910390f35b6101466106bf565b6040516101539190611fee565b60405180910390f35b61017660048036038101906101719190611bf3565b610715565b005b610192600480360381019061018d9190612031565b610e0d565b005b6101ae60048036038101906101a991906120a2565b610e10565b6040516101bd93929190612124565b60405180910390f35b6101e060048036038101906101db9190611cf1565b610fb4565b6040516101ed9190611f26565b60405180910390f35b610210600480360381019061020b9190611bf3565b61131e565b005b61022c600480360381019061022791906120a2565b61148f565b6040516102399190611f26565b60405180910390f35b61025c60048036038101906102579190612167565b6117a3565b005b5f60075f3373ffffffffffffffffffffffffffffffffffffffff1673ffffffffffffffffffffffffffffffffffffffff1681526020019081526020015f205f0180546102a990612212565b9050116102eb576040517f08c379a00000000000000000000000000000000000000000000000000000000081526004016102e29061228c565b60405180910390fd5b5f60075f3373ffffffffffffffffffffffffffffffffffffffff1673ffffffffffffffffffffffffffffffffffffffff1681526020019081526020015f206002015f6101000a81548160ff0219169083151502179055503373ffffffffffffffffffffffffffffffffffffffff167f54a43e4629a715b7e7723ff4f7400f2b5804224e3c8fcf6c96d0bbb46ae02c9360405160405180910390a2565b5f6006838360405161039a9291906122e6565b90815260200160405180910390205f9054906101000a900473ffffffffffffffffffffffffffffffffffffffff16905092915050565b5f8080549050905090565b606060035f8381526020019081526020015f205f9054906101000a900460ff1661043a576040517f08c379a000000000000000000000000000000000000000000000000000000000815260040161043190612348565b60405180910390fd5b5f60015f8481526020019081526020015f2090505f818054905067ffffffffffffffff81111561046d5761046c612366565b5b6040519080825280602002602001820160405280156104a657816020015b610493611b40565b81526020019060019003908161048b5790505b5090505f5b82805490508110156106b4578281815481106104ca576104c9612393565b5b905f5260205f2090600602016040518060c00160405290815f82015f9054906101000a900473ffffffffffffffffffffffffffffffffffffffff1673ffffffffffffffffffffffffffffffffffffffff1673ffffffffffffffffffffffffffffffffffffffff16815260200160018201805461054590612212565b80601f016020809104026020016040519081016040528092919081815260200182805461057190612212565b80156105bc5780601f10610593576101008083540402835291602001916105bc565b820191905f5260205f20905b81548152906001019060200180831161059f57829003601f168201915b50505050508152602001600282015481526020016003820180546105df90612212565b80601f016020809104026020016040519081016040528092919081815260200182805461060b90612212565b80156106565780601f1061062d57610100808354040283529160200191610656565b820191905f5260205f20905b81548152906001019060200180831161063957829003601f168201915b5050505050815260200160048201548152602001600582015f9054906101000a900460ff16151515158152505082828151811061069657610695612393565b5b602002602001018190525080806106ac906123ed565b9150506104ab565b508092505050919050565b6060600280548060200260200160405190810160405280929190818152602001828054801561070b57602002820191905f5260205f20905b8154815260200190600101908083116106f7575b5050505050905090565b5f828290501161075a576040517f08c379a00000000000000000000000000000000000000000000000000000000081526004016107519061247e565b60405180910390fd5b61030f8282905011156107a2576040517f08c379a0000000000000000000000000000000000000000000000000000000008152600401610799906124e6565b60405180910390fd5b5f60085f3373ffffffffffffffffffffffffffffffffffffffff1673ffffffffffffffffffffffffffffffffffffffff1681526020019081526020015f20541461087357603c60085f3373ffffffffffffffffffffffffffffffffffffffff1673ffffffffffffffffffffffffffffffffffffffff1681526020019081526020015f2054426108319190612504565b1015610872576040517f08c379a000000000000000000000000000000000000000000000000000000000815260040161086990612581565b60405180910390fd5b5b5f60075f3373ffffffffffffffffffffffffffffffffffffffff1673ffffffffffffffffffffffffffffffffffffffff1681526020019081526020015f205f0180546108be90612212565b905011610900576040517f08c379a00000000000000000000000000000000000000000000000000000000081526004016108f7906125e9565b60405180910390fd5b60075f3373ffffffffffffffffffffffffffffffffffffffff1673ffffffffffffffffffffffffffffffffffffffff1681526020019081526020015f206002015f9054906101000a900460ff1661098c576040517f08c379a000000000000000000000000000000000000000000000000000000000815260040161098390612651565b60405180910390fd5b5f808054905090505f6064826109a2919061269c565b90505f6040518060c001604052803373ffffffffffffffffffffffffffffffffffffffff16815260200186868080601f0160208091040260200160405190810160405280939291908181526020018383808284375f81840152601f19601f82011690508083019250505050505050815260200142815260200160075f3373ffffffffffffffffffffffffffffffffffffffff1673ffffffffffffffffffffffffffffffffffffffff1681526020019081526020015f205f018054610a6590612212565b80601f0160208091040260200160405190810160405280929190818152602001828054610a9190612212565b8015610adc5780601f10610ab357610100808354040283529160200191610adc565b820191905f5260205f20905b815481529060010190602001808311610abf57829003601f168201915b505050505081526020015f81526020015f151581525090505f81908060018154018082558091505060019003905f5260205f2090600602015f909190919091505f820151815f015f6101000a81548173ffffffffffffffffffffffffffffffffffffffff021916908373ffffffffffffffffffffffffffffffffffffffff1602179055506020820151816001019081610b759190612869565b50604082015181600201556060820151816003019081610b959190612869565b506080820151816004015560a0820151816005015f6101000a81548160ff021916908315150217905550505060035f8381526020019081526020015f205f9054906101000a900460ff16610c3357600282908060018154018082558091505060019003905f5260205f20015f9091909190915055600160035f8481526020019081526020015f205f6101000a81548160ff0219169083151502179055505b60015f8381526020019081526020015f2081908060018154018082558091505060019003905f5260205f2090600602015f909190919091505f820151815f015f6101000a81548173ffffffffffffffffffffffffffffffffffffffff021916908373ffffffffffffffffffffffffffffffffffffffff1602179055506020820151816001019081610cc49190612869565b50604082015181600201556060820151816003019081610ce49190612869565b506080820151816004015560a0820151816005015f6101000a81548160ff021916908315150217905550505060045f3373ffffffffffffffffffffffffffffffffffffffff1673ffffffffffffffffffffffffffffffffffffffff1681526020019081526020015f2083908060018154018082558091505060019003905f5260205f20015f90919091909150554260085f3373ffffffffffffffffffffffffffffffffffffffff1673ffffffffffffffffffffffffffffffffffffffff1681526020019081526020015f20819055503373ffffffffffffffffffffffffffffffffffffffff16837f1f8960ec3ee7087d0552bc042c456f22e713898e21204c04f5885b3942bb0790878742604051610dfe93929190612964565b60405180910390a35050505050565b50565b6060805f8060075f8673ffffffffffffffffffffffffffffffffffffffff1673ffffffffffffffffffffffffffffffffffffffff1681526020019081526020015f206040518060600160405290815f82018054610e6c90612212565b80601f0160208091040260200160405190810160405280929190818152602001828054610e9890612212565b8015610ee35780601f10610eba57610100808354040283529160200191610ee3565b820191905f5260205f20905b815481529060010190602001808311610ec657829003601f168201915b50505050508152602001600182018054610efc90612212565b80601f0160208091040260200160405190810160405280929190818152602001828054610f2890612212565b8015610f735780601f10610f4a57610100808354040283529160200191610f73565b820191905f5260205f20905b815481529060010190602001808311610f5657829003601f168201915b50505050508152602001600282015f9054906101000a900460ff1615151515815250509050805f015181602001518260400151935093509350509193909250565b60606032821115610ffa576040517f08c379a0000000000000000000000000000000000000000000000000000000008152600401610ff1906129de565b60405180910390fd5b5f829050825f805490501015611012575f8054905090505b5f8167ffffffffffffffff81111561102d5761102c612366565b5b60405190808252806020026020018201604052801561106657816020015b611053611b40565b81526020019060019003908161104b5790505b5090505f80805f805490501161107c575f61108e565b60015f8054905061108d9190612504565b5b90505b5f8111801561109f57508382105b15611312575f8082815481106110b8576110b7612393565b5b905f5260205f2090600602016004015414801561110157505f81815481106110e3576110e2612393565b5b905f5260205f2090600602016005015f9054906101000a900460ff16155b156112ff575f818154811061111957611118612393565b5b905f5260205f2090600602016040518060c00160405290815f82015f9054906101000a900473ffffffffffffffffffffffffffffffffffffffff1673ffffffffffffffffffffffffffffffffffffffff1673ffffffffffffffffffffffffffffffffffffffff16815260200160018201805461119490612212565b80601f01602080910402602001604051908101604052809291908181526020018280546111c090612212565b801561120b5780601f106111e25761010080835404028352916020019161120b565b820191905f5260205f20905b8154815290600101906020018083116111ee57829003601f168201915b505050505081526020016002820154815260200160038201805461122e90612212565b80601f016020809104026020016040519081016040528092919081815260200182805461125a90612212565b80156112a55780601f1061127c576101008083540402835291602001916112a5565b820191905f5260205f20905b81548152906001019060200180831161128857829003601f168201915b5050505050815260200160048201548152602001600582015f9054906101000a900460ff1615151515815250508383815181106112e5576112e4612393565b5b602002602001018190525081806112fb906123ed565b9250505b808061130a906129fc565b915050611091565b50819350505050919050565b5f60075f3373ffffffffffffffffffffffffffffffffffffffff1673ffffffffffffffffffffffffffffffffffffffff1681526020019081526020015f205f01805461136990612212565b9050116113ab576040517f08c379a00000000000000000000000000000000000000000000000000000000081526004016113a290612a6d565b60405180910390fd5b818160075f3373ffffffffffffffffffffffffffffffffffffffff1673ffffffffffffffffffffffffffffffffffffffff1681526020019081526020015f2060010191826113fa929190612a95565b503373ffffffffffffffffffffffffffffffffffffffff167f6eb3a1c6a4675ba92d44e090515b1ceea358f26565d2854df0c99c3f5eaf985060075f3373ffffffffffffffffffffffffffffffffffffffff1673ffffffffffffffffffffffffffffffffffffffff1681526020019081526020015f205f01848460405161148393929190612be3565b60405180910390a25050565b60605f60045f8473ffffffffffffffffffffffffffffffffffffffff1673ffffffffffffffffffffffffffffffffffffffff1681526020019081526020015f2080548060200260200160405190810160405280929190818152602001828054801561151757602002820191905f5260205f20905b815481526020019060010190808311611503575b505050505090505f815167ffffffffffffffff81111561153a57611539612366565b5b60405190808252806020026020018201604052801561157357816020015b611560611b40565b8152602001906001900390816115585790505b5090505f5b8251811015611798575f83828151811061159557611594612393565b5b6020026020010151815481106115ae576115ad612393565b5b905f5260205f2090600602016040518060c00160405290815f82015f9054906101000a900473ffffffffffffffffffffffffffffffffffffffff1673ffffffffffffffffffffffffffffffffffffffff1673ffffffffffffffffffffffffffffffffffffffff16815260200160018201805461162990612212565b80601f016020809104026020016040519081016040528092919081815260200182805461165590612212565b80156116a05780601f10611677576101008083540402835291602001916116a0565b820191905f5260205f20905b81548152906001019060200180831161168357829003601f168201915b50505050508152602001600282015481526020016003820180546116c390612212565b80601f01602080910402602001604051908101604052809291908181526020018280546116ef90612212565b801561173a5780601f106117115761010080835404028352916020019161173a565b820191905f5260205f20905b81548152906001019060200180831161171d57829003601f168201915b5050505050815260200160048201548152602001600582015f9054906101000a900460ff16151515158152505082828151811061177a57611779612393565b5b60200260200101819052508080611790906123ed565b915050611578565b508092505050919050565b5f84849050116117e8576040517f08c379a00000000000000000000000000000000000000000000000000000000081526004016117df90612c64565b60405180910390fd5b602084849050111561182f576040517f08c379a000000000000000000000000000000000000000000000000000000000815260040161182690612ccc565b60405180910390fd5b5f600685856040516118429291906122e6565b90815260200160405180910390205f9054906101000a900473ffffffffffffffffffffffffffffffffffffffff1690505f73ffffffffffffffffffffffffffffffffffffffff168173ffffffffffffffffffffffffffffffffffffffff16141580156118da57503373ffffffffffffffffffffffffffffffffffffffff168173ffffffffffffffffffffffffffffffffffffffff1614155b1561191a576040517f08c379a000000000000000000000000000000000000000000000000000000000815260040161191190612d34565b60405180910390fd5b5f60075f3373ffffffffffffffffffffffffffffffffffffffff1673ffffffffffffffffffffffffffffffffffffffff1681526020019081526020015f2090505f815f01805461196990612212565b90501115611a43573373ffffffffffffffffffffffffffffffffffffffff166006825f0160405161199a9190612dd2565b90815260200160405180910390205f9054906101000a900473ffffffffffffffffffffffffffffffffffffffff1673ffffffffffffffffffffffffffffffffffffffff1603611a42575f6006825f016040516119f69190612dd2565b90815260200160405180910390205f6101000a81548173ffffffffffffffffffffffffffffffffffffffff021916908373ffffffffffffffffffffffffffffffffffffffff1602179055505b5b8585825f019182611a55929190612a95565b508383826001019182611a69929190612a95565b506001816002015f6101000a81548160ff0219169083151502179055503360068787604051611a999291906122e6565b90815260200160405180910390205f6101000a81548173ffffffffffffffffffffffffffffffffffffffff021916908373ffffffffffffffffffffffffffffffffffffffff1602179055503373ffffffffffffffffffffffffffffffffffffffff167f6eb3a1c6a4675ba92d44e090515b1ceea358f26565d2854df0c99c3f5eaf985087878787604051611b309493929190612de8565b60405180910390a2505050505050565b6040518060c001604052805f73ffffffffffffffffffffffffffffffffffffffff168152602001606081526020015f8152602001606081526020015f81526020015f151581525090565b5f80fd5b5f80fd5b5f80fd5b5f80fd5b5f80fd5b5f8083601f840112611bb357611bb2611b92565b5b8235905067ffffffffffffffff811115611bd057611bcf611b96565b5b602083019150836001820283011115611bec57611beb611b9a565b5b9250929050565b5f8060208385031215611c0957611c08611b8a565b5b5f83013567ffffffffffffffff811115611c2657611c25611b8e565b5b611c3285828601611b9e565b92509250509250929050565b5f73ffffffffffffffffffffffffffffffffffffffff82169050919050565b5f611c6782611c3e565b9050919050565b611c7781611c5d565b82525050565b5f602082019050611c905f830184611c6e565b92915050565b5f819050919050565b611ca881611c96565b82525050565b5f602082019050611cc15f830184611c9f565b92915050565b611cd081611c96565b8114611cda575f80fd5b50565b5f81359050611ceb81611cc7565b92915050565b5f60208284031215611d0657611d05611b8a565b5b5f611d1384828501611cdd565b91505092915050565b5f81519050919050565b5f82825260208201905092915050565b5f819050602082019050919050565b611d4e81611c5d565b82525050565b5f81519050919050565b5f82825260208201905092915050565b5f5b83811015611d8b578082015181840152602081019050611d70565b5f8484015250505050565b5f601f19601f8301169050919050565b5f611db082611d54565b611dba8185611d5e565b9350611dca818560208601611d6e565b611dd381611d96565b840191505092915050565b611de781611c96565b82525050565b5f8115159050919050565b611e0181611ded565b82525050565b5f60c083015f830151611e1c5f860182611d45565b5060208301518482036020860152611e348282611da6565b9150506040830151611e496040860182611dde565b5060608301518482036060860152611e618282611da6565b9150506080830151611e766080860182611dde565b5060a0830151611e8960a0860182611df8565b508091505092915050565b5f611e9f8383611e07565b905092915050565b5f602082019050919050565b5f611ebd82611d1c565b611ec78185611d26565b935083602082028501611ed985611d36565b805f5b85811015611f145784840389528151611ef58582611e94565b9450611f0083611ea7565b925060208a01995050600181019050611edc565b50829750879550505050505092915050565b5f6020820190508181035f830152611f3e8184611eb3565b905092915050565b5f81519050919050565b5f82825260208201905092915050565b5f819050602082019050919050565b5f611f7a8383611dde565b60208301905092915050565b5f602082019050919050565b5f611f9c82611f46565b611fa68185611f50565b9350611fb183611f60565b805f5b83811015611fe1578151611fc88882611f6f565b9750611fd383611f86565b925050600181019050611fb4565b5085935050505092915050565b5f6020820190508181035f8301526120068184611f92565b905092915050565b5f80fd5b5f61010082840312156120285761202761200e565b5b81905092915050565b5f6020828403121561204657612045611b8a565b5b5f82013567ffffffffffffffff81111561206357612062611b8e565b5b61206f84828501612012565b91505092915050565b61208181611c5d565b811461208b575f80fd5b50565b5f8135905061209c81612078565b92915050565b5f602082840312156120b7576120b6611b8a565b5b5f6120c48482850161208e565b91505092915050565b5f82825260208201905092915050565b5f6120e782611d54565b6120f181856120cd565b9350612101818560208601611d6e565b61210a81611d96565b840191505092915050565b61211e81611ded565b82525050565b5f6060820190508181035f83015261213c81866120dd565b9050818103602083015261215081856120dd565b905061215f6040830184612115565b949350505050565b5f805f806040858703121561217f5761217e611b8a565b5b5f85013567ffffffffffffffff81111561219c5761219b611b8e565b5b6121a887828801611b9e565b9450945050602085013567ffffffffffffffff8111156121cb576121ca611b8e565b5b6121d787828801611b9e565b925092505092959194509250565b7f4e487b71000000000000000000000000000000000000000000000000000000005f52602260045260245ffd5b5f600282049050600182168061222957607f821691505b60208210810361223c5761223b6121e5565b5b50919050565b7f50726f66696c65206e6f7420666f756e640000000000000000000000000000005f82015250565b5f6122766011836120cd565b915061228182612242565b602082019050919050565b5f6020820190508181035f8301526122a38161226a565b9050919050565b5f81905092915050565b828183375f83830152505050565b5f6122cd83856122aa565b93506122da8385846122b4565b82840190509392505050565b5f6122f28284866122c2565b91508190509392505050565b7f506572696f6420646f6573206e6f7420657869737400000000000000000000005f82015250565b5f6123326015836120cd565b915061233d826122fe565b602082019050919050565b5f6020820190508181035f83015261235f81612326565b9050919050565b7f4e487b71000000000000000000000000000000000000000000000000000000005f52604160045260245ffd5b7f4e487b71000000000000000000000000000000000000000000000000000000005f52603260045260245ffd5b7f4e487b71000000000000000000000000000000000000000000000000000000005f52601160045260245ffd5b5f6123f782611c96565b91507fffffffffffffffffffffffffffffffffffffffffffffffffffffffffffffffff8203612429576124286123c0565b5b600182019050919050565b7f4d6573736167652063616e6e6f7420626520656d7074790000000000000000005f82015250565b5f6124686017836120cd565b915061247382612434565b602082019050919050565b5f6020820190508181035f8301526124958161245c565b9050919050565b7f4d65737361676520746f6f206c6f6e67000000000000000000000000000000005f82015250565b5f6124d06010836120cd565b91506124db8261249c565b602082019050919050565b5f6020820190508181035f8301526124fd816124c4565b9050919050565b5f61250e82611c96565b915061251983611c96565b9250828203905081811115612531576125306123c0565b5b92915050565b7f506c656173652077616974206265666f726520706f7374696e6720616761696e5f82015250565b5f61256b6020836120cd565b915061257682612537565b602082019050919050565b5f6020820190508181035f8301526125988161255f565b9050919050565b7f50726f66696c65206e6f742073657400000000000000000000000000000000005f82015250565b5f6125d3600f836120cd565b91506125de8261259f565b602082019050919050565b5f6020820190508181035f830152612600816125c7565b9050919050565b7f50726f66696c65206973206465616374697661746564000000000000000000005f82015250565b5f61263b6016836120cd565b915061264682612607565b602082019050919050565b5f6020820190508181035f8301526126688161262f565b9050919050565b7f4e487b71000000000000000000000000000000000000000000000000000000005f52601260045260245ffd5b5f6126a682611c96565b91506126b183611c96565b9250826126c1576126c061266f565b5b828204905092915050565b5f819050815f5260205f209050919050565b5f6020601f8301049050919050565b5f82821b905092915050565b5f600883026127287fffffffffffffffffffffffffffffffffffffffffffffffffffffffffffffffff826126ed565b61273286836126ed565b95508019841693508086168417925050509392505050565b5f819050919050565b5f61276d61276861276384611c96565b61274a565b611c96565b9050919050565b5f819050919050565b61278683612753565b61279a61279282612774565b8484546126f9565b825550505050565b5f90565b6127ae6127a2565b6127b981848461277d565b505050565b5b818110156127dc576127d15f826127a6565b6001810190506127bf565b5050565b601f821115612821576127f2816126cc565b6127fb846126de565b8101602085101561280a578190505b61281e612816856126de565b8301826127be565b50505b505050565b5f82821c905092915050565b5f6128415f1984600802612826565b1980831691505092915050565b5f6128598383612832565b9150826002028217905092915050565b61287282611d54565b67ffffffffffffffff81111561288b5761288a612366565b5b6128958254612212565b6128a08282856127e0565b5f60209050601f8311600181146128d1575f84156128bf578287015190505b6128c9858261284e565b865550612930565b601f1984166128df866126cc565b5f5b82811015612906578489015182556001820191506020850194506020810190506128e1565b86831015612923578489015161291f601f891682612832565b8355505b6001600288020188555050505b505050505050565b5f61294383856120cd565b93506129508385846122b4565b61295983611d96565b840190509392505050565b5f6040820190508181035f83015261297d818587612938565b905061298c6020830184611c9f565b949350505050565b7f546f6f206d616e79206d657373616765732072657175657374656400000000005f82015250565b5f6129c8601b836120cd565b91506129d382612994565b602082019050919050565b5f6020820190508181035f8301526129f5816129bc565b9050919050565b5f612a0682611c96565b91505f8203612a1857612a176123c0565b5b600182039050919050565b7f536574206e69636b6e616d6520666972737400000000000000000000000000005f82015250565b5f612a576012836120cd565b9150612a6282612a23565b602082019050919050565b5f6020820190508181035f830152612a8481612a4b565b9050919050565b5f82905092915050565b612a9f8383612a8b565b67ffffffffffffffff811115612ab857612ab7612366565b5b612ac28254612212565b612acd8282856127e0565b5f601f831160018114612afa575f8415612ae8578287013590505b612af2858261284e565b865550612b59565b601f198416612b08866126cc565b5f5b82811015612b2f57848901358255600182019150602085019450602081019050612b0a565b86831015612b4c5784890135612b48601f891682612832565b8355505b6001600288020188555050505b50505050505050565b5f8154612b6e81612212565b612b7881866120cd565b9450600182165f8114612b925760018114612ba857612bda565b60ff198316865281151560200286019350612bda565b612bb1856126cc565b5f5b83811015612bd257815481890152600182019150602081019050612bb3565b808801955050505b50505092915050565b5f6040820190508181035f830152612bfb8186612b62565b90508181036020830152612c10818486612938565b9050949350505050565b7f4e69636b6e616d652063616e6e6f7420626520656d70747900000000000000005f82015250565b5f612c4e6018836120cd565b9150612c5982612c1a565b602082019050919050565b5f6020820190508181035f830152612c7b81612c42565b9050919050565b7f4e69636b6e616d6520746f6f206c6f6e670000000000000000000000000000005f82015250565b5f612cb66011836120cd565b9150612cc182612c82565b602082019050919050565b5f6020820190508181035f830152612ce381612caa565b9050919050565b7f4e69636b6e616d6520616c72656164792074616b656e000000000000000000005f82015250565b5f612d1e6016836120cd565b9150612d2982612cea565b602082019050919050565b5f6020820190508181035f830152612d4b81612d12565b9050919050565b5f8154612d5e81612212565b612d6881866122aa565b9450600182165f8114612d825760018114612d9757612dc9565b60ff1983168652811515820286019350612dc9565b612da0856126cc565b5f5b83811015612dc157815481890152600182019150602081019050612da2565b838801955050505b50505092915050565b5f612ddd8284612d52565b915081905092915050565b5f6040820190508181035f830152612e01818688612938565b90508181036020830152612e16818486612938565b90509594505050505056fea2646970667358221220afdac53e7422c991ee4326bcb07cf0f60ad2214c36336957f17f15c2d75ea0e564736f6c63430008140033","linkReferences":{}},"methodIdentifiers":{"deactivateProfile()":"20a17bca","getAddressByNickname(string)":"31085c5f","getAvailablePeriods()":"64598fda","getLatestMessages(uint256)":"9e19a1ca","getMessageCount()":"31933916","getMessagesByPeriod(uint256)":"4eca280c","getMessagesBySender(address)":"c6e4d923","getUserProfile(address)":"987ee156","postMessage(string)":"6630f88f","react((address,uint256,uint256,uint256,address,bytes,bytes,bytes32[]))":"71befe9f","updateAvatar(string)":"9fe958b9","updateProfile(string,string)":"c9d3cc6a"},"id":23}